{
  "contractName": "PredictionMarket",
  "abi": [
    {
      "anonymous": false,
      "inputs": [
        {
          "indexed": true,
          "internalType": "address",
          "name": "participant",
          "type": "address"
        },
        {
          "indexed": true,
          "internalType": "uint256",
          "name": "marketId",
          "type": "uint256"
        },
        {
          "indexed": false,
          "internalType": "uint256",
          "name": "outcomes",
          "type": "uint256"
        },
        {
          "indexed": false,
          "internalType": "string",
          "name": "question",
          "type": "string"
        }
      ],
      "name": "MarketCreated",
      "type": "event"
    },
    {
      "anonymous": false,
      "inputs": [
        {
          "indexed": true,
          "internalType": "uint256",
          "name": "marketId",
          "type": "uint256"
        },
        {
          "indexed": false,
          "internalType": "uint256",
          "name": "value",
          "type": "uint256"
        },
        {
          "indexed": false,
          "internalType": "uint256",
          "name": "price",
          "type": "uint256"
        },
        {
          "indexed": false,
          "internalType": "uint256",
          "name": "timestamp",
          "type": "uint256"
        }
      ],
      "name": "MarketLiquidity",
      "type": "event"
    },
    {
      "anonymous": false,
      "inputs": [
        {
          "indexed": true,
          "internalType": "uint256",
          "name": "marketId",
          "type": "uint256"
        },
        {
          "indexed": true,
          "internalType": "uint256",
          "name": "outcomeId",
          "type": "uint256"
        },
        {
          "indexed": false,
          "internalType": "uint256",
          "name": "value",
          "type": "uint256"
        },
        {
          "indexed": false,
          "internalType": "uint256",
          "name": "timestamp",
          "type": "uint256"
        }
      ],
      "name": "MarketOutcomePrice",
      "type": "event"
    },
    {
      "anonymous": false,
      "inputs": [
        {
          "indexed": true,
          "internalType": "address",
          "name": "oracle",
          "type": "address"
        },
        {
          "indexed": true,
          "internalType": "uint256",
          "name": "marketId",
          "type": "uint256"
        },
        {
          "indexed": false,
          "internalType": "uint256",
          "name": "outcomeId",
          "type": "uint256"
        },
        {
          "indexed": false,
          "internalType": "uint256",
          "name": "timestamp",
          "type": "uint256"
        }
      ],
      "name": "MarketResolved",
      "type": "event"
    },
    {
      "anonymous": false,
      "inputs": [
        {
          "indexed": true,
          "internalType": "address",
          "name": "previousOwner",
          "type": "address"
        },
        {
          "indexed": true,
          "internalType": "address",
          "name": "newOwner",
          "type": "address"
        }
      ],
      "name": "OwnershipTransferred",
      "type": "event"
    },
    {
      "anonymous": false,
      "inputs": [
        {
          "indexed": true,
          "internalType": "address",
          "name": "participant",
          "type": "address"
        },
        {
          "indexed": true,
          "internalType": "enum PredictionMarket.MarketAction",
          "name": "action",
          "type": "uint8"
        },
        {
          "indexed": true,
          "internalType": "uint256",
          "name": "marketId",
          "type": "uint256"
        },
        {
          "indexed": false,
          "internalType": "uint256",
          "name": "outcomeId",
          "type": "uint256"
        },
        {
          "indexed": false,
          "internalType": "uint256",
          "name": "shares",
          "type": "uint256"
        },
        {
          "indexed": false,
          "internalType": "uint256",
          "name": "value",
          "type": "uint256"
        },
        {
          "indexed": false,
          "internalType": "uint256",
          "name": "timestamp",
          "type": "uint256"
        }
      ],
      "name": "ParticipantAction",
      "type": "event"
    },
    {
      "inputs": [],
      "name": "MAX_UINT_256",
      "outputs": [
        {
          "internalType": "uint256",
          "name": "",
          "type": "uint256"
        }
      ],
      "stateMutability": "view",
      "type": "function"
    },
    {
      "inputs": [],
      "name": "ONE",
      "outputs": [
        {
          "internalType": "uint256",
          "name": "",
          "type": "uint256"
        }
      ],
      "stateMutability": "view",
      "type": "function"
    },
    {
      "inputs": [],
      "name": "fee",
      "outputs": [
        {
          "internalType": "uint256",
          "name": "",
          "type": "uint256"
        }
      ],
      "stateMutability": "view",
      "type": "function"
    },
    {
      "inputs": [],
      "name": "marketIndex",
      "outputs": [
        {
          "internalType": "uint256",
          "name": "",
          "type": "uint256"
        }
      ],
      "stateMutability": "view",
      "type": "function"
    },
    {
      "inputs": [],
      "name": "owner",
      "outputs": [
        {
          "internalType": "address",
          "name": "",
          "type": "address"
        }
      ],
      "stateMutability": "view",
      "type": "function"
    },
    {
      "inputs": [],
      "name": "realitioAddress",
      "outputs": [
        {
          "internalType": "address",
          "name": "",
          "type": "address"
        }
      ],
      "stateMutability": "view",
      "type": "function"
    },
    {
      "inputs": [],
      "name": "realitioTimeout",
      "outputs": [
        {
          "internalType": "uint256",
          "name": "",
          "type": "uint256"
        }
      ],
      "stateMutability": "view",
      "type": "function"
    },
    {
      "inputs": [],
      "name": "renounceOwnership",
      "outputs": [],
      "stateMutability": "nonpayable",
      "type": "function"
    },
    {
      "inputs": [
        {
          "internalType": "address",
          "name": "newOwner",
          "type": "address"
        }
      ],
      "name": "transferOwnership",
      "outputs": [],
      "stateMutability": "nonpayable",
      "type": "function"
    },
    {
      "inputs": [
        {
          "internalType": "string",
          "name": "question",
          "type": "string"
        },
        {
          "internalType": "uint256",
          "name": "closesAt",
          "type": "uint256"
        },
        {
          "internalType": "address",
          "name": "oracle",
          "type": "address"
        },
        {
          "internalType": "uint256",
          "name": "outcomes",
          "type": "uint256"
        }
      ],
      "name": "createMarket",
      "outputs": [
        {
          "internalType": "uint256",
          "name": "",
          "type": "uint256"
        }
      ],
      "stateMutability": "payable",
      "type": "function"
    },
    {
      "inputs": [
        {
          "internalType": "uint256",
          "name": "marketId",
          "type": "uint256"
        },
        {
          "internalType": "uint256",
          "name": "outcomeId",
          "type": "uint256"
        }
      ],
      "name": "buy",
      "outputs": [],
      "stateMutability": "payable",
      "type": "function"
    },
    {
      "inputs": [
        {
          "internalType": "uint256",
          "name": "marketId",
          "type": "uint256"
        },
        {
          "internalType": "uint256",
          "name": "outcomeId",
          "type": "uint256"
        },
        {
          "internalType": "uint256",
          "name": "shares",
          "type": "uint256"
        }
      ],
      "name": "sell",
      "outputs": [],
      "stateMutability": "payable",
      "type": "function"
    },
    {
      "inputs": [
        {
          "internalType": "uint256",
          "name": "marketId",
          "type": "uint256"
        }
      ],
      "name": "addLiquidity",
      "outputs": [],
      "stateMutability": "payable",
      "type": "function"
    },
    {
      "inputs": [
        {
          "internalType": "uint256",
          "name": "marketId",
          "type": "uint256"
        },
        {
          "internalType": "uint256",
          "name": "shares",
          "type": "uint256"
        }
      ],
      "name": "removeLiquidity",
      "outputs": [],
      "stateMutability": "payable",
      "type": "function"
    },
    {
      "inputs": [
        {
          "internalType": "uint256",
          "name": "marketId",
          "type": "uint256"
        }
      ],
      "name": "resolveMarketOutcome",
      "outputs": [
        {
          "internalType": "uint256",
          "name": "",
          "type": "uint256"
        }
      ],
      "stateMutability": "nonpayable",
      "type": "function"
    },
    {
      "inputs": [
        {
          "internalType": "uint256",
          "name": "marketId",
          "type": "uint256"
        }
      ],
      "name": "claimWinnings",
      "outputs": [],
      "stateMutability": "nonpayable",
      "type": "function"
    },
    {
      "inputs": [
        {
          "internalType": "uint256",
          "name": "marketId",
          "type": "uint256"
        }
      ],
      "name": "claimLiquidity",
      "outputs": [],
      "stateMutability": "nonpayable",
      "type": "function"
    },
    {
      "inputs": [
        {
          "internalType": "uint256",
          "name": "marketId",
          "type": "uint256"
        }
      ],
      "name": "claimFees",
      "outputs": [],
      "stateMutability": "payable",
      "type": "function"
    },
    {
      "inputs": [
        {
          "internalType": "uint256",
          "name": "feeValue",
          "type": "uint256"
        }
      ],
      "name": "setFee",
      "outputs": [],
      "stateMutability": "nonpayable",
      "type": "function"
    },
    {
      "inputs": [
        {
          "internalType": "address",
          "name": "addr",
          "type": "address"
        }
      ],
      "name": "setRealitioERC20",
      "outputs": [],
      "stateMutability": "nonpayable",
      "type": "function"
    },
    {
      "inputs": [
        {
          "internalType": "uint256",
          "name": "timeout",
          "type": "uint256"
        }
      ],
      "name": "setRealitioTimeout",
      "outputs": [],
      "stateMutability": "nonpayable",
      "type": "function"
    },
    {
      "inputs": [
        {
          "internalType": "uint256",
          "name": "marketId",
          "type": "uint256"
        },
        {
          "internalType": "address",
          "name": "participant",
          "type": "address"
        }
      ],
      "name": "getUserMarketShares",
      "outputs": [
        {
          "internalType": "uint256",
          "name": "",
          "type": "uint256"
        },
        {
          "internalType": "uint256",
          "name": "",
          "type": "uint256"
        },
        {
          "internalType": "uint256",
          "name": "",
          "type": "uint256"
        }
      ],
      "stateMutability": "view",
      "type": "function"
    },
    {
      "inputs": [
        {
          "internalType": "uint256",
          "name": "marketId",
          "type": "uint256"
        },
        {
          "internalType": "address",
          "name": "participant",
          "type": "address"
        }
      ],
      "name": "getUserClaimStatus",
      "outputs": [
        {
          "internalType": "bool",
          "name": "",
          "type": "bool"
        },
        {
          "internalType": "bool",
          "name": "",
          "type": "bool"
        },
        {
          "internalType": "bool",
          "name": "",
          "type": "bool"
        },
        {
          "internalType": "bool",
          "name": "",
          "type": "bool"
        },
        {
          "internalType": "uint256",
          "name": "",
          "type": "uint256"
        }
      ],
      "stateMutability": "view",
      "type": "function"
    },
    {
      "inputs": [
        {
          "internalType": "uint256",
          "name": "marketId",
          "type": "uint256"
        },
        {
          "internalType": "address",
          "name": "participant",
          "type": "address"
        }
      ],
      "name": "getUserLiquidityPoolShare",
      "outputs": [
        {
          "internalType": "uint256",
          "name": "",
          "type": "uint256"
        }
      ],
      "stateMutability": "view",
      "type": "function"
    },
    {
      "inputs": [
        {
          "internalType": "uint256",
          "name": "marketId",
          "type": "uint256"
        },
        {
          "internalType": "address",
          "name": "participant",
          "type": "address"
        }
      ],
      "name": "getUserClaimableFees",
      "outputs": [
        {
          "internalType": "uint256",
          "name": "",
          "type": "uint256"
        }
      ],
      "stateMutability": "view",
      "type": "function"
    },
    {
      "inputs": [],
      "name": "getMarkets",
      "outputs": [
        {
          "internalType": "uint256[]",
          "name": "",
          "type": "uint256[]"
        }
      ],
      "stateMutability": "view",
      "type": "function"
    },
    {
      "inputs": [
        {
          "internalType": "uint256",
          "name": "marketId",
          "type": "uint256"
        }
      ],
      "name": "getMarketData",
      "outputs": [
        {
          "internalType": "string",
          "name": "",
          "type": "string"
        },
        {
          "internalType": "enum PredictionMarket.MarketState",
          "name": "",
          "type": "uint8"
        },
        {
          "internalType": "uint256",
          "name": "",
          "type": "uint256"
        },
        {
          "internalType": "uint256",
          "name": "",
          "type": "uint256"
        },
        {
          "internalType": "uint256",
          "name": "",
          "type": "uint256"
        },
        {
          "internalType": "uint256",
          "name": "",
          "type": "uint256"
        },
        {
          "internalType": "int256",
          "name": "",
          "type": "int256"
        }
      ],
      "stateMutability": "view",
      "type": "function"
    },
    {
      "inputs": [
        {
          "internalType": "uint256",
          "name": "marketId",
          "type": "uint256"
        }
      ],
      "name": "getMarketAltData",
      "outputs": [
        {
          "internalType": "uint256",
          "name": "",
          "type": "uint256"
        },
        {
          "internalType": "bytes32",
          "name": "",
          "type": "bytes32"
        },
        {
          "internalType": "uint256",
          "name": "",
          "type": "uint256"
        }
      ],
      "stateMutability": "view",
      "type": "function"
    },
    {
      "inputs": [
        {
          "internalType": "uint256",
          "name": "marketId",
          "type": "uint256"
        }
      ],
      "name": "getMarketQuestion",
      "outputs": [
        {
          "internalType": "bytes32",
          "name": "",
          "type": "bytes32"
        }
      ],
      "stateMutability": "view",
      "type": "function"
    },
    {
      "inputs": [
        {
          "internalType": "uint256",
          "name": "marketId",
          "type": "uint256"
        }
      ],
      "name": "getMarketPrices",
      "outputs": [
        {
          "internalType": "uint256",
          "name": "",
          "type": "uint256"
        },
        {
          "internalType": "uint256",
          "name": "",
          "type": "uint256"
        },
        {
          "internalType": "uint256",
          "name": "",
          "type": "uint256"
        }
      ],
      "stateMutability": "view",
      "type": "function"
    },
    {
      "inputs": [
        {
          "internalType": "uint256",
          "name": "marketId",
          "type": "uint256"
        }
      ],
      "name": "getMarketLiquidityPrice",
      "outputs": [
        {
          "internalType": "uint256",
          "name": "",
          "type": "uint256"
        }
      ],
      "stateMutability": "view",
      "type": "function"
    },
    {
      "inputs": [
        {
          "internalType": "uint256",
          "name": "marketId",
          "type": "uint256"
        }
      ],
      "name": "getMarketResolvedOutcome",
      "outputs": [
        {
          "internalType": "int256",
          "name": "",
          "type": "int256"
        }
      ],
      "stateMutability": "view",
      "type": "function"
    },
    {
      "inputs": [
        {
          "internalType": "uint256",
          "name": "marketId",
          "type": "uint256"
        }
      ],
      "name": "getMarketOutcomeIds",
      "outputs": [
        {
          "internalType": "uint256[]",
          "name": "",
          "type": "uint256[]"
        }
      ],
      "stateMutability": "view",
      "type": "function"
    },
    {
      "inputs": [
        {
          "internalType": "uint256",
          "name": "marketId",
          "type": "uint256"
        },
        {
          "internalType": "uint256",
          "name": "marketOutcomeId",
          "type": "uint256"
        }
      ],
      "name": "getMarketOutcomePrice",
      "outputs": [
        {
          "internalType": "uint256",
          "name": "",
          "type": "uint256"
        }
      ],
      "stateMutability": "view",
      "type": "function"
    },
    {
      "inputs": [
        {
          "internalType": "uint256",
          "name": "marketId",
          "type": "uint256"
        },
        {
          "internalType": "uint256",
          "name": "marketOutcomeId",
          "type": "uint256"
        }
      ],
      "name": "getMarketOutcomeData",
      "outputs": [
        {
          "internalType": "string",
          "name": "",
          "type": "string"
        },
        {
          "internalType": "uint256",
          "name": "",
          "type": "uint256"
        },
        {
          "internalType": "uint256",
          "name": "",
          "type": "uint256"
        },
        {
          "internalType": "uint256",
          "name": "",
          "type": "uint256"
        }
      ],
      "stateMutability": "view",
      "type": "function"
    }
  ],
  "bytecode": "0x608060405234801561001057600080fd5b5061319f806100206000396000f3fe6080604052600436106101945760003560e01c80631d7920aa1461019957806328747a80146101d15780632c2aa24e146101fe57806331877a381461022f5780633d41a26b1461025c5780633fe45e3b146102715780634397c4ce1461028657806351c6590a146102a65780635e648eff146102bb578063677bd9ff146102db57806369fe0e2d146102fb578063715018a61461031b5780637b34e6e01461033057806385b91d8e146103525780638c7adc15146103725780638cd41552146103875780638da5cb5b146103a75780639d7de6b3146103bc578063aa22a02e146103cf578063ac68a748146103ef578063b31eb89514610402578063bf45572114610422578063bfacba3d14610442578063c2ee3a0814610475578063c8f70d011461048a578063d3c9727c146104aa578063d6febde8146104bd578063ddca3f43146104d0578063ec2c9016146104e5578063ede2e06e146104fa578063efce43131461051a578063f249cfd11461054a578063f2fde38b1461055d578063fdff80851461057d578063ffce3d5e1461059d575b600080fd5b3480156101a557600080fd5b506101b96101b4366004612972565b6105bd565b6040516101c8939291906130ba565b60405180910390f35b3480156101dd57600080fd5b506101f16101ec366004612972565b6105dc565b6040516101c89190612acc565b34801561020a57600080fd5b5061021e61021936600461298a565b610837565b6040516101c8959493929190612aa5565b34801561023b57600080fd5b5061024f61024a366004612972565b610907565b6040516101c89190612a61565b34801561026857600080fd5b506101f1610970565b34801561027d57600080fd5b506101f1610976565b34801561029257600080fd5b506101f16102a1366004612972565b61097c565b6102b96102b4366004612972565b610991565b005b3480156102c757600080fd5b506102b96102d6366004612972565b610c97565b3480156102e757600080fd5b506102b96102f6366004612972565b610e4d565b34801561030757600080fd5b506102b9610316366004612972565b610fa1565b34801561032757600080fd5b506102b9610fe5565b34801561033c57600080fd5b5061034561105c565b6040516101c89190612a4d565b34801561035e57600080fd5b506101b961036d366004612972565b61106b565b34801561037e57600080fd5b506101f161109c565b34801561039357600080fd5b506101f16103a23660046129b6565b6110a2565b3480156103b357600080fd5b5061034561119c565b6102b96103ca3660046129b6565b6111ab565b3480156103db57600080fd5b506101f16103ea36600461298a565b611522565b6102b96103fd366004612972565b611575565b34801561040e57600080fd5b506101b961041d36600461298a565b61163e565b34801561042e57600080fd5b506101f161043d366004612972565b61169c565b34801561044e57600080fd5b5061046261045d366004612972565b6116d9565b6040516101c89796959493929190612b4e565b34801561048157600080fd5b506101f16117c7565b34801561049657600080fd5b506101f16104a5366004612972565b6117d3565b6102b96104b83660046129d7565b611874565b6102b96104cb3660046129b6565b611bce565b3480156104dc57600080fd5b506101f1611bdf565b3480156104f157600080fd5b5061024f611be5565b34801561050657600080fd5b506102b9610515366004612972565b611c3d565b34801561052657600080fd5b5061053a6105353660046129b6565b611c81565b6040516101c89493929190612b9d565b6101f16105583660046128b8565b611d5f565b34801561056957600080fd5b506102b9610578366004612885565b612025565b34801561058957600080fd5b506101f161059836600461298a565b6120d4565b3480156105a957600080fd5b506102b96105b8366004612885565b612156565b6000908152606660205260409020600b810154600a9091015490918190565b60008181526066602052604081206001015482904211801561061b575060008181526066602052604081206007015460ff16600281111561061957fe5b145b1561062957610629816121b7565b8260018060008381526066602052604090206007015460ff16600281111561064d57fe5b1461065757600080fd5b600085815260666020526040808220606954600a820154925163684e62bf60e11b8152899492936001600160a01b039092169291839163d09cc57e9161069f91600401612acc565b60206040518083038186803b1580156106b757600080fd5b505afa1580156106cb573d6000803e3d6000fd5b505050506040513d601f19601f820116820180604052506106ef91908101906128a0565b6000818152600f8501602052604090819020600986018390559051919250908a9033907f67a6457c8912ae1b7a9fbdfa311cbd016ba606b548bf06bc80bc751072d91bbc906107419086904290612ad5565b60405180910390a3818a60008051602061314a833981519152670de0b6b3a764000042604051610772929190612ad5565b60405180910390a3811561078757600061078a565b60015b60ff168a60008051602061314a8339815191526000426040516107ae929190612ad5565b60405180910390a3600384015460048201546000916107eb916107df90670de0b6b3a764000063ffffffff61220716565b9063ffffffff61224116565b90508a6000805160206130ea83398151915286600301548342604051610813939291906130ba565b60405180910390a25050505060090154945061082e816121b7565b50505050919050565b600082815260666020526040812081908190819081906002600782015460ff16600281111561086257fe5b14610887576000806000806108778c8c6120d4565b95509550955095509550506108fd565b60098101546000908152600f8201602090815260408083206001600160a01b038b16845260058082018452828520546006808401865284872054928801865284872054908801909552929094205490939115159260ff9283169290151591166108f08d8d6120d4565b9650965096509650965050505b9295509295909350565b600081815260666020908152604091829020600e81018054845181850281018501909552808552606094929383018282801561096257602002820191906000526020600020905b81548152602001906001019080831161094e575b50505050509150505b919050565b60001981565b606a5481565b6000908152606660205260409020600a015490565b6000818152606660205260409020600101548190421180156109d0575060008181526066602052604081206007015460ff1660028111156109ce57fe5b145b156109de576109de816121b7565b8160008060008381526066602052604090206007015460ff166002811115610a0257fe5b14610a0c57600080fd5b600084815260666020526040902034610a405760405162461bcd60e51b8152600401610a3790612e4d565b60405180910390fd5b600019600080805b600e850154811015610aaa57600085600e018281548110610a6557fe5b6000918252602080832090910154808352600f89019091526040909120600481015491925090861115610aa057806003016001015495508194505b5050600101610a48565b506003840154600090610ac7906107df863463ffffffff61220716565b9050610ad589826002612273565b506003850154610aeb908263ffffffff61236316565b6003860155336000908152600586016020526040902054610b12908263ffffffff61236316565b33600090815260058701602052604090205534811415610be8576002850154610b41908263ffffffff61236316565b600286015560005b600e860154811015610be257600086600e018281548110610b6657fe5b6000918252602080832090910154808352600f8a019091526040909120600481015491925090610b9c908563ffffffff61236316565b60048201556003810154610bb6908563ffffffff61236316565b60038201556004880154610bd0908563ffffffff61236316565b60048901555034935050600101610b49565b50610c1d565b610bf58984346002612388565b610c1a670de0b6b3a76400006107df610c0d8c6117d3565b849063ffffffff61220716565b91505b886002336001600160a01b031660008051602061312a8339815191526000858742604051610c4e9493929190612ae3565b60405180910390a4886000805160206130ea8339815191528660030154610c748c6117d3565b42604051610c84939291906130ba565b60405180910390a2505050505050505050565b8060028060008381526066602052604090206007015460ff166002811115610cbb57fe5b14610cc557600080fd5b600083815260666020908152604080832060098101548452600f8101909252909120610cf085611575565b336000908152600583016020526040902054610d1e5760405162461bcd60e51b8152600401610a3790613070565b33600090815260068301602052604090205460ff1615610d505760405162461bcd60e51b8152600401610a3790612e90565b6000610d7c670de0b6b3a76400006107df610d6b8933611522565b60048601549063ffffffff61220716565b90508083600201541015610da25760405162461bcd60e51b8152600401610a3790612d1b565b6002830154610db7908263ffffffff6126fa16565b60028401553360009081526006840160205260409020805460ff1916600117905585600533600081815260058701602052604080822054905160008051602061312a83398151915292610e0f92909188904290612ae3565b60405180910390a4604051339082156108fc029083906000818181858888f19350505050158015610e44573d6000803e3d6000fd5b50505050505050565b8060028060008381526066602052604090206007015460ff166002811115610e7157fe5b14610e7b57600080fd5b600083815260666020908152604080832060098101548452600f8101835281842033855260058101909352922054610ec55760405162461bcd60e51b8152600401610a3790612ede565b33600090815260068201602052604090205460ff1615610ef75760405162461bcd60e51b8152600401610a3790612fa5565b3360009081526005820160205260409020546002830154811115610f2d5760405162461bcd60e51b8152600401610a3790612d1b565b6002830154610f42908263ffffffff6126fa16565b60028401553360009081526006830160205260409020805460ff19166001179055856004600985015433600081815260058701602052604090819020549051919260008051602061312a83398151915292610e0f929088904290612ae3565b610fa9612722565b6001600160a01b0316610fba61119c565b6001600160a01b031614610fe05760405162461bcd60e51b8152600401610a3790612f70565b606855565b610fed612722565b6001600160a01b0316610ffe61119c565b6001600160a01b0316146110245760405162461bcd60e51b8152600401610a3790612f70565b6033546040516000916001600160a01b03169060008051602061310a833981519152908390a3603380546001600160a01b0319169055565b6069546001600160a01b031681565b6000806000611079846117d3565b6110848560006110a2565b61108f8660016110a2565b9250925092509193909250565b60675481565b6000828152606660209081526040808320848452600f810190925282206002600783015460ff1660028111156110d457fe5b14156110ff57600982015484146110ec5760006110f6565b670de0b6b3a76400005b92505050611196565b6004810154600382015410156111275760405162461bcd60e51b8152600401610a3790612c88565b60048082015490830154101561114f5760405162461bcd60e51b8152600401610a3790612ffa565b6004808201549083015460009161116c919063ffffffff6126fa16565b6004840154909150611190906107df83670de0b6b3a764000063ffffffff61220716565b93505050505b92915050565b6033546001600160a01b031690565b6000828152606660205260409020600101548290421180156111ea575060008181526066602052604081206007015460ff1660028111156111e857fe5b145b156111f8576111f8816121b7565b8260008060008381526066602052604090206007015460ff16600281111561121c57fe5b1461122657600080fd5b6000858152606660209081526040808320338452600581019092529091205485111561125157600080fd5b600061125c87611575565b33600090815260058301602052604090205461127e908763ffffffff6126fa16565b33600090815260058401602052604081209190915560001990805b600e8501548110156112fb57600085600e0182815481106112b657fe5b6000918252602080832090910154808352600f890190915260409091206004810154919250908511156112f157806003016001015494508193505b5050600101611299565b506003840154600090611318906107df858c63ffffffff61220716565b90506113268a8a6003612273565b5088811415611405576002850154611344908263ffffffff6126fa16565b6002860155600385015461135e908263ffffffff6126fa16565b600386015560005b600e8601548110156113fc57600086600e01828154811061138357fe5b6000918252602080832090910154808352600f8a0190915260409091206004810154919250906113b9908563ffffffff6126fa16565b600482015560038101546113d3908563ffffffff6126fa16565b600382015560048801546113ed908563ffffffff6126fa16565b60048901555050600101611366565b50889350611479565b60008215611414576000611417565b60015b60ff166000818152600f88016020526040902060040154600388015491925061144a916107df908d63ffffffff61220716565b6003870154909550611462908b63ffffffff6126fa16565b86600301819055506114778b82876003612388565b505b604051339085156108fc029086906000818181858888f193505050501580156114a6573d6000803e3d6000fd5b50896003336001600160a01b031660008051602061312a83398151915260008d89426040516114d89493929190612ae3565b60405180910390a4896000805160206130ea83398151915286600301546114fe8d6117d3565b4260405161150e939291906130ba565b60405180910390a250505050505050505050565b600082815260666020908152604080832060038101546001600160a01b03861685526005820190935290832054909161156d916107df90670de0b6b3a764000063ffffffff61220716565b949350505050565b60008181526066602052604081209061158e83336120d4565b905080156115fa57336000908152600d830160205260409020546115b8908263ffffffff61236316565b336000818152600d85016020526040808220939093559151909183156108fc02918491818181858888f193505050501580156115f8573d6000803e3d6000fd5b505b82600633600081815260058601602052604080822054905160008051602061312a8339815191529261163192909188904290612ae3565b60405180910390a4505050565b60008281526066602090815260408083206001600160a01b0385168085526005808301855283862054868052600f90930180865284872083885282018652848720546001885290865284872092875291019093529220549250925092565b60008181526066602052604081206002600782015460ff1660028111156116bf57fe5b146116cf5760001991505061096b565b6009015492915050565b6000818152606660205260408120600781015460018201546003830154600284015460048501546060969586958695869586958695859460ff16939291906117208f61169c565b8654604080516020601f600260001961010060018816150201909516949094049384018190048102820181019092528281529189918301828280156117a65780601f1061177b576101008083540402835291602001916117a6565b820191906000526020600020905b81548152906001019060200180831161178957829003601f168201915b50505050509650975097509750975097509750975050919395979092949650565b670de0b6b3a764000081565b60008181526066602052604081206002600782015460ff1660028111156117f657fe5b141561183f57600381015460098201546000908152600f8301602052604090206004015461183791906107df90670de0b6b3a764000063ffffffff61220716565b91505061096b565b6004810154600e820154600383015461186d92916107df9190670de0b6b3a76400000263ffffffff61220716565b9392505050565b6000838152606660205260409020600101548390421180156118b3575060008181526066602052604081206007015460ff1660028111156118b157fe5b145b156118c1576118c1816121b7565b8360008060008381526066602052604090206007015460ff1660028111156118e557fe5b146118ef57600080fd5b6000868152606660209081526040808320888452600f810183528184203385526005810190935292205486111561192557600080fd5b600481015460038201540386111561193c57600080fd5b33600090815260058201602052604090205461195e908763ffffffff6126fa16565b3360009081526005830160205260409020556004810154611985908763ffffffff61236316565b6004808301919091558201546119a1908763ffffffff61236316565b60048084018290558201546000916119be9163ffffffff6126fa16565b600e84015460038501549192506000916119f4916119e4910a600463ffffffff61220716565b6002840a9063ffffffff61236316565b6004840154909150611a119082906002900a63ffffffff61236316565b6004840154909150611a4b90611a3e90611a3285600263ffffffff61220716565b9063ffffffff61220716565b829063ffffffff6126fa16565b9050611a5681612726565b9050611a8281611a7685600301600101548561236390919063ffffffff16565b9063ffffffff6126fa16565b9050611a9581600263ffffffff61224116565b905080471015611aa457600080fd5b8084600201541015611ab557600080fd5b60005b600e850154811015611b2b576000818152600f8601602052604090206004810154611ae9908463ffffffff6126fa16565b60048201556003810154611b03908463ffffffff6126fa16565b60038201556004860154611b1d908463ffffffff6126fa16565b600487015550600101611ab8565b506002840154611b41908263ffffffff6126fa16565b6002850155611b508a82612777565b604051909150339082156108fc029083906000818181858888f19350505050158015611b80573d6000803e3d6000fd5b50896001336001600160a01b031660008051602061312a8339815191528c8c8642604051611bb19493929190612ae3565b60405180910390a4611bc28a6127dd565b50505050505050505050565b611bdb8282346000612388565b5050565b60685481565b60606065805480602002602001604051908101604052809291908181526020018280548015611c3357602002820191906000526020600020905b815481526020019060010190808311611c1f575b5050505050905090565b611c45612722565b6001600160a01b0316611c5661119c565b6001600160a01b031614611c7c5760405162461bcd60e51b8152600401610a3790612f70565b606a55565b6000828152606660209081526040808320848452600f8101909252822060609291829182919060028101611cb589896110a2565b600483015460038401548354604080516020601f60026000196101006001881615020190951694909404938401819004810282018101909252828152918691830182828015611d455780601f10611d1a57610100808354040283529160200191611d45565b820191906000526020600020905b815481529060010190602001808311611d2857829003601f168201915b505050505093509550955095509550505092959194509250565b60675460658054600181019091557f8ff97419363ffd7000167f130ef7168fbea05faf9251824ca5043f113cc6a7c701819055600081815260666020526040812090919034611dc05760405162461bcd60e51b8152600401610a3790612e4d565b42861015611de05760405162461bcd60e51b8152600401610a3790612e03565b83600214611e005760405162461bcd60e51b8152600401610a3790612bcc565b6001810186905560078101805460ff191690556008810180546001600160a01b0319166001600160a01b0387811691909117909155606854600b8301556000196009830155606954606a5460405163d4876b9f60e01b81529190921691829163d4876b9f91611e80916002918d918c91908e906000908190600401612afe565b602060405180830381600087803b158015611e9a57600080fd5b505af1158015611eae573d6000803e3d6000fd5b505050506040513d601f19601f82011682018060405250611ed291908101906128a0565b600a830155346002830181905560038301819055336000908152600584016020526040902054611f079163ffffffff61236316565b3360009081526005840160205260408120919091555b85811015611f8a57600e830180546001818101835560009283526020808420909201849055838352600f8601909152604090912085815590810182905534600480830182905560038301829055850154611f7c9163ffffffff61236316565b600485015550600101611f1d565b50611f94836127dd565b826002336001600160a01b031660008051602061312a8339815191526000343442604051611fc59493929190612ae3565b60405180910390a482336001600160a01b03167fc1c6e14b42878a12d9051abeb4af5fbb5ee317931d51eea91483f1163c50c331878b6040516120099291906130d0565b60405180910390a3505060678054600101905595945050505050565b61202d612722565b6001600160a01b031661203e61119c565b6001600160a01b0316146120645760405162461bcd60e51b8152600401610a3790612f70565b6001600160a01b03811661208a5760405162461bcd60e51b8152600401610a3790612c0d565b6033546040516001600160a01b0380841692169060008051602061310a83398151915290600090a3603380546001600160a01b0319166001600160a01b0392909216919091179055565b600082815260666020908152604080832060038101546001600160a01b03861685526005820190935290832054600c8201549192849261211e926107df919063ffffffff61220716565b6001600160a01b0385166000908152600d8401602052604090205490915061214d90829063ffffffff6126fa16565b95945050505050565b61215e612722565b6001600160a01b031661216f61119c565b6001600160a01b0316146121955760405162461bcd60e51b8152600401610a3790612f70565b606980546001600160a01b0319166001600160a01b0392909216919091179055565b6000818152606660205260409020600781015460ff1660028111156121d857fe5b60010160028111156121e657fe5b60078201805460ff191660018360028111156121fe57fe5b02179055505050565b60008261221657506000611196565b8282028284828161222357fe5b041461186d5760405162461bcd60e51b8152600401610a3790612f2f565b60008082116122625760405162461bcd60e51b8152600401610a3790612d5e565b81838161226b57fe5b049392505050565b60008381526066602052604081206003810154600c82015483916122a2916107df90889063ffffffff61220716565b905060028460068111156122b257fe5b141561230b57600c8201546122cd908263ffffffff61236316565b600c830155336000908152600d830160205260409020546122f4908263ffffffff61236316565b336000908152600d8401602052604090205561235a565b600c820154612320908263ffffffff6126fa16565b600c830155336000908152600d83016020526040902054612347908263ffffffff6126fa16565b336000908152600d840160205260409020555b50509392505050565b60008282018381101561186d5760405162461bcd60e51b8152600401610a3790612c53565b6000848152606660205260409020600101548490421180156123c7575060008181526066602052604081206007015460ff1660028111156123c557fe5b145b156123d5576123d5816121b7565b8460008060008381526066602052604090206007015460ff1660028111156123f957fe5b1461240357600080fd5b60008781526066602052604081209085600681111561241e57fe5b14156124315761242e8887612777565b95505b6000878152600f820160205260409020600386600681111561244f57fe5b1461246e576002820154612469908863ffffffff61236316565b612483565b6002820154612483908863ffffffff6126fa16565b6002830155600160005b600e84015481101561259f576000818152600f85016020526040902060038960068111156124b757fe5b146124d65760048101546124d1908b63ffffffff61236316565b6124eb565b60048101546124eb908b63ffffffff6126fa16565b600482015560038960068111156124fe57fe5b1461251d576003810154612518908b63ffffffff61236316565b612532565b6003810154612532908b63ffffffff6126fa16565b6003820155600481015461254d90849063ffffffff61220716565b9250600389600681111561255d57fe5b1461257c576004850154612577908b63ffffffff61236316565b612591565b6004850154612591908b63ffffffff6126fa16565b60048601555060010161248d565b50600e830154600384015460048401546000926125ca9285926107df9290910a63ffffffff61220716565b6004840154039050806125ef5760405162461bcd60e51b8152600401610a3790612ddf565b60048301548111156126135760405162461bcd60e51b8152600401610a3790612d92565b336000908152600584016020526040902054612635908263ffffffff61236316565b336000908152600585016020526040902055600483015461265c908263ffffffff6126fa16565b600480850191909155840154612678908263ffffffff6126fa16565b6004850155600088600681111561268b57fe5b146126ac576126a9670de0b6b3a76400006107df610c0d8e8e6110a2565b98505b8a6000336001600160a01b031660008051602061312a8339815191528d858e426040516126dc9493929190612ae3565b60405180910390a46126ed8b6127dd565b5050505050505050505050565b60008282111561271c5760405162461bcd60e51b8152600401610a3790612ce4565b50900390565b3390565b60006003821115612769575080600160028204015b818110156127635780915060028182858161275257fe5b04018161275b57fe5b04905061273b565b5061096b565b811561096b57506001919050565b6000828152606660205260408120600b8101548290670de0b6b3a7640000906127a790869063ffffffff61220716565b816127ae57fe5b600c84015491900491506127c8908263ffffffff61236316565b600c83015561214d848263ffffffff6126fa16565b6000818152606660205260408120905b600e82015481101561283357808360008051602061314a83398151915261281486856110a2565b42604051612823929190612ad5565b60405180910390a36001016127ed565b50816000805160206130ea8339815191528260030154612852856117d3565b42604051612862939291906130ba565b60405180910390a25050565b80356001600160a01b038116811461119657600080fd5b600060208284031215612896578081fd5b61186d838361286e565b6000602082840312156128b1578081fd5b5051919050565b600080600080608085870312156128cd578283fd5b84356001600160401b03808211156128e3578485fd5b81870188601f8201126128f4578586fd5b8035925081831115612904578586fd5b6040516020601f8501601f1916820181018481118382101715612925578889fd5b60405284825282850181018b101561293b578788fd5b8481840182840137938101840196909652509394508501359250612962866040870161286e565b9396929550929360600135925050565b600060208284031215612983578081fd5b5035919050565b6000806040838503121561299c578182fd5b823591506129ad846020850161286e565b90509250929050565b600080604083850312156129c8578182fd5b50508035926020909101359150565b6000806000606084860312156129eb578283fd5b505081359360208301359350604090920135919050565b60008151808452815b81811015612a2757602081850181015186830182015201612a0b565b81811115612a385782602083870101525b50601f01601f19169290920160200192915050565b6001600160a01b0391909116815260200190565b6020808252825182820181905260009190848201906040850190845b81811015612a9957835183529284019291840191600101612a7d565b50909695505050505050565b94151585529215156020850152901515604084015215156060830152608082015260a00190565b90815260200190565b918252602082015260400190565b93845260208401929092526040830152606082015260800190565b600088825260e06020830152612b1760e0830189612a02565b6001600160a01b039790971660408301525063ffffffff948516606082015292909316608083015260a082015260c0015292915050565b600060e08252612b6160e083018a612a02565b905060038810612b6d57fe5b8760208301528660408301528560608301528460808301528360a08301528260c083015298975050505050505050565b600060808252612bb06080830187612a02565b6020830195909552506040810192909252606090910152919050565b60208082526021908201527f4e756d626572206d61726b6574206f7574636f6d652068617320746f206265206040820152601960f91b606082015260800190565b60208082526026908201527f4f776e61626c653a206e6577206f776e657220697320746865207a65726f206160408201526564647265737360d01b606082015260800190565b6020808252601b908201527a536166654d6174683a206164646974696f6e206f766572666c6f7760281b604082015260600190565b6020808252603c908201527f546f74616c207368617265732068617320746f20626520657175616c206f722060408201527b686967686572207468616e20617661696c61626c652073686172657360201b606082015260800190565b6020808252601e908201527f536166654d6174683a207375627472616374696f6e206f766572666c6f770000604082015260600190565b60208082526023908201527f4d61726b657420646f6573206e6f74206861766520656e6f7567682062616c616040820152626e636560e81b606082015260800190565b6020808252601a9082015279536166654d6174683a206469766973696f6e206279207a65726f60301b604082015260600190565b6020808252602d908201527f43616e277420627579206d6f726520736861726573207468616e20746865206f60408201526c6e657320617661696c61626c6560981b606082015260800190565b6020808252600a9082015269043616e277420626520360b41b604082015260600190565b6020808252602a908201527f4d61726b65742068617320746f20636c6f7365206166746572207468652063756040820152697272656e74206461746560b01b606082015260800190565b60208082526023908201527f546865207374616b652068617320746f2062652067726561746572207468616e60408201526210181760e91b606082015260800190565b6020808252602e908201527f5061727469636970616e7420616c726561647920636c61696d6564206c69717560408201526d69646974792077696e6e696e677360901b606082015260800190565b60208082526031908201527f5061727469636970616e7420646f6573206e6f7420686f6c64207265736f6c766040820152706564206f7574636f6d652073686172657360781b606082015260800190565b60208082526021908201527f536166654d6174683a206d756c7469706c69636174696f6e206f766572666c6f6040820152607760f81b606082015260800190565b6020808252818101527f4f776e61626c653a2063616c6c6572206973206e6f7420746865206f776e6572604082015260600190565b60208082526035908201527f5061727469636970616e7420616c726561647920636c61696d6564207265736f6040820152746c766564206f7574636f6d652077696e6e696e677360581b606082015260800190565b60208082526050908201527f546f74616c202320617661696c61626c65207368617265732068617320746f2060408201527f626520657175616c206f7220686967686572207468616e206f7574636f6d652060608201526f617661696c61626c652073686172657360801b608082015260a00190565b6020808252602a908201527f5061727469636970616e7420646f6573206e6f7420686f6c64206c69717569646040820152696974792073686172657360b01b606082015260800190565b9283526020830191909152604082015260600190565b60008382526040602083015261156d6040830184612a0256fe1eca98f266e5348ae38d5d057a4d8e451e76672f69ac6ba4b0e3b31ea9c7eb2b8be0079c531659141344cd1fd0a4f28419497f9722a3daafe3b4186f6b6457e0f234ce8a0f255434ef7d62a699a746ee45ac4452531081e609f1556d27faf12c8270f0a0534b13b7f92d1dbd58aa75c5207b40c55fefa7a17110c6136ad7270ba2646970667358221220f238c1d2dc3deda068ec3f111637a7179be1999241c5e5de676668ba8e672fbd64736f6c63430006020033",
  "source": "pragma solidity ^0.6.0;\npragma experimental ABIEncoderV2;\n\nimport \"./RealitioERC20.sol\";\n\n// openzeppelin imports\nimport \"@openzeppelin/contracts/math/SafeMath.sol\";\nimport \"@openzeppelin/contracts-upgradeable/access/OwnableUpgradeable.sol\";\n\nlibrary PMHelpers {\n  // fetched from uniswap: https://github.com/Uniswap/uniswap-v2-core/blob/v1.0.1/contracts/libraries/Math.sol\n  // babylonian method (https://en.wikipedia.org/wiki/Methods_of_computing_square_roots#Babylonian_method)\n  function sqrt(uint256 y) internal pure returns (uint256 z) {\n    if (y > 3) {\n      z = y;\n      uint256 x = y / 2 + 1;\n      while (x < z) {\n        z = x;\n        x = (y / x + x) / 2;\n      }\n    } else if (y != 0) {\n      z = 1;\n    }\n  }\n}\n\n/// @title Market Contract Factory\ncontract PredictionMarket is Initializable, OwnableUpgradeable {\n  using SafeMath for uint256;\n\n  // ------ Events ------\n\n  event MarketCreated(\n    address indexed participant,\n    uint256 indexed marketId,\n    uint256 outcomes,\n    string question\n  );\n\n  event ParticipantAction(\n    address indexed participant,\n    MarketAction indexed action,\n    uint256 indexed marketId,\n    uint256 outcomeId,\n    uint256 shares,\n    uint256 value,\n    uint256 timestamp\n  );\n\n  event MarketOutcomePrice(uint256 indexed marketId, uint256 indexed outcomeId, uint256 value, uint256 timestamp);\n\n  event MarketLiquidity(\n    uint256 indexed marketId,\n    uint256 value, // total liquidity (ETH)\n    uint256 price, // value of 1 liquidity share; max: 1 ETH (50-50 situation)\n    uint256 timestamp\n  );\n\n  event MarketResolved(address indexed oracle, uint256 indexed marketId, uint256 outcomeId, uint256 timestamp);\n\n  // ------ Events End ------\n\n  uint256 public constant MAX_UINT_256 = 115792089237316195423570985008687907853269984665640564039457584007913129639935;\n\n  uint256 public constant ONE = 10**18;\n\n  enum MarketState {\n    open,\n    closed,\n    resolved\n  }\n  enum MarketAction {\n    buy,\n    sell,\n    addLiquidity,\n    removeLiquidity,\n    claimWinnings,\n    claimLiquidity,\n    claimFees\n  }\n\n  struct Market {\n    // market details\n    string name; // TODO remove: deprecated;\n    uint256 closedDateTime;\n    uint256 balance; // total stake (ETH)\n    uint256 liquidity; // stake held (ETH)\n    uint256 sharesAvailable; // shares held (all outcomes)\n    mapping(address => uint256) liquidityShares;\n    mapping(address => bool) liquidityClaims; // wether participant has claimed liquidity winnings\n    MarketState state; // resolution variables\n    MarketResolution resolution; // fees\n    MarketFees fees;\n    // market outcomes\n    uint256[] outcomeIds;\n    mapping(uint256 => MarketOutcome) outcomes;\n  }\n\n  struct MarketFees {\n    uint256 value; // fee % taken from every transaction\n    uint256 poolWeight; // internal var used to ensure pro-rate fee distribution\n    mapping(address => uint256) claimed;\n  }\n\n  struct MarketResolution {\n    address oracle; // TODO remove: deprecated;\n    bool resolved;\n    uint256 outcomeId;\n    bytes32 questionId; // realitio questionId\n  }\n\n  struct MarketOutcome {\n    uint256 marketId;\n    uint256 id;\n    string name;  // TODO remove: deprecated;\n    Shares shares;\n  }\n\n  struct Shares {\n    uint256 total; // number of shares\n    uint256 available; // available shares\n    mapping(address => uint256) holders;\n    mapping(address => bool) claims; // wether participant has claimed winnings\n  }\n\n  uint256[] marketIds;\n  mapping(uint256 => Market) markets;\n  uint256 public marketIndex;\n\n  // governance\n  uint256 public fee; // fee % taken from every transaction, can be updated by contract owner\n  // realitio configs\n  address public realitioAddress;\n  uint256 public realitioTimeout;\n\n  // ------ Modifiers ------\n\n  modifier isMarket(uint256 marketId) {\n    require(marketId < marketIndex);\n    _;\n  }\n\n  modifier timeTransitions(uint256 marketId) {\n    if (now > markets[marketId].closedDateTime && markets[marketId].state == MarketState.open) {\n      nextState(marketId);\n    }\n    _;\n  }\n\n  modifier atState(uint256 marketId, MarketState state) {\n    require(markets[marketId].state == state);\n    _;\n  }\n\n  modifier notAtState(uint256 marketId, MarketState state) {\n    require(markets[marketId].state != state);\n    _;\n  }\n\n  modifier transitionNext(uint256 marketId) {\n    _;\n    nextState(marketId);\n  }\n\n  // ------ Modifiers End ------\n\n  // Initializer function (replaces constructor)\n  // function initialize() public initializer {\n  //   __Ownable_init();\n  // }\n\n  // ------ Core Functions ------\n\n  /// Create a new Market contract\n  /// @dev The new Market contract is then saved in the array of this contract for future reference.\n  /// @param question - Market details: https://reality.eth.link/app/docs/html/contracts.html#how-questions-are-structured\n  /// @param closesAt - Timestamp of market expiration\n  /// @param oracle - Artbitrator address\n  /// @param outcomes - Number of outcomes\n  function createMarket(\n    string memory question,\n    uint256 closesAt,\n    address oracle,\n    uint256 outcomes\n  ) public payable returns (uint256) {\n    uint256 marketId = marketIndex;\n    marketIds.push(marketId);\n\n    Market storage market = markets[marketId];\n\n    require(msg.value > 0, \"The stake has to be greater than 0.\");\n    require(closesAt >= now, \"Market has to close after the current date\");\n    require(oracle == address(oracle), \"Invalid oracle address\");\n    // starting with secondary markets\n    require(outcomes == 2, \"Number market outcome has to be 2\");\n\n    market.closedDateTime = closesAt;\n    market.state = MarketState.open;\n    market.resolution.oracle = oracle;\n    market.fees.value = fee;\n    // setting intial value to an integer that does not map to any outcomeId\n    market.resolution.outcomeId = MAX_UINT_256;\n\n    // creating question in realitio\n    RealitioERC20 realitio = RealitioERC20(realitioAddress);\n\n    market.resolution.questionId = realitio.askQuestionERC20(\n      2,\n      question,\n      oracle,\n      uint32(realitioTimeout),\n      uint32(closesAt),\n      0,\n      0\n    );\n\n    market.balance = msg.value;\n    market.liquidity = msg.value;\n\n    // TODO review: only valid for 50-50 start\n    market.liquidityShares[msg.sender] = market.liquidityShares[msg.sender].add(msg.value);\n\n    // creating market outcomes\n    for (uint256 i = 0; i < outcomes; i++) {\n      market.outcomeIds.push(i);\n      MarketOutcome storage outcome = market.outcomes[i];\n\n      outcome.marketId = marketId;\n      outcome.id = i;\n\n      // TODO review: only valid for 50-50 start\n      // price starts at 0.5 ETH\n      outcome.shares.available = msg.value;\n      outcome.shares.total = msg.value;\n\n      market.sharesAvailable = market.sharesAvailable.add(msg.value);\n    }\n\n    // emiting initial price events\n    emitMarketOutcomePriceEvents(marketId);\n    emit ParticipantAction(msg.sender, MarketAction.addLiquidity, marketId, 0, msg.value, msg.value, now);\n    emit MarketCreated(msg.sender, marketId, outcomes, question);\n\n    // incrementing market array index\n    marketIndex = marketIndex + 1;\n\n    return marketId;\n  }\n\n  function buy(uint256 marketId, uint256 outcomeId) external payable {\n    buy(marketId, outcomeId, msg.value, MarketAction.buy);\n  }\n\n  /// Buy shares of a market outcome\n  function buy(\n    uint256 marketId,\n    uint256 outcomeId,\n    uint256 value,\n    MarketAction parentAction\n  ) internal timeTransitions(marketId) atState(marketId, MarketState.open) {\n    Market storage market = markets[marketId];\n\n    if (parentAction == MarketAction.buy) {\n      // subtracting fee from transaction value\n      value = addTransactionToFeesPool(marketId, value);\n    }\n\n    MarketOutcome storage outcome = market.outcomes[outcomeId];\n    market.balance = parentAction == MarketAction.removeLiquidity\n      ? market.balance.sub(value)\n      : market.balance.add(value);\n\n    uint256 newProductBalance = 1;\n\n    // Funding market shares with received ETH\n    for (uint256 i = 0; i < market.outcomeIds.length; i++) {\n      MarketOutcome storage marketOutcome = market.outcomes[i];\n\n      marketOutcome.shares.available = parentAction == MarketAction.removeLiquidity\n        ? marketOutcome.shares.available.sub(value)\n        : marketOutcome.shares.available.add(value);\n      marketOutcome.shares.total = parentAction == MarketAction.removeLiquidity\n        ? marketOutcome.shares.total.sub(value)\n        : marketOutcome.shares.total.add(value);\n\n      newProductBalance = newProductBalance.mul(marketOutcome.shares.available);\n\n      // only adding to market total shares, the available remains\n      market.sharesAvailable = parentAction == MarketAction.removeLiquidity\n        ? market.sharesAvailable.sub(value)\n        : market.sharesAvailable.add(value);\n    }\n\n    // productBalance = market.liquidity**(market.outcomeIds.length);\n    // newSharesAvailable = outcome.shares.available.mul(productBalance).div(newProductBalance);\n    uint256 shares = outcome.shares.available -\n      outcome.shares.available.mul(market.liquidity**(market.outcomeIds.length)).div(newProductBalance);\n\n    require(shares > 0, \"Can't be 0\");\n    require(outcome.shares.available >= shares, \"Can't buy more shares than the ones available\");\n\n    outcome.shares.holders[msg.sender] = outcome.shares.holders[msg.sender].add(shares);\n\n    outcome.shares.available = outcome.shares.available.sub(shares);\n    market.sharesAvailable = market.sharesAvailable.sub(shares);\n\n    // transaction value is calculated differently if parent action is not buy\n    if (parentAction != MarketAction.buy) {\n      value = shares.mul(getMarketOutcomePrice(marketId, outcomeId)).div(ONE);\n    }\n\n    emit ParticipantAction(msg.sender, MarketAction.buy, marketId, outcomeId, shares, value, now);\n    emitMarketOutcomePriceEvents(marketId);\n  }\n\n  /// Sell shares of a market outcome\n  function sell(\n    uint256 marketId,\n    uint256 outcomeId,\n    uint256 shares\n  ) external payable timeTransitions(marketId) atState(marketId, MarketState.open) {\n    Market storage market = markets[marketId];\n    MarketOutcome storage outcome = market.outcomes[outcomeId];\n\n    // Invariant check: make sure the stake is <= than user's stake\n    require(outcome.shares.holders[msg.sender] >= shares);\n\n    // Invariant check: make sure the market's stake is smaller than the stake\n    require((outcome.shares.total - outcome.shares.available) >= shares);\n\n    // removing shares\n    outcome.shares.holders[msg.sender] = outcome.shares.holders[msg.sender].sub(shares);\n\n    // adding shares back to pool\n    outcome.shares.available = outcome.shares.available.add(shares);\n    market.sharesAvailable = market.sharesAvailable.add(shares);\n\n    uint256 oppositeSharesAvailable = market.sharesAvailable.sub(outcome.shares.available);\n\n    // formula to calculate amount user will receive in ETH\n    // x = 1/2 (-sqrt(a^2 - 2 a (y + z) + 4 b + (y + z)^2) + a + y + z)\n    // x = ETH amount user will receive\n    // y = # shares sold\n    // z = # selling shares available\n    // a = # opposite shares available\n    // b = product balance\n\n    // productBalance = market.liquidity**(market.outcomeIds.length);\n    uint256 value = (oppositeSharesAvailable**2).add((market.liquidity**(market.outcomeIds.length)).mul(4));\n    value = value.add(outcome.shares.available**2);\n    value = value.sub(oppositeSharesAvailable.mul(2).mul(outcome.shares.available));\n    value = PMHelpers.sqrt(value);\n    value = oppositeSharesAvailable.add(outcome.shares.available).sub(value);\n    value = value.div(2);\n\n    require(value >= 0, \"ETH value has to be > 0\");\n\n    // Invariant check: make sure the contract has enough balance to be withdrawn from.\n    require(address(this).balance >= value);\n    require(market.balance >= value);\n\n    // Rebalancing market shares\n    for (uint256 i = 0; i < market.outcomeIds.length; i++) {\n      MarketOutcome storage marketOutcome = market.outcomes[i];\n\n      marketOutcome.shares.available = marketOutcome.shares.available.sub(value);\n      marketOutcome.shares.total = marketOutcome.shares.total.sub(value);\n\n      // only adding to market total shares, the available remains\n      market.sharesAvailable = market.sharesAvailable.sub(value);\n    }\n\n    market.balance = market.balance.sub(value);\n\n    // subtracting fee from transaction value\n    value = addTransactionToFeesPool(marketId, value);\n\n    // 3. Interaction\n    msg.sender.transfer(value);\n\n    emit ParticipantAction(msg.sender, MarketAction.sell, marketId, outcomeId, shares, value, now);\n    emitMarketOutcomePriceEvents(marketId);\n  }\n\n  function addLiquidity(uint256 marketId)\n    external\n    payable\n    timeTransitions(marketId)\n    atState(marketId, MarketState.open)\n  {\n    Market storage market = markets[marketId];\n\n    require(msg.value > 0, \"The stake has to be greater than 0.\");\n\n    // part of the liquidity is exchanged for outcome shares if not 50-50 market\n    // getting liquidity ratio\n    uint256 minShares = MAX_UINT_256;\n    uint256 minOutcomeId;\n    uint256 value;\n\n    for (uint256 i = 0; i < market.outcomeIds.length; i++) {\n      uint256 outcomeId = market.outcomeIds[i];\n      MarketOutcome storage outcome = market.outcomes[outcomeId];\n\n      if (outcome.shares.available < minShares) {\n        minShares = outcome.shares.available;\n        minOutcomeId = outcomeId;\n      }\n    }\n\n    uint256 liquidityRatio = minShares.mul(msg.value).div(market.liquidity);\n\n    // re-balancing fees pool\n    rebalanceFeesPool(marketId, liquidityRatio, MarketAction.addLiquidity);\n\n    market.liquidity = market.liquidity.add(liquidityRatio);\n\n    market.liquidityShares[msg.sender] = market.liquidityShares[msg.sender].add(liquidityRatio);\n\n    // equal outcome split, no need to buy shares\n    if (liquidityRatio == msg.value) {\n      market.balance = market.balance.add(liquidityRatio);\n      for (uint256 i = 0; i < market.outcomeIds.length; i++) {\n        uint256 outcomeId = market.outcomeIds[i];\n        MarketOutcome storage outcome = market.outcomes[outcomeId];\n\n        outcome.shares.available = outcome.shares.available.add(liquidityRatio);\n        outcome.shares.total = outcome.shares.total.add(liquidityRatio);\n\n        market.sharesAvailable = market.sharesAvailable.add(liquidityRatio);\n        value = msg.value;\n      }\n    } else {\n      buy(marketId, minOutcomeId, msg.value, MarketAction.addLiquidity);\n      value = liquidityRatio.mul(getMarketLiquidityPrice(marketId)).div(ONE);\n    }\n\n    emit ParticipantAction(msg.sender, MarketAction.addLiquidity, marketId, 0, liquidityRatio, value, now);\n    emit MarketLiquidity(marketId, market.liquidity, getMarketLiquidityPrice(marketId), now);\n  }\n\n  function removeLiquidity(uint256 marketId, uint256 shares)\n    external\n    payable\n    timeTransitions(marketId)\n    atState(marketId, MarketState.open)\n  {\n    Market storage market = markets[marketId];\n\n    // Invariant check: make sure the stake is <= than user's stake\n    require(market.liquidityShares[msg.sender] >= shares);\n\n    // ETH to transfer to user from liquidity removal\n    uint256 value;\n\n    // claiming any pending fees\n    claimFees(marketId);\n\n    // removing liquidity tokens from market creator\n    market.liquidityShares[msg.sender] = market.liquidityShares[msg.sender].sub(shares);\n\n    // part of the liquidity is exchanged for outcome shares if not 50-50 market\n    // getting liquidity ratio\n    uint256 minShares = MAX_UINT_256;\n    uint256 minOutcomeId;\n\n    for (uint256 i = 0; i < market.outcomeIds.length; i++) {\n      uint256 outcomeId = market.outcomeIds[i];\n      MarketOutcome storage outcome = market.outcomes[outcomeId];\n\n      if (outcome.shares.available < minShares) {\n        minShares = outcome.shares.available;\n        minOutcomeId = outcomeId;\n      }\n    }\n\n    uint256 liquidityRatio = minShares.mul(shares).div(market.liquidity);\n\n    // re-balancing fees pool\n    rebalanceFeesPool(marketId, shares, MarketAction.removeLiquidity);\n\n    // equal outcome split, no need to buy shares\n    if (liquidityRatio == shares) {\n      // removing liquidity from market\n      market.balance = market.balance.sub(liquidityRatio);\n      market.liquidity = market.liquidity.sub(liquidityRatio);\n\n      for (uint256 i = 0; i < market.outcomeIds.length; i++) {\n        uint256 outcomeId = market.outcomeIds[i];\n        MarketOutcome storage outcome = market.outcomes[outcomeId];\n\n        outcome.shares.available = outcome.shares.available.sub(liquidityRatio);\n        outcome.shares.total = outcome.shares.total.sub(liquidityRatio);\n\n        market.sharesAvailable = market.sharesAvailable.sub(liquidityRatio);\n      }\n\n      value = shares;\n    } else {\n      // buying shares from the opposite markets\n      uint256 outcomeId = minOutcomeId == 0 ? 1 : 0;\n\n      // value received: Total Liquidity / Shares Outcome * Liquidity Removed\n      value = market.liquidity.mul(shares).div(market.outcomes[outcomeId].shares.available);\n\n      // removing liquidity from market (shares = value)\n      market.liquidity = market.liquidity.sub(shares);\n\n      buy(marketId, outcomeId, value, MarketAction.removeLiquidity);\n      // msg.sender.transfer(value);\n    }\n\n    // transferring user ETH from liquidity removed\n    msg.sender.transfer(value);\n\n    emit ParticipantAction(msg.sender, MarketAction.removeLiquidity, marketId, 0, shares, value, now);\n    emit MarketLiquidity(marketId, market.liquidity, getMarketLiquidityPrice(marketId), now);\n  }\n\n  /// Determine the result of the market\n  /// @dev Only allowed by oracle\n  /// @return Id of the outcome\n  function resolveMarketOutcome(uint256 marketId)\n    public\n    timeTransitions(marketId)\n    atState(marketId, MarketState.closed)\n    transitionNext(marketId)\n    returns (uint256)\n  {\n    Market storage market = markets[marketId];\n\n    RealitioERC20 realitio = RealitioERC20(realitioAddress);\n    // will throw an error if question is not finalized\n    uint256 outcomeId = uint256(realitio.resultFor(market.resolution.questionId));\n\n    MarketOutcome storage outcome = market.outcomes[outcomeId];\n\n    // TODO: process outcome\n\n    market.resolution.outcomeId = outcomeId;\n\n    emit MarketResolved(msg.sender, marketId, outcomeId, now);\n    // emitting 1 price event for winner outcome\n    emit MarketOutcomePrice(marketId, outcomeId, ONE, now);\n    // emitting 0 price event for loser outcome\n    emit MarketOutcomePrice(marketId, (outcomeId == 0 ? 1 : 0), 0, now);\n    // final liquidity price = outcome shares / liquidity shares\n    uint256 liquidityPrice = outcome.shares.available.mul(ONE).div(market.liquidity);\n    emit MarketLiquidity(marketId, market.liquidity, liquidityPrice, now);\n\n    return market.resolution.outcomeId;\n  }\n\n  /// Allowing holders of resolved outcome shares to claim earnings.\n  function claimWinnings(uint256 marketId) public atState(marketId, MarketState.resolved) {\n    Market storage market = markets[marketId];\n    MarketOutcome storage resolvedOutcome = market.outcomes[market.resolution.outcomeId];\n\n    require(resolvedOutcome.shares.holders[msg.sender] > 0, \"Participant does not hold resolved outcome shares\");\n    require(\n      resolvedOutcome.shares.claims[msg.sender] == false,\n      \"Participant already claimed resolved outcome winnings\"\n    );\n\n    // 1 share = 1 ETH\n    uint256 value = resolvedOutcome.shares.holders[msg.sender];\n\n    // assuring market has enough funds\n    require(market.balance >= value, \"Market does not have enough balance\");\n\n    market.balance = market.balance.sub(value);\n    resolvedOutcome.shares.claims[msg.sender] = true;\n\n    emit ParticipantAction(\n      msg.sender,\n      MarketAction.claimWinnings,\n      marketId,\n      market.resolution.outcomeId,\n      resolvedOutcome.shares.holders[msg.sender],\n      value,\n      now\n    );\n\n    msg.sender.transfer(value);\n  }\n\n  /// Allowing liquidity providers to claim earnings from liquidity providing.\n  function claimLiquidity(uint256 marketId) public atState(marketId, MarketState.resolved) {\n    Market storage market = markets[marketId];\n    MarketOutcome storage resolvedOutcome = market.outcomes[market.resolution.outcomeId];\n\n    // claiming any pending fees\n    claimFees(marketId);\n\n    require(market.liquidityShares[msg.sender] > 0, \"Participant does not hold liquidity shares\");\n    require(market.liquidityClaims[msg.sender] == false, \"Participant already claimed liquidity winnings\");\n\n    // value = total resolved outcome pool shares * pool share (%)\n    uint256 value = resolvedOutcome.shares.available.mul(getUserLiquidityPoolShare(marketId, msg.sender)).div(ONE);\n\n    // assuring market has enough funds\n    require(market.balance >= value, \"Market does not have enough balance\");\n\n    market.balance = market.balance.sub(value);\n    market.liquidityClaims[msg.sender] = true;\n\n    emit ParticipantAction(\n      msg.sender,\n      MarketAction.claimLiquidity,\n      marketId,\n      0,\n      market.liquidityShares[msg.sender],\n      value,\n      now\n    );\n\n    msg.sender.transfer(value);\n  }\n\n  function claimFees(uint256 marketId) public payable {\n    Market storage market = markets[marketId];\n\n    uint256 claimableFees = getUserClaimableFees(marketId, msg.sender);\n\n    if (claimableFees > 0) {\n      market.fees.claimed[msg.sender] = market.fees.claimed[msg.sender].add(claimableFees);\n      msg.sender.transfer(claimableFees);\n    }\n\n    emit ParticipantAction(\n      msg.sender,\n      MarketAction.claimFees,\n      marketId,\n      0,\n      market.liquidityShares[msg.sender],\n      claimableFees,\n      now\n    );\n  }\n\n  function addTransactionToFeesPool(uint256 marketId, uint256 value) internal returns (uint256) {\n    Market storage market = markets[marketId];\n    uint256 feeAmount = value.mul(market.fees.value) / ONE;\n\n    market.fees.poolWeight = market.fees.poolWeight.add(feeAmount);\n\n    // returning investment minus fees\n    return value.sub(feeAmount);\n  }\n\n  function rebalanceFeesPool(\n    uint256 marketId,\n    uint256 liquidityShares,\n    MarketAction action\n  ) internal returns (uint256) {\n    Market storage market = markets[marketId];\n\n    uint256 poolWeight = liquidityShares.mul(market.fees.poolWeight).div(market.liquidity);\n\n    if (action == MarketAction.addLiquidity) {\n      market.fees.poolWeight = market.fees.poolWeight.add(poolWeight);\n      market.fees.claimed[msg.sender] = market.fees.claimed[msg.sender].add(poolWeight);\n    } else {\n      market.fees.poolWeight = market.fees.poolWeight.sub(poolWeight);\n      market.fees.claimed[msg.sender] = market.fees.claimed[msg.sender].sub(poolWeight);\n    }\n  }\n\n  /// Internal function for advancing the market state.\n  function nextState(uint256 marketId) internal {\n    Market storage market = markets[marketId];\n    market.state = MarketState(uint256(market.state) + 1);\n  }\n\n  function emitMarketOutcomePriceEvents(uint256 marketId) internal {\n    Market storage market = markets[marketId];\n\n    for (uint256 i = 0; i < market.outcomeIds.length; i++) {\n      emit MarketOutcomePrice(marketId, i, getMarketOutcomePrice(marketId, i), now);\n    }\n\n    // liquidity shares also change value\n    emit MarketLiquidity(marketId, market.liquidity, getMarketLiquidityPrice(marketId), now);\n  }\n\n  // ------ Core Functions End ------\n\n  // ------ Governance Functions Start ------\n\n  function setFee(uint256 feeValue) public onlyOwner() {\n    fee = feeValue;\n  }\n\n  function setRealitioERC20(address addr) public onlyOwner() {\n    realitioAddress = addr;\n  }\n\n  function setRealitioTimeout(uint256 timeout) public onlyOwner() {\n    realitioTimeout = timeout;\n  }\n\n  // ------ Governance Functions End ------\n\n  // ------ Getters ------\n\n  function getUserMarketShares(uint256 marketId, address participant)\n    public\n    view\n    returns (\n      uint256,\n      uint256,\n      uint256\n    )\n  {\n    Market storage market = markets[marketId];\n\n    return (\n      market.liquidityShares[participant],\n      market.outcomes[0].shares.holders[participant],\n      market.outcomes[1].shares.holders[participant]\n    );\n  }\n\n  function getUserClaimStatus(uint256 marketId, address participant)\n    public\n    view\n    returns (\n      bool,\n      bool,\n      bool,\n      bool,\n      uint256\n    )\n  {\n    Market storage market = markets[marketId];\n\n    // market still not resolved\n    if (market.state != MarketState.resolved) {\n      return (false, false, false, false, getUserClaimableFees(marketId, participant));\n    }\n\n    MarketOutcome storage outcome = market.outcomes[market.resolution.outcomeId];\n\n    return (\n      outcome.shares.holders[participant] > 0,\n      outcome.shares.claims[participant],\n      market.liquidityShares[participant] > 0,\n      market.liquidityClaims[participant],\n      getUserClaimableFees(marketId, participant)\n    );\n  }\n\n  // @return % of liquidity pool stake\n  function getUserLiquidityPoolShare(uint256 marketId, address participant) public view returns (uint256) {\n    Market storage market = markets[marketId];\n\n    return market.liquidityShares[participant].mul(ONE).div(market.liquidity);\n  }\n\n  function getUserClaimableFees(uint256 marketId, address participant) public view returns (uint256) {\n    Market storage market = markets[marketId];\n\n    uint256 rawAmount = market.fees.poolWeight.mul(market.liquidityShares[participant]).div(market.liquidity);\n    return rawAmount.sub(market.fees.claimed[participant]);\n  }\n\n  /// Allow retrieving the the array of created contracts\n  /// @return An array of all created Market contracts\n  function getMarkets() public view returns (uint256[] memory) {\n    return marketIds;\n  }\n\n  function getMarketData(uint256 marketId)\n    public\n    view\n    returns (\n      string memory,\n      MarketState,\n      uint256,\n      uint256,\n      uint256,\n      uint256,\n      int256\n    )\n  {\n    Market storage market = markets[marketId];\n\n    return (\n      market.name,\n      market.state,\n      market.closedDateTime,\n      market.liquidity,\n      market.balance,\n      market.sharesAvailable,\n      getMarketResolvedOutcome(marketId)\n    );\n  }\n\n  function getMarketAltData(uint256 marketId)\n    public\n    view\n    returns (\n      uint256,\n      bytes32,\n      uint256\n    )\n  {\n    Market storage market = markets[marketId];\n\n    return (market.fees.value, market.resolution.questionId, uint256(market.resolution.questionId));\n  }\n\n  function getMarketQuestion(uint256 marketId) public view returns (bytes32) {\n    Market storage market = markets[marketId];\n\n    return (market.resolution.questionId);\n  }\n\n  function getMarketPrices(uint256 marketId)\n    public\n    view\n    returns (\n      uint256,\n      uint256,\n      uint256\n    )\n  {\n    return (getMarketLiquidityPrice(marketId), getMarketOutcomePrice(marketId, 0), getMarketOutcomePrice(marketId, 1));\n  }\n\n  function getMarketLiquidityPrice(uint256 marketId) public view returns (uint256) {\n    Market storage market = markets[marketId];\n\n    if (market.state == MarketState.resolved) {\n      // resolved market, price is either 0 or 1\n      // final liquidity price = outcome shares / liquidity shares\n      return market.outcomes[market.resolution.outcomeId].shares.available.mul(ONE).div(market.liquidity);\n    }\n\n    // liquidity price = # liquidity shares / # outcome shares * # outcomes\n    return market.liquidity.mul(ONE * market.outcomeIds.length).div(market.sharesAvailable);\n  }\n\n  function getMarketResolvedOutcome(uint256 marketId) public view returns (int256) {\n    Market storage market = markets[marketId];\n\n    // returning -1 if market still not resolved\n    if (market.state != MarketState.resolved) {\n      return -1;\n    }\n\n    return int256(market.resolution.outcomeId);\n  }\n\n  // ------ Outcome Getters ------\n\n  function getMarketOutcomeIds(uint256 marketId) public view returns (uint256[] memory) {\n    Market storage market = markets[marketId];\n    return market.outcomeIds;\n  }\n\n  function getMarketOutcomePrice(uint256 marketId, uint256 marketOutcomeId) public view returns (uint256) {\n    Market storage market = markets[marketId];\n    MarketOutcome storage outcome = market.outcomes[marketOutcomeId];\n\n    if (market.state == MarketState.resolved) {\n      // resolved market, price is either 0 or 1\n      return marketOutcomeId == market.resolution.outcomeId ? ONE : 0;\n    }\n\n    require(\n      outcome.shares.total >= outcome.shares.available,\n      \"Total shares has to be equal or higher than available shares\"\n    );\n    require(\n      market.sharesAvailable >= outcome.shares.available,\n      \"Total # available shares has to be equal or higher than outcome available shares\"\n    );\n\n    uint256 holders = market.sharesAvailable.sub(outcome.shares.available);\n\n    return holders.mul(ONE).div(market.sharesAvailable);\n  }\n\n  function getMarketOutcomeData(uint256 marketId, uint256 marketOutcomeId)\n    public\n    view\n    returns (\n      string memory,\n      uint256,\n      uint256,\n      uint256\n    )\n  {\n    Market storage market = markets[marketId];\n    MarketOutcome storage outcome = market.outcomes[marketOutcomeId];\n\n    return (\n      outcome.name,\n      getMarketOutcomePrice(marketId, marketOutcomeId),\n      outcome.shares.available,\n      outcome.shares.total\n    );\n  }\n}\n",
  "sourcePath": "/Users/ricardomarques/dev/workspace/polkamarkets/bepro-js/contracts/PredictionMarket.sol",
  "compiler": {
    "name": "solc",
    "version": "0.6.2+commit.bacdbe57.Emscripten.clang"
  },
  "schemaVersion": "3.3.4",
  "updatedAt": "2021-08-24T20:49:49.499Z",
  "devdoc": {
    "methods": {
      "createMarket(string,uint256,address,uint256)": {
        "details": "The new Market contract is then saved in the array of this contract for future reference.",
        "params": {
          "closesAt": "- Timestamp of market expiration",
          "oracle": "- Artbitrator address",
          "outcomes": "- Number of outcomes",
          "question": "- Market details: https://reality.eth.link/app/docs/html/contracts.html#how-questions-are-structured"
        }
      },
      "owner()": {
        "details": "Returns the address of the current owner."
      },
      "renounceOwnership()": {
        "details": "Leaves the contract without owner. It will not be possible to call `onlyOwner` functions anymore. Can only be called by the current owner.     * NOTE: Renouncing ownership will leave the contract without an owner, thereby removing any functionality that is only available to the owner."
      },
      "resolveMarketOutcome(uint256)": {
        "details": "Only allowed by oracle",
        "returns": {
          "_0": "Id of the outcome"
        }
      },
      "transferOwnership(address)": {
        "details": "Transfers ownership of the contract to a new account (`newOwner`). Can only be called by the current owner."
      }
    },
    "title": "Market Contract Factory"
  },
  "userdoc": {
    "methods": {
      "claimLiquidity(uint256)": {
        "notice": "Allowing liquidity providers to claim earnings from liquidity providing."
      },
      "claimWinnings(uint256)": {
        "notice": "Allowing holders of resolved outcome shares to claim earnings."
      },
      "createMarket(string,uint256,address,uint256)": {
        "notice": "Create a new Market contract"
      },
      "getMarkets()": {
        "notice": "Allow retrieving the the array of created contracts"
      },
      "resolveMarketOutcome(uint256)": {
        "notice": "Determine the result of the market"
      },
      "sell(uint256,uint256,uint256)": {
        "notice": "Sell shares of a market outcome"
      }
    }
  }
}