{
  "contractName": "PredictionMarket",
  "abi": [
    {
      "anonymous": false,
      "inputs": [
        {
          "indexed": true,
          "internalType": "address",
          "name": "user",
          "type": "address"
        },
        {
          "indexed": true,
          "internalType": "enum PredictionMarket.MarketAction",
          "name": "action",
          "type": "uint8"
        },
        {
          "indexed": true,
          "internalType": "uint256",
          "name": "marketId",
          "type": "uint256"
        },
        {
          "indexed": false,
          "internalType": "uint256",
          "name": "outcomeId",
          "type": "uint256"
        },
        {
          "indexed": false,
          "internalType": "uint256",
          "name": "shares",
          "type": "uint256"
        },
        {
          "indexed": false,
          "internalType": "uint256",
          "name": "value",
          "type": "uint256"
        },
        {
          "indexed": false,
          "internalType": "uint256",
          "name": "timestamp",
          "type": "uint256"
        }
      ],
      "name": "MarketActionTx",
      "type": "event"
    },
    {
      "anonymous": false,
      "inputs": [
        {
          "indexed": true,
          "internalType": "address",
          "name": "user",
          "type": "address"
        },
        {
          "indexed": true,
          "internalType": "uint256",
          "name": "marketId",
          "type": "uint256"
        },
        {
          "indexed": false,
          "internalType": "uint256",
          "name": "outcomes",
          "type": "uint256"
        },
        {
          "indexed": false,
          "internalType": "string",
          "name": "question",
          "type": "string"
        },
        {
          "indexed": false,
          "internalType": "string",
          "name": "image",
          "type": "string"
        }
      ],
      "name": "MarketCreated",
      "type": "event"
    },
    {
      "anonymous": false,
      "inputs": [
        {
          "indexed": true,
          "internalType": "uint256",
          "name": "marketId",
          "type": "uint256"
        },
        {
          "indexed": false,
          "internalType": "uint256",
          "name": "value",
          "type": "uint256"
        },
        {
          "indexed": false,
          "internalType": "uint256",
          "name": "price",
          "type": "uint256"
        },
        {
          "indexed": false,
          "internalType": "uint256",
          "name": "timestamp",
          "type": "uint256"
        }
      ],
      "name": "MarketLiquidity",
      "type": "event"
    },
    {
      "anonymous": false,
      "inputs": [
        {
          "indexed": true,
          "internalType": "uint256",
          "name": "marketId",
          "type": "uint256"
        },
        {
          "indexed": true,
          "internalType": "uint256",
          "name": "outcomeId",
          "type": "uint256"
        },
        {
          "indexed": false,
          "internalType": "uint256",
          "name": "value",
          "type": "uint256"
        },
        {
          "indexed": false,
          "internalType": "uint256",
          "name": "timestamp",
          "type": "uint256"
        }
      ],
      "name": "MarketOutcomePrice",
      "type": "event"
    },
    {
      "anonymous": false,
      "inputs": [
        {
          "indexed": true,
          "internalType": "address",
          "name": "user",
          "type": "address"
        },
        {
          "indexed": true,
          "internalType": "uint256",
          "name": "marketId",
          "type": "uint256"
        },
        {
          "indexed": false,
          "internalType": "uint256",
          "name": "outcomeId",
          "type": "uint256"
        },
        {
          "indexed": false,
          "internalType": "uint256",
          "name": "timestamp",
          "type": "uint256"
        }
      ],
      "name": "MarketResolved",
      "type": "event"
    },
    {
      "anonymous": false,
      "inputs": [
        {
          "indexed": true,
          "internalType": "address",
          "name": "previousOwner",
          "type": "address"
        },
        {
          "indexed": true,
          "internalType": "address",
          "name": "newOwner",
          "type": "address"
        }
      ],
      "name": "OwnershipTransferred",
      "type": "event"
    },
    {
      "inputs": [],
      "name": "MAX_UINT_256",
      "outputs": [
        {
          "internalType": "uint256",
          "name": "",
          "type": "uint256"
        }
      ],
      "stateMutability": "view",
      "type": "function"
    },
    {
      "inputs": [],
      "name": "ONE",
      "outputs": [
        {
          "internalType": "uint256",
          "name": "",
          "type": "uint256"
        }
      ],
      "stateMutability": "view",
      "type": "function"
    },
    {
      "inputs": [],
      "name": "fee",
      "outputs": [
        {
          "internalType": "uint256",
          "name": "",
          "type": "uint256"
        }
      ],
      "stateMutability": "view",
      "type": "function"
    },
    {
      "inputs": [],
      "name": "marketIndex",
      "outputs": [
        {
          "internalType": "uint256",
          "name": "",
          "type": "uint256"
        }
      ],
      "stateMutability": "view",
      "type": "function"
    },
    {
      "inputs": [],
      "name": "owner",
      "outputs": [
        {
          "internalType": "address",
          "name": "",
          "type": "address"
        }
      ],
      "stateMutability": "view",
      "type": "function"
    },
    {
      "inputs": [],
      "name": "realitioAddress",
      "outputs": [
        {
          "internalType": "address",
          "name": "",
          "type": "address"
        }
      ],
      "stateMutability": "view",
      "type": "function"
    },
    {
      "inputs": [],
      "name": "realitioTimeout",
      "outputs": [
        {
          "internalType": "uint256",
          "name": "",
          "type": "uint256"
        }
      ],
      "stateMutability": "view",
      "type": "function"
    },
    {
      "inputs": [],
      "name": "renounceOwnership",
      "outputs": [],
      "stateMutability": "nonpayable",
      "type": "function"
    },
    {
      "inputs": [],
      "name": "requiredBalance",
      "outputs": [
        {
          "internalType": "uint256",
          "name": "",
          "type": "uint256"
        }
      ],
      "stateMutability": "view",
      "type": "function"
    },
    {
      "inputs": [],
      "name": "token",
      "outputs": [
        {
          "internalType": "contract IERC20",
          "name": "",
          "type": "address"
        }
      ],
      "stateMutability": "view",
      "type": "function"
    },
    {
      "inputs": [
        {
          "internalType": "address",
          "name": "newOwner",
          "type": "address"
        }
      ],
      "name": "transferOwnership",
      "outputs": [],
      "stateMutability": "nonpayable",
      "type": "function"
    },
    {
      "inputs": [
        {
          "internalType": "string",
          "name": "question",
          "type": "string"
        },
        {
          "internalType": "string",
          "name": "image",
          "type": "string"
        },
        {
          "internalType": "uint256",
          "name": "closesAt",
          "type": "uint256"
        },
        {
          "internalType": "address",
          "name": "arbitrator",
          "type": "address"
        },
        {
          "internalType": "uint256",
          "name": "outcomes",
          "type": "uint256"
        }
      ],
      "name": "createMarket",
      "outputs": [
        {
          "internalType": "uint256",
          "name": "",
          "type": "uint256"
        }
      ],
      "stateMutability": "payable",
      "type": "function"
    },
    {
      "inputs": [
        {
          "internalType": "uint256",
          "name": "amount",
          "type": "uint256"
        },
        {
          "internalType": "uint256",
          "name": "marketId",
          "type": "uint256"
        },
        {
          "internalType": "uint256",
          "name": "outcomeId",
          "type": "uint256"
        }
      ],
      "name": "calcBuyAmount",
      "outputs": [
        {
          "internalType": "uint256",
          "name": "",
          "type": "uint256"
        }
      ],
      "stateMutability": "view",
      "type": "function"
    },
    {
      "inputs": [
        {
          "internalType": "uint256",
          "name": "amount",
          "type": "uint256"
        },
        {
          "internalType": "uint256",
          "name": "marketId",
          "type": "uint256"
        },
        {
          "internalType": "uint256",
          "name": "outcomeId",
          "type": "uint256"
        }
      ],
      "name": "calcSellAmount",
      "outputs": [
        {
          "internalType": "uint256",
          "name": "outcomeTokenSellAmount",
          "type": "uint256"
        }
      ],
      "stateMutability": "view",
      "type": "function"
    },
    {
      "inputs": [
        {
          "internalType": "uint256",
          "name": "marketId",
          "type": "uint256"
        },
        {
          "internalType": "uint256",
          "name": "outcomeId",
          "type": "uint256"
        },
        {
          "internalType": "uint256",
          "name": "minOutcomeSharesToBuy",
          "type": "uint256"
        }
      ],
      "name": "buy",
      "outputs": [],
      "stateMutability": "payable",
      "type": "function"
    },
    {
      "inputs": [
        {
          "internalType": "uint256",
          "name": "marketId",
          "type": "uint256"
        },
        {
          "internalType": "uint256",
          "name": "outcomeId",
          "type": "uint256"
        },
        {
          "internalType": "uint256",
          "name": "value",
          "type": "uint256"
        },
        {
          "internalType": "uint256",
          "name": "maxOutcomeSharesToSell",
          "type": "uint256"
        }
      ],
      "name": "sell",
      "outputs": [],
      "stateMutability": "payable",
      "type": "function"
    },
    {
      "inputs": [
        {
          "internalType": "uint256",
          "name": "marketId",
          "type": "uint256"
        }
      ],
      "name": "addLiquidity",
      "outputs": [],
      "stateMutability": "payable",
      "type": "function"
    },
    {
      "inputs": [
        {
          "internalType": "uint256",
          "name": "marketId",
          "type": "uint256"
        },
        {
          "internalType": "uint256",
          "name": "shares",
          "type": "uint256"
        }
      ],
      "name": "removeLiquidity",
      "outputs": [],
      "stateMutability": "payable",
      "type": "function"
    },
    {
      "inputs": [
        {
          "internalType": "uint256",
          "name": "marketId",
          "type": "uint256"
        }
      ],
      "name": "resolveMarketOutcome",
      "outputs": [
        {
          "internalType": "uint256",
          "name": "",
          "type": "uint256"
        }
      ],
      "stateMutability": "nonpayable",
      "type": "function"
    },
    {
      "inputs": [
        {
          "internalType": "uint256",
          "name": "marketId",
          "type": "uint256"
        }
      ],
      "name": "claimWinnings",
      "outputs": [],
      "stateMutability": "nonpayable",
      "type": "function"
    },
    {
      "inputs": [
        {
          "internalType": "uint256",
          "name": "marketId",
          "type": "uint256"
        }
      ],
      "name": "claimLiquidity",
      "outputs": [],
      "stateMutability": "nonpayable",
      "type": "function"
    },
    {
      "inputs": [
        {
          "internalType": "uint256",
          "name": "marketId",
          "type": "uint256"
        }
      ],
      "name": "claimFees",
      "outputs": [],
      "stateMutability": "payable",
      "type": "function"
    },
    {
      "inputs": [
        {
          "internalType": "uint256",
          "name": "_fee",
          "type": "uint256"
        }
      ],
      "name": "setFee",
      "outputs": [],
      "stateMutability": "nonpayable",
      "type": "function"
    },
    {
      "inputs": [
        {
          "internalType": "address",
          "name": "_address",
          "type": "address"
        }
      ],
      "name": "setRealitioERC20",
      "outputs": [],
      "stateMutability": "nonpayable",
      "type": "function"
    },
    {
      "inputs": [
        {
          "internalType": "uint256",
          "name": "timeout",
          "type": "uint256"
        }
      ],
      "name": "setRealitioTimeout",
      "outputs": [],
      "stateMutability": "nonpayable",
      "type": "function"
    },
    {
      "inputs": [
        {
          "internalType": "contract IERC20",
          "name": "_token",
          "type": "address"
        }
      ],
      "name": "setToken",
      "outputs": [],
      "stateMutability": "nonpayable",
      "type": "function"
    },
    {
      "inputs": [
        {
          "internalType": "uint256",
          "name": "_requiredBalance",
          "type": "uint256"
        }
      ],
      "name": "setRequiredBalance",
      "outputs": [],
      "stateMutability": "nonpayable",
      "type": "function"
    },
    {
      "inputs": [
        {
          "internalType": "uint256",
          "name": "marketId",
          "type": "uint256"
        },
        {
          "internalType": "address",
          "name": "user",
          "type": "address"
        }
      ],
      "name": "getUserMarketShares",
      "outputs": [
        {
          "internalType": "uint256",
          "name": "",
          "type": "uint256"
        },
        {
          "internalType": "uint256",
          "name": "",
          "type": "uint256"
        },
        {
          "internalType": "uint256",
          "name": "",
          "type": "uint256"
        }
      ],
      "stateMutability": "view",
      "type": "function"
    },
    {
      "inputs": [
        {
          "internalType": "uint256",
          "name": "marketId",
          "type": "uint256"
        },
        {
          "internalType": "address",
          "name": "user",
          "type": "address"
        }
      ],
      "name": "getUserClaimStatus",
      "outputs": [
        {
          "internalType": "bool",
          "name": "",
          "type": "bool"
        },
        {
          "internalType": "bool",
          "name": "",
          "type": "bool"
        },
        {
          "internalType": "bool",
          "name": "",
          "type": "bool"
        },
        {
          "internalType": "bool",
          "name": "",
          "type": "bool"
        },
        {
          "internalType": "uint256",
          "name": "",
          "type": "uint256"
        }
      ],
      "stateMutability": "view",
      "type": "function"
    },
    {
      "inputs": [
        {
          "internalType": "uint256",
          "name": "marketId",
          "type": "uint256"
        },
        {
          "internalType": "address",
          "name": "user",
          "type": "address"
        }
      ],
      "name": "getUserLiquidityPoolShare",
      "outputs": [
        {
          "internalType": "uint256",
          "name": "",
          "type": "uint256"
        }
      ],
      "stateMutability": "view",
      "type": "function"
    },
    {
      "inputs": [
        {
          "internalType": "uint256",
          "name": "marketId",
          "type": "uint256"
        },
        {
          "internalType": "address",
          "name": "user",
          "type": "address"
        }
      ],
      "name": "getUserClaimableFees",
      "outputs": [
        {
          "internalType": "uint256",
          "name": "",
          "type": "uint256"
        }
      ],
      "stateMutability": "view",
      "type": "function"
    },
    {
      "inputs": [],
      "name": "getMarkets",
      "outputs": [
        {
          "internalType": "uint256[]",
          "name": "",
          "type": "uint256[]"
        }
      ],
      "stateMutability": "view",
      "type": "function"
    },
    {
      "inputs": [
        {
          "internalType": "uint256",
          "name": "marketId",
          "type": "uint256"
        }
      ],
      "name": "getMarketData",
      "outputs": [
        {
          "internalType": "enum PredictionMarket.MarketState",
          "name": "",
          "type": "uint8"
        },
        {
          "internalType": "uint256",
          "name": "",
          "type": "uint256"
        },
        {
          "internalType": "uint256",
          "name": "",
          "type": "uint256"
        },
        {
          "internalType": "uint256",
          "name": "",
          "type": "uint256"
        },
        {
          "internalType": "uint256",
          "name": "",
          "type": "uint256"
        },
        {
          "internalType": "int256",
          "name": "",
          "type": "int256"
        }
      ],
      "stateMutability": "view",
      "type": "function"
    },
    {
      "inputs": [
        {
          "internalType": "uint256",
          "name": "marketId",
          "type": "uint256"
        }
      ],
      "name": "getMarketAltData",
      "outputs": [
        {
          "internalType": "uint256",
          "name": "",
          "type": "uint256"
        },
        {
          "internalType": "bytes32",
          "name": "",
          "type": "bytes32"
        },
        {
          "internalType": "uint256",
          "name": "",
          "type": "uint256"
        }
      ],
      "stateMutability": "view",
      "type": "function"
    },
    {
      "inputs": [
        {
          "internalType": "uint256",
          "name": "marketId",
          "type": "uint256"
        }
      ],
      "name": "getMarketQuestion",
      "outputs": [
        {
          "internalType": "bytes32",
          "name": "",
          "type": "bytes32"
        }
      ],
      "stateMutability": "view",
      "type": "function"
    },
    {
      "inputs": [
        {
          "internalType": "uint256",
          "name": "marketId",
          "type": "uint256"
        }
      ],
      "name": "getMarketPrices",
      "outputs": [
        {
          "internalType": "uint256",
          "name": "",
          "type": "uint256"
        },
        {
          "internalType": "uint256",
          "name": "",
          "type": "uint256"
        },
        {
          "internalType": "uint256",
          "name": "",
          "type": "uint256"
        }
      ],
      "stateMutability": "view",
      "type": "function"
    },
    {
      "inputs": [
        {
          "internalType": "uint256",
          "name": "marketId",
          "type": "uint256"
        }
      ],
      "name": "getMarketLiquidityPrice",
      "outputs": [
        {
          "internalType": "uint256",
          "name": "",
          "type": "uint256"
        }
      ],
      "stateMutability": "view",
      "type": "function"
    },
    {
      "inputs": [
        {
          "internalType": "uint256",
          "name": "marketId",
          "type": "uint256"
        }
      ],
      "name": "getMarketResolvedOutcome",
      "outputs": [
        {
          "internalType": "int256",
          "name": "",
          "type": "int256"
        }
      ],
      "stateMutability": "view",
      "type": "function"
    },
    {
      "inputs": [
        {
          "internalType": "uint256",
          "name": "marketId",
          "type": "uint256"
        }
      ],
      "name": "getMarketOutcomeIds",
      "outputs": [
        {
          "internalType": "uint256[]",
          "name": "",
          "type": "uint256[]"
        }
      ],
      "stateMutability": "view",
      "type": "function"
    },
    {
      "inputs": [
        {
          "internalType": "uint256",
          "name": "marketId",
          "type": "uint256"
        },
        {
          "internalType": "uint256",
          "name": "outcomeId",
          "type": "uint256"
        }
      ],
      "name": "getMarketOutcomePrice",
      "outputs": [
        {
          "internalType": "uint256",
          "name": "",
          "type": "uint256"
        }
      ],
      "stateMutability": "view",
      "type": "function"
    },
    {
      "inputs": [
        {
          "internalType": "uint256",
          "name": "marketId",
          "type": "uint256"
        },
        {
          "internalType": "uint256",
          "name": "outcomeId",
          "type": "uint256"
        }
      ],
      "name": "getMarketOutcomeData",
      "outputs": [
        {
          "internalType": "uint256",
          "name": "",
          "type": "uint256"
        },
        {
          "internalType": "uint256",
          "name": "",
          "type": "uint256"
        },
        {
          "internalType": "uint256",
          "name": "",
          "type": "uint256"
        }
      ],
      "stateMutability": "view",
      "type": "function"
    }
  ],
  "bytecode": "0x608060405234801561001057600080fd5b50613420806100206000396000f3fe6080604052600436106101d65760003560e01c806308560ace146101db578063144fa6d7146102065780631d7920aa1461022857806328747a80146102575780632c2aa24e1461027757806331877a38146102a85780633620875e146102d55780633d41a26b146102e85780633fe45e3b146102fd57806340993b2614610312578063429c9dff146103255780634397c4ce1461034557806351c6590a146103655780635e648eff14610378578063677bd9ff1461039857806369fe0e2d146103b85780636f6e9f1e146103d8578063715018a6146103f85780637b34e6e01461040d57806385b91d8e1461042f5780638c7adc151461044f5780638cd41552146104645780638da5cb5b146104845780639d7de6b314610499578063aa22a02e146104ac578063ac68a748146104cc578063b31eb895146104df578063bf455721146104ff578063bfacba3d1461051f578063c2ee3a0814610551578063c346a9d014610566578063c8f70d0114610586578063ddca3f43146105a6578063ec2c9016146105bb578063ede2e06e146105d0578063efbc47dc146105f0578063efce431314610603578063f2fde38b14610623578063fc0c546a14610643578063fdff808514610658578063ffce3d5e14610678575b600080fd5b3480156101e757600080fd5b506101f0610698565b6040516101fd9190612d10565b60405180910390f35b34801561021257600080fd5b50610226610221366004612aca565b61069e565b005b34801561023457600080fd5b50610248610243366004612b82565b610708565b6040516101fd93929190613319565b34801561026357600080fd5b506101f0610272366004612b82565b610727565b34801561028357600080fd5b50610297610292366004612b9a565b6108a2565b6040516101fd959493929190612ce9565b3480156102b457600080fd5b506102c86102c3366004612b82565b610972565b6040516101fd9190612ca5565b6102266102e3366004612c15565b6109db565b3480156102f457600080fd5b506101f0610bf6565b34801561030957600080fd5b506101f0610bfc565b610226610320366004612bea565b610c02565b34801561033157600080fd5b506101f0610340366004612bea565b610d90565b34801561035157600080fd5b506101f0610360366004612b82565b610ef0565b610226610373366004612b82565b610f05565b34801561038457600080fd5b50610226610393366004612b82565b610f8d565b3480156103a457600080fd5b506102266103b3366004612b82565b61114f565b3480156103c457600080fd5b506102266103d3366004612b82565b6112a7565b3480156103e457600080fd5b506102266103f3366004612b82565b6112eb565b34801561040457600080fd5b5061022661132f565b34801561041957600080fd5b506104226113a6565b6040516101fd9190612c91565b34801561043b57600080fd5b5061024861044a366004612b82565b6113b5565b34801561045b57600080fd5b506101f06113e6565b34801561047057600080fd5b506101f061047f366004612bc9565b6113ec565b34801561049057600080fd5b5061042261148e565b6102266104a7366004612bc9565b61149d565b3480156104b857600080fd5b506101f06104c7366004612b9a565b611866565b6102266104da366004612b82565b6118b9565b3480156104eb57600080fd5b506102486104fa366004612b9a565b611982565b34801561050b57600080fd5b506101f061051a366004612b82565b6119e0565b34801561052b57600080fd5b5061053f61053a366004612b82565b611a1d565b6040516101fd96959493929190612d19565b34801561055d57600080fd5b506101f0611a76565b34801561057257600080fd5b506101f0610581366004612bea565b611a82565b34801561059257600080fd5b506101f06105a1366004612b82565b611bb2565b3480156105b257600080fd5b506101f0611c53565b3480156105c757600080fd5b506102c8611c59565b3480156105dc57600080fd5b506102266105eb366004612b82565b611cb1565b6101f06105fe366004612afe565b611cf5565b34801561060f57600080fd5b5061024861061e366004612bc9565b611fa1565b34801561062f57600080fd5b5061022661063e366004612aca565b611fe5565b34801561064f57600080fd5b50610422612094565b34801561066457600080fd5b506101f0610673366004612b9a565b6120a3565b34801561068457600080fd5b50610226610693366004612aca565b61211c565b606c5481565b6106a661217d565b6001600160a01b03166106b761148e565b6001600160a01b0316146106e65760405162461bcd60e51b81526004016106dd906130d9565b60405180910390fd5b606b80546001600160a01b0319166001600160a01b0392909216919091179055565b6000908152606660205260409020600a81015460099091015490918190565b600081815260666020526040812054829042118015610763575060008181526066602052604081206006015460ff16600281111561076157fe5b145b156107715761077181612181565b8260018060008381526066602052604090206006015460ff16600281111561079557fe5b1461079f57600080fd5b6000858152606660205260408082206069546009820154925163684e62bf60e11b8152899492936001600160a01b039092169291839163d09cc57e916107e791600401612d10565b60206040518083038186803b1580156107ff57600080fd5b505afa158015610813573d6000803e3d6000fd5b505050506040513d601f19601f820116820180604052506108379190810190612ae6565b60088401819055604051909150899033907f67a6457c8912ae1b7a9fbdfa311cbd016ba606b548bf06bc80bc751072d91bbc906108779085904290613364565b60405180910390a3610888896121d1565b505060080154945061089981612181565b50505050919050565b600082815260666020526040812081908190819081906002600682015460ff1660028111156108cd57fe5b146108f2576000806000806108e28c8c6120a3565b9550955095509550955050610968565b60088101546000908152600e8201602090815260408083206001600160a01b038b16845260048082018452828520546005808401865284872054928801865284872054908801909552929094205490939115159260ff92831692901515911661095b8d8d6120a3565b9650965096509650965050505b9295509295909350565b600081815260666020908152604091829020600d8101805484518185028101850190955280855260609492938301828280156109cd57602002820191906000526020600020905b8154815260200190600101908083116109b9575b50505050509150505b919050565b600084815260666020526040902054849042118015610a17575060008181526066602052604081206006015460ff166002811115610a1557fe5b145b15610a2557610a2581612181565b8460008060008381526066602052604090206006015460ff166002811115610a4957fe5b14610a5357600080fd5b6000878152606660209081526040808320898452600e810190925282209091610a7d888b8b611a82565b905086811115610a9f5760405162461bcd60e51b81526004016106dd906132e3565b336000908152600483016020526040902054811115610ad05760405162461bcd60e51b81526004016106dd90613225565b610adc338b8b84612274565b6000610afb606854670de0b6b3a764000061231390919063ffffffff16565b600a850154610b11908b9063ffffffff61233b16565b81610b1857fe5b600b8601549190049150610b32908263ffffffff61237516565b600b8501556000610b498a8363ffffffff61237516565b90508085600101541015610b6f5760405162461bcd60e51b81526004016106dd906131e2565b610b798c8261239a565b60405133908b156108fc02908c906000818181858888f19350505050158015610ba6573d6000803e3d6000fd5b508b6001336001600160a01b031660008051602061338b8339815191528e878f42604051610bd79493929190612d50565b60405180910390a4610be88c6121d1565b505050505050505050505050565b60001981565b606a5481565b600083815260666020526040902054839042118015610c3e575060008181526066602052604081206006015460ff166002811115610c3c57fe5b145b15610c4c57610c4c81612181565b8360008060008381526066602052604090206006015460ff166002811115610c7057fe5b14610c7a57600080fd5b6000868152606660205260408120903490610c96828a8a610d90565b905086811015610cb85760405162461bcd60e51b81526004016106dd906132ac565b600a830154600090670de0b6b3a764000090610cdb90859063ffffffff61233b16565b81610ce257fe5b600b8601549190049150610cfc908263ffffffff61237516565b600b8501556000610d13848363ffffffff61231316565b60008b8152600e870160205260409020909150610d308c8361243d565b6003810154841115610d545760405162461bcd60e51b81526004016106dd90613266565b610d60338d8d876124d6565b8b6000336001600160a01b031660008051602061338b8339815191528e888a42604051610bd79493929190612d50565b60008281526066602052604081206060610da985612565565b90506000610de9670de0b6b3a7640000610dd385600a01600001548a61233b90919063ffffffff16565b81610dda57fe5b8991900463ffffffff61231316565b90506000828681518110610df957fe5b602002602001015190506000610e20670de0b6b3a76400008361233b90919063ffffffff16565b905060005b8451811015610e8b57878114610e83576000858281518110610e4357fe5b60200260200101519050610e7f610e63868361237590919063ffffffff16565b610e73858463ffffffff61233b16565b9063ffffffff6125f816565b9250505b600101610e25565b5060008111610eac5760405162461bcd60e51b81526004016106dd90612dbb565b610ee3610ec782670de0b6b3a764000063ffffffff6125f816565b610ed7848663ffffffff61237516565b9063ffffffff61231316565b9998505050505050505050565b60009081526066602052604090206009015490565b600081815260666020526040902054819042118015610f41575060008181526066602052604081206006015460ff166002811115610f3f57fe5b145b15610f4f57610f4f81612181565b8160008060008381526066602052604090206006015460ff166002811115610f7357fe5b14610f7d57600080fd5b610f878434612628565b50505050565b8060028060008381526066602052604090206006015460ff166002811115610fb157fe5b14610fbb57600080fd5b600083815260666020908152604080832060088101548452600e8101909252909120610fe6856118b9565b3360009081526004830160205260409020546110145760405162461bcd60e51b81526004016106dd9061319f565b33600090815260058301602052604090205460ff16156110465760405162461bcd60e51b81526004016106dd90613158565b600061107e670de0b6b3a76400006110726110618933611866565b60038601549063ffffffff61233b16565b9063ffffffff61293c16565b905080836001015410156110a45760405162461bcd60e51b81526004016106dd90612f89565b60018301546110b9908263ffffffff61231316565b600184810191909155336000818152600580870160209081526040808420805460ff19169096179095556004880190528382205493518a9491939260008051602061338b833981519152926111119288904290612d50565b60405180910390a4604051339082156108fc029083906000818181858888f19350505050158015611146573d6000803e3d6000fd5b50505050505050565b8060028060008381526066602052604090206006015460ff16600281111561117357fe5b1461117d57600080fd5b600083815260666020908152604080832060088101548452600e81018352818420338552600481019093529220546111c75760405162461bcd60e51b81526004016106dd90612e9a565b33600090815260058201602052604090205460ff16156111f95760405162461bcd60e51b81526004016106dd9061304a565b336000908152600482016020526040902054600183015481111561122f5760405162461bcd60e51b81526004016106dd90612f89565b6001830154611244908263ffffffff61231316565b6001808501919091553360009081526005840160205260409020805460ff19169091179055856004600885015433600081815260048701602052604090819020549051919260008051602061338b83398151915292611111929088904290612d50565b6112af61217d565b6001600160a01b03166112c061148e565b6001600160a01b0316146112e65760405162461bcd60e51b81526004016106dd906130d9565b606855565b6112f361217d565b6001600160a01b031661130461148e565b6001600160a01b03161461132a5760405162461bcd60e51b81526004016106dd906130d9565b606c55565b61133761217d565b6001600160a01b031661134861148e565b6001600160a01b03161461136e5760405162461bcd60e51b81526004016106dd906130d9565b6033546040516000916001600160a01b0316906000805160206133cb833981519152908390a3603380546001600160a01b0319169055565b6069546001600160a01b031681565b60008060006113c384611bb2565b6113ce8560006113ec565b6113d98660016113ec565b9250925092509193909250565b60675481565b6000828152606660209081526040808320848452600e810190925282206002600683015460ff16600281111561141e57fe5b14156114495760088201548414611436576000611440565b670de0b6b3a76400005b92505050611488565b60038083015490820154611483919061107290670de0b6b3a76400009061147790849063ffffffff61231316565b9063ffffffff61233b16565b925050505b92915050565b6033546001600160a01b031690565b6000828152606660205260409020548290421180156114d9575060008181526066602052604081206006015460ff1660028111156114d757fe5b145b156114e7576114e781612181565b8260008060008381526066602052604090206006015460ff16600281111561150b57fe5b1461151557600080fd5b600085815260666020908152604080832033845260048101909252909120548511156115535760405162461bcd60e51b81526004016106dd90613225565b61155c866118b9565b6115688686600361295d565b50606061157487612565565b9050606081516040519080825280602002602001820160405280156115a3578160200160208202803883390190505b50905060001960005b83518110156115e25760008482815181106115c357fe5b60200260200101519050808311156115d9578092505b506001016115ac565b5060028401546000906115ff906110728b8563ffffffff61233b16565b905060005b845181101561169d5785600201546116388b87848151811061162257fe5b602002602001015161233b90919063ffffffff16565b8161163f57fe5b0484828151811061164c57fe5b60200260200101818152505061167e8285838151811061166857fe5b602002602001015161231390919063ffffffff16565b84828151811061168a57fe5b6020908102919091010152600101611604565b506116a88a8261239a565b60028501546116bd908a63ffffffff61231316565b60028601553360009081526004860160205260409020546116e4908a63ffffffff61231316565b3360009081526004870160205260408120919091555b84518110156117bc57600084828151811061171157fe5b602002602001015111156117b45761173e338c8387858151811061173157fe5b60200260200101516124d6565b8a6000336001600160a01b031660008051602061338b8339815191528488868151811061176757fe5b602002602001015161179a8c600301546110728d8a8151811061178657fe5b60200260200101518d8b8151811061162257fe5b426040516117ab9493929190612d50565b60405180910390a45b6001016116fa565b50604051339082156108fc029083906000818181858888f193505050501580156117ea573d6000803e3d6000fd5b50896003336001600160a01b031660008051602061338b83398151915260008d864260405161181c9493929190612d50565b60405180910390a4896000805160206133ab83398151915286600201546118428d611bb2565b4260405161185293929190613319565b60405180910390a250505050505050505050565b600082815260666020908152604080832060028101546001600160a01b0386168552600482019093529083205490916118b19161107290670de0b6b3a764000063ffffffff61233b16565b949350505050565b6000818152606660205260408120906118d283336120a3565b9050801561193e57336000908152600c830160205260409020546118fc908263ffffffff61237516565b336000818152600c85016020526040808220939093559151909183156108fc02918491818181858888f1935050505015801561193c573d6000803e3d6000fd5b505b82600633600081815260048601602052604080822054905160008051602061338b8339815191529261197592909188904290612d50565b60405180910390a4505050565b60008281526066602090815260408083206001600160a01b0385168085526004808301855283862054868052600e90930180865284872083885282018652848720546001885290865284872092875291019093529220549250925092565b60008181526066602052604081206002600682015460ff166002811115611a0357fe5b14611a13576000199150506109d6565b6008015492915050565b60008181526066602052604081206006810154815460028301546001840154600385015486958695869586958695939460ff909316939192909190611a618d6119e0565b949d939c50919a509850965090945092505050565b670de0b6b3a764000081565b60008281526066602052604081206060611a9b85612565565b600a830154909150600090611abf90670de0b6b3a76400009063ffffffff61231316565b611ad788670de0b6b3a764000063ffffffff61233b16565b81611ade57fe5b0490506000828681518110611aef57fe5b602002602001015190506000611b16670de0b6b3a76400008361233b90919063ffffffff16565b905060005b8451811015611b6557878114611b5d576000858281518110611b3957fe5b60200260200101519050611b59610e63868361231390919063ffffffff16565b9250505b600101611b1b565b5060008111611b865760405162461bcd60e51b81526004016106dd90612dbb565b610ee382610ed7611ba584670de0b6b3a764000063ffffffff6125f816565b869063ffffffff61237516565b60008181526066602052604081206002600682015460ff166002811115611bd557fe5b1415611c1e57600281015460088201546000908152600e83016020526040902060030154611c16919061107290670de0b6b3a764000063ffffffff61233b16565b9150506109d6565b6003810154600d8201546002830154611c4c92916110729190670de0b6b3a76400000263ffffffff61233b16565b9392505050565b60685481565b60606065805480602002602001604051908101604052809291908181526020018280548015611ca757602002820191906000526020600020905b815481526020019060010190808311611c93575b5050505050905090565b611cb961217d565b6001600160a01b0316611cca61148e565b6001600160a01b031614611cf05760405162461bcd60e51b81526004016106dd906130d9565b606a55565b606c54606b546040516370a0823160e01b8152600092916001600160a01b0316906370a0823190611d2a903390600401612c91565b60206040518083038186803b158015611d4257600080fd5b505afa158015611d56573d6000803e3d6000fd5b505050506040513d601f19601f82011682018060405250611d7a9190810190612ae6565b1015611d985760405162461bcd60e51b81526004016106dd90613000565b60675460658054600181019091557f8ff97419363ffd7000167f130ef7168fbea05faf9251824ca5043f113cc6a7c701819055600081815260666020526040902034611df65760405162461bcd60e51b81526004016106dd90612e36565b42861015611e165760405162461bcd60e51b81526004016106dd9061310e565b83600214611e365760405162461bcd60e51b81526004016106dd90612ee4565b85815560068101805460ff19169055606854600a820155600019600882015560005b84811015611e9a57600d820180546001818101835560009283526020808420909201849055838352600e85019091526040909120848155810182905501611e58565b50606954606a5460405163d4876b9f60e01b81526001600160a01b0390921691829163d4876b9f91611edc916002918e918c918e906000908190600401612d6b565b602060405180830381600087803b158015611ef657600080fd5b505af1158015611f0a573d6000803e3d6000fd5b505050506040513d601f19601f82011682018060405250611f2e9190810190612ae6565b6009830155611f3d8334612628565b611f46836121d1565b82336001600160a01b03167f928446b14f4c661d8499681f1d2eb118eb6e89066877a7d43e0672a27cc63a32878c8c604051611f849392919061332f565b60405180910390a350506067805460010190559695505050505050565b6000828152606660209081526040808320848452600e8101909252822082918291611fcc87876113ec565b6003820154600290920154909891975095509350505050565b611fed61217d565b6001600160a01b0316611ffe61148e565b6001600160a01b0316146120245760405162461bcd60e51b81526004016106dd906130d9565b6001600160a01b03811661204a5760405162461bcd60e51b81526004016106dd90612df0565b6033546040516001600160a01b038084169216906000805160206133cb83398151915290600090a3603380546001600160a01b0319166001600160a01b0392909216919091179055565b606b546001600160a01b031681565b600082815260666020908152604080832060028101546001600160a01b03861685526004820190935290832054600b820154919284926120ed92611072919063ffffffff61233b16565b6001600160a01b0385166000908152600c8401602052604090205490915061148390829063ffffffff61231316565b61212461217d565b6001600160a01b031661213561148e565b6001600160a01b03161461215b5760405162461bcd60e51b81526004016106dd906130d9565b606980546001600160a01b0319166001600160a01b0392909216919091179055565b3390565b6000818152606660205260409020600681015460ff1660028111156121a257fe5b60010160028111156121b057fe5b60068201805460ff191660018360028111156121c857fe5b02179055505050565b6000818152606660205260408120905b600d8201548110156122395780837f8270f0a0534b13b7f92d1dbd58aa75c5207b40c55fefa7a17110c6136ad7270b61221a86856113ec565b42604051612229929190613364565b60405180910390a36001016121e1565b50816000805160206133ab833981519152826002015461225885611bb2565b4260405161226893929190613319565b60405180910390a25050565b6000838152606660209081526040808320858452600e810183528184206001600160a01b0389168552600481019093529220546122b7908463ffffffff61231316565b6001600160a01b038716600090815260048301602052604090205560038101546122e7908463ffffffff61237516565b600380830191909155820154612303908463ffffffff61237516565b8260030181905550505050505050565b6000828211156123355760405162461bcd60e51b81526004016106dd90612f52565b50900390565b60008261234a57506000611488565b8282028284828161235757fe5b0414611c4c5760405162461bcd60e51b81526004016106dd90613098565b600082820183811015611c4c5760405162461bcd60e51b81526004016106dd90612e65565b6000828152606660205260408120905b600d82015481101561241d576000818152600e83016020526040902060038101546123db908563ffffffff61231316565b600382015560028101546123f5908563ffffffff61231316565b6002820155600383015461240f908563ffffffff61231316565b6003840155506001016123aa565b506001810154612433908363ffffffff61231316565b6001909101555050565b6000828152606660205260408120905b600d8201548110156124c0576000818152600e830160205260409020600381015461247e908563ffffffff61237516565b60038201556002810154612498908563ffffffff61237516565b600282015560038301546124b2908563ffffffff61237516565b60038401555060010161244d565b506001810154612433908363ffffffff61237516565b6000838152606660209081526040808320858452600e810183528184206001600160a01b038916855260048101909352922054612519908463ffffffff61237516565b6001600160a01b03871660009081526004830160205260409020556003810154612549908463ffffffff61231316565b600380830191909155820154612303908463ffffffff61231316565b600081815260666020908152604091829020600d810154835181815281840281019093019093526060929091839180156125a9578160200160208202803883390190505b50905060005b600d8301548110156125f0576000818152600e8401602052604090206003015482518390839081106125dd57fe5b60209081029190910101526001016125af565b509392505050565b600082156126175781600184038161260c57fe5b046001019050611488565b81838161262057fe5b049392505050565b600082815260666020526040902054829042118015612664575060008181526066602052604081206006015460ff16600281111561266257fe5b145b156126725761267281612181565b8260008060008381526066602052604090206006015460ff16600281111561269657fe5b146126a057600080fd5b6000858152606660205260409020846126cb5760405162461bcd60e51b81526004016106dd90612f1b565b600060606126d888612565565b905060608151604051908082528060200260200182016040528015612707578160200160208202803883390190505b506002850154909150600090156127f65760005b835181101561275157600084828151811061273257fe5b6020026020010151905080831015612748578092505b5060010161271b565b5060005b83518110156127c15760008261278786848151811061277057fe5b60200260200101518d61233b90919063ffffffff16565b8161278e57fe5b0490506127a18b8263ffffffff61231316565b8483815181106127ad57fe5b602090810291909101015250600101612755565b50806127da86600201548b61233b90919063ffffffff16565b816127e157fe5b0493506127f08a85600261295d565b506127fa565b8893505b600285015461280f908563ffffffff61237516565b6002860155336000908152600486016020526040902054612836908563ffffffff61237516565b3360009081526004870160205260409020556128528a8a61243d565b60005b825181101561290a57600083828151811061286c57fe5b602002602001015111156129025761288c338c8386858151811061173157fe5b8a6000336001600160a01b031660008051602061338b833981519152848786815181106128b557fe5b60200260200101516128e88c600301546110728c8a815181106128d457fe5b60200260200101518c8b8151811061162257fe5b426040516128f99493929190612d50565b60405180910390a45b600101612855565b50896002336001600160a01b031660008051602061338b8339815191526000888e4260405161181c9493929190612d50565b60008082116126175760405162461bcd60e51b81526004016106dd90612fcc565b60008381526066602052604081206002810154600b820154839161298c9161107290889063ffffffff61233b16565b9050600284600681111561299c57fe5b14156129f557600b8201546129b7908263ffffffff61237516565b600b830155336000908152600c830160205260409020546129de908263ffffffff61237516565b336000908152600c84016020526040902055612a44565b600b820154612a0a908263ffffffff61231316565b600b830155336000908152600c83016020526040902054612a31908263ffffffff61231316565b336000908152600c840160205260409020555b50509392505050565b600082601f830112612a5d578081fd5b81356001600160401b0380821115612a73578283fd5b604051601f8301601f191681016020018281118282101715612a93578485fd5b604052828152925082848301602001861015612aae57600080fd5b8260208601602083013760006020848301015250505092915050565b600060208284031215612adb578081fd5b8135611c4c81613372565b600060208284031215612af7578081fd5b5051919050565b600080600080600060a08688031215612b15578081fd5b85356001600160401b0380821115612b2b578283fd5b612b3789838a01612a4d565b96506020880135915080821115612b4c578283fd5b50612b5988828901612a4d565b945050604086013592506060860135612b7181613372565b949793965091946080013592915050565b600060208284031215612b93578081fd5b5035919050565b60008060408385031215612bac578182fd5b823591506020830135612bbe81613372565b809150509250929050565b60008060408385031215612bdb578182fd5b50508035926020909101359150565b600080600060608486031215612bfe578283fd5b505081359360208301359350604090920135919050565b60008060008060808587031215612c2a578384fd5b5050823594602084013594506040840135936060013592509050565b60008151808452815b81811015612c6b57602081850181015186830182015201612c4f565b81811115612c7c5782602083870101525b50601f01601f19169290920160200192915050565b6001600160a01b0391909116815260200190565b6020808252825182820181905260009190848201906040850190845b81811015612cdd57835183529284019291840191600101612cc1565b50909695505050505050565b94151585529215156020850152901515604084015215156060830152608082015260a00190565b90815260200190565b60c0810160038810612d2757fe5b968152602081019590955260408501939093526060840191909152608083015260a09091015290565b93845260208401929092526040830152606082015260800190565b600088825260e06020830152612d8460e0830189612c46565b6001600160a01b039790971660408301525063ffffffff948516606082015292909316608083015260a082015260c0015292915050565b6020808252601b908201527a6d7573742068617665206e6f6e2d7a65726f2062616c616e63657360281b604082015260600190565b60208082526026908201527f4f776e61626c653a206e6577206f776e657220697320746865207a65726f206160408201526564647265737360d01b606082015260800190565b60208082526015908201527407374616b65206e6565647320746f206265203e203605c1b604082015260600190565b6020808252601b908201527a536166654d6174683a206164646974696f6e206f766572666c6f7760281b604082015260600190565b6020808252602a908201527f7573657220646f6573206e6f7420686f6c64207265736f6c766564206f7574636040820152696f6d652073686172657360b01b606082015260800190565b6020808252601e908201527f6e756d626572206f66206f7574636f6d65732068617320746f20626520320000604082015260600190565b6020808252601f908201527f7374616b652068617320746f2062652067726561746572207468616e20302e00604082015260600190565b6020808252601e908201527f536166654d6174683a207375627472616374696f6e206f766572666c6f770000604082015260600190565b60208082526023908201527f4d61726b657420646f6573206e6f74206861766520656e6f7567682062616c616040820152626e636560e81b606082015260800190565b6020808252601a9082015279536166654d6174683a206469766973696f6e206279207a65726f60301b604082015260600190565b6020808252602a908201527f6d73672e73656e646572206d75737420686f6c64206d696e696d756d2065726360408201526932302062616c616e636560b01b606082015260800190565b6020808252602e908201527f7573657220616c726561647920636c61696d6564207265736f6c766564206f7560408201526d74636f6d652077696e6e696e677360901b606082015260800190565b60208082526021908201527f536166654d6174683a206d756c7469706c69636174696f6e206f766572666c6f6040820152607760f81b606082015260800190565b6020808252818101527f4f776e61626c653a2063616c6c6572206973206e6f7420746865206f776e6572604082015260600190565b6020808252602a908201527f6d61726b6574206d757374207265736f6c7665206166746572207468652063756040820152697272656e74206461746560b01b606082015260800190565b60208082526027908201527f7573657220616c726561647920636c61696d6564206c69717569646974792077604082015266696e6e696e677360c81b606082015260800190565b60208082526023908201527f7573657220646f6573206e6f7420686f6c64206c69717569646974792073686160408201526272657360e81b606082015260800190565b60208082526023908201527f6d61726b657420646f6573206e6f74206861766520656e6f7567682062616c616040820152626e636560e81b606082015260800190565b60208082526021908201527f7573657220646f6573206e6f74206861766520656e6f7567682062616c616e636040820152606560f81b606082015260800190565b60208082526026908201527f6f7574636f6d652073686172657320706f6f6c2062616c616e636520697320746040820152656f6f206c6f7760d01b606082015260800190565b6020808252601e908201527f6d696e696d756d2062757920616d6f756e74206e6f7420726561636865640000604082015260600190565b6020808252601c908201527b1b585e1a5b5d5b481cd95b1b08185b5bdd5b9d08195e18d95959195960221b604082015260600190565b9283526020830191909152604082015260600190565b6000848252606060208301526133486060830185612c46565b828103604084015261335a8185612c46565b9695505050505050565b918252602082015260400190565b6001600160a01b038116811461338757600080fd5b5056fe9dcabe311735ed0d65f0c22c5425d1f17331f94c9d0767f59e58473cf95ada611eca98f266e5348ae38d5d057a4d8e451e76672f69ac6ba4b0e3b31ea9c7eb2b8be0079c531659141344cd1fd0a4f28419497f9722a3daafe3b4186f6b6457e0a2646970667358221220e60ed707a50368c95d6634b765ae02b4009e0ead2b2847825fb81abb7869be9b64736f6c63430006020033",
  "source": "pragma solidity ^0.6.0;\npragma experimental ABIEncoderV2;\n\nimport \"./RealitioERC20.sol\";\n\n// openzeppelin imports\nimport \"@openzeppelin/contracts/math/SafeMath.sol\";\nimport \"@openzeppelin/contracts-upgradeable/access/OwnableUpgradeable.sol\";\n\nlibrary CeilDiv {\n  // calculates ceil(x/y)\n  function ceildiv(uint256 x, uint256 y) internal pure returns (uint256) {\n    if (x > 0) return ((x - 1) / y) + 1;\n    return x / y;\n  }\n}\n\n/// @title Market Contract Factory\ncontract PredictionMarket is Initializable, OwnableUpgradeable {\n  using SafeMath for uint256;\n  using CeilDiv for uint256;\n\n  // ------ Events ------\n\n  event MarketCreated(address indexed user, uint256 indexed marketId, uint256 outcomes, string question, string image);\n\n  event MarketActionTx(\n    address indexed user,\n    MarketAction indexed action,\n    uint256 indexed marketId,\n    uint256 outcomeId,\n    uint256 shares,\n    uint256 value,\n    uint256 timestamp\n  );\n\n  event MarketOutcomePrice(uint256 indexed marketId, uint256 indexed outcomeId, uint256 value, uint256 timestamp);\n\n  event MarketLiquidity(\n    uint256 indexed marketId,\n    uint256 value, // total liquidity\n    uint256 price, // value of one liquidity share; max: 1 (50-50 situation)\n    uint256 timestamp\n  );\n\n  event MarketResolved(address indexed user, uint256 indexed marketId, uint256 outcomeId, uint256 timestamp);\n\n  // ------ Events End ------\n\n  uint256 public constant MAX_UINT_256 = 115792089237316195423570985008687907853269984665640564039457584007913129639935;\n\n  uint256 public constant ONE = 10**18;\n\n  enum MarketState {\n    open,\n    closed,\n    resolved\n  }\n  enum MarketAction {\n    buy,\n    sell,\n    addLiquidity,\n    removeLiquidity,\n    claimWinnings,\n    claimLiquidity,\n    claimFees\n  }\n\n  struct Market {\n    // market details\n    uint256 closesAtTimestamp;\n    uint256 balance; // total stake\n    uint256 liquidity; // stake held\n    uint256 sharesAvailable; // shares held (all outcomes)\n    mapping(address => uint256) liquidityShares;\n    mapping(address => bool) liquidityClaims; // wether user has claimed liquidity earnings\n    MarketState state; // resolution variables\n    MarketResolution resolution; // fees\n    MarketFees fees;\n    // market outcomes\n    uint256[] outcomeIds;\n    mapping(uint256 => MarketOutcome) outcomes;\n  }\n\n  struct MarketFees {\n    uint256 value; // fee % taken from every transaction\n    uint256 poolWeight; // internal var used to ensure pro-rate fee distribution\n    mapping(address => uint256) claimed;\n  }\n\n  struct MarketResolution {\n    bool resolved;\n    uint256 outcomeId;\n    bytes32 questionId; // realitio questionId\n  }\n\n  struct MarketOutcome {\n    uint256 marketId;\n    uint256 id;\n    Shares shares;\n  }\n\n  struct Shares {\n    uint256 total; // number of shares\n    uint256 available; // available shares\n    mapping(address => uint256) holders;\n    mapping(address => bool) claims; // wether user has claimed winnings\n  }\n\n  uint256[] marketIds;\n  mapping(uint256 => Market) markets;\n  uint256 public marketIndex;\n\n  // governance\n  uint256 public fee; // fee % taken from every transaction, can be updated by contract owner\n  // realitio configs\n  address public realitioAddress;\n  uint256 public realitioTimeout;\n  // market creation\n  IERC20 public token; // token used for rewards / market creation\n  uint256 public requiredBalance; // required balance for market creation\n\n  // ------ Modifiers ------\n\n  modifier isMarket(uint256 marketId) {\n    require(marketId < marketIndex);\n    _;\n  }\n\n  modifier timeTransitions(uint256 marketId) {\n    if (now > markets[marketId].closesAtTimestamp && markets[marketId].state == MarketState.open) {\n      nextState(marketId);\n    }\n    _;\n  }\n\n  modifier atState(uint256 marketId, MarketState state) {\n    require(markets[marketId].state == state);\n    _;\n  }\n\n  modifier notAtState(uint256 marketId, MarketState state) {\n    require(markets[marketId].state != state);\n    _;\n  }\n\n  modifier transitionNext(uint256 marketId) {\n    _;\n    nextState(marketId);\n  }\n\n  modifier mustHoldRequiredBalance() {\n    require(token.balanceOf(msg.sender) >= requiredBalance, \"msg.sender must hold minimum erc20 balance\");\n    _;\n  }\n\n  // ------ Modifiers End ------\n\n  // Initializer function (replaces constructor)\n  // function initialize() public initializer {\n  //   __Ownable_init();\n  // }\n\n  // ------ Core Functions ------\n\n  /// @dev Creates a market, initializes the outcome shares pool and submits a question in Realitio\n  function createMarket(\n    string memory question,\n    string memory image,\n    uint256 closesAt,\n    address arbitrator,\n    uint256 outcomes\n  ) public payable mustHoldRequiredBalance() returns (uint256) {\n    uint256 marketId = marketIndex;\n    marketIds.push(marketId);\n\n    Market storage market = markets[marketId];\n\n    require(msg.value > 0, \"stake needs to be > 0\");\n    require(closesAt >= now, \"market must resolve after the current date\");\n    require(arbitrator == address(arbitrator), \"invalid arbitrator address\");\n    // v1 - only binary markets\n    require(outcomes == 2, \"number of outcomes has to be 2\");\n\n    market.closesAtTimestamp = closesAt;\n    market.state = MarketState.open;\n    market.fees.value = fee;\n    // setting intial value to an integer that does not map to any outcomeId\n    market.resolution.outcomeId = MAX_UINT_256;\n\n    // creating market outcomes\n    for (uint256 i = 0; i < outcomes; i++) {\n      market.outcomeIds.push(i);\n      MarketOutcome storage outcome = market.outcomes[i];\n\n      outcome.marketId = marketId;\n      outcome.id = i;\n    }\n\n    // creating question in realitio\n    RealitioERC20 realitio = RealitioERC20(realitioAddress);\n\n    market.resolution.questionId = realitio.askQuestionERC20(\n      2,\n      question,\n      arbitrator,\n      uint32(realitioTimeout),\n      uint32(closesAt),\n      0,\n      0\n    );\n\n    addLiquidity(marketId, msg.value);\n\n    // emiting initial price events\n    emitMarketOutcomePriceEvents(marketId);\n    emit MarketCreated(msg.sender, marketId, outcomes, question, image);\n\n    // incrementing market array index\n    marketIndex = marketIndex + 1;\n\n    return marketId;\n  }\n\n  /// @dev Calculates the number of shares bought with \"amount\" balance\n  function calcBuyAmount(\n    uint256 amount,\n    uint256 marketId,\n    uint256 outcomeId\n  ) public view returns (uint256) {\n    Market storage market = markets[marketId];\n\n    uint256[] memory outcomesShares = getMarketOutcomesShares(marketId);\n    uint256 amountMinusFees = amount.sub(amount.mul(market.fees.value) / ONE);\n    uint256 buyTokenPoolBalance = outcomesShares[outcomeId];\n    uint256 endingOutcomeBalance = buyTokenPoolBalance.mul(ONE);\n    for (uint256 i = 0; i < outcomesShares.length; i++) {\n      if (i != outcomeId) {\n        uint256 outcomeShares = outcomesShares[i];\n        endingOutcomeBalance = endingOutcomeBalance.mul(outcomeShares).ceildiv(outcomeShares.add(amountMinusFees));\n      }\n    }\n    require(endingOutcomeBalance > 0, \"must have non-zero balances\");\n\n    return buyTokenPoolBalance.add(amountMinusFees).sub(endingOutcomeBalance.ceildiv(ONE));\n  }\n\n  /// @dev Calculates the number of shares needed to be sold in order to receive \"amount\" in balance\n  function calcSellAmount(\n    uint256 amount,\n    uint256 marketId,\n    uint256 outcomeId\n  ) public view returns (uint256 outcomeTokenSellAmount) {\n    Market storage market = markets[marketId];\n\n    uint256[] memory outcomesShares = getMarketOutcomesShares(marketId);\n    uint256 amountPlusFees = amount.mul(ONE) / ONE.sub(market.fees.value);\n    uint256 sellTokenPoolBalance = outcomesShares[outcomeId];\n    uint256 endingOutcomeBalance = sellTokenPoolBalance.mul(ONE);\n    for (uint256 i = 0; i < outcomesShares.length; i++) {\n      if (i != outcomeId) {\n        uint256 outcomeShares = outcomesShares[i];\n        endingOutcomeBalance = endingOutcomeBalance.mul(outcomeShares).ceildiv(outcomeShares.sub(amountPlusFees));\n      }\n    }\n    require(endingOutcomeBalance > 0, \"must have non-zero balances\");\n\n    return amountPlusFees.add(endingOutcomeBalance.ceildiv(ONE)).sub(sellTokenPoolBalance);\n  }\n\n  /// @dev Buy shares of a market outcome\n  function buy(\n    uint256 marketId,\n    uint256 outcomeId,\n    uint256 minOutcomeSharesToBuy\n  ) external payable timeTransitions(marketId) atState(marketId, MarketState.open) {\n    Market storage market = markets[marketId];\n\n    uint256 value = msg.value;\n    uint256 shares = calcBuyAmount(value, marketId, outcomeId);\n    require(shares >= minOutcomeSharesToBuy, \"minimum buy amount not reached\");\n\n    // subtracting fee from transaction value\n    uint256 feeAmount = value.mul(market.fees.value) / ONE;\n    market.fees.poolWeight = market.fees.poolWeight.add(feeAmount);\n    uint256 valueMinusFees = value.sub(feeAmount);\n\n    MarketOutcome storage outcome = market.outcomes[outcomeId];\n\n    // Funding market shares with received funds\n    addSharesToMarket(marketId, valueMinusFees);\n\n    require(outcome.shares.available >= shares, \"outcome shares pool balance is too low\");\n\n    transferOutcomeSharesfromPool(msg.sender, marketId, outcomeId, shares);\n\n    emit MarketActionTx(msg.sender, MarketAction.buy, marketId, outcomeId, shares, value, now);\n    emitMarketOutcomePriceEvents(marketId);\n  }\n\n  /// @dev Sell shares of a market outcome\n  function sell(\n    uint256 marketId,\n    uint256 outcomeId,\n    uint256 value,\n    uint256 maxOutcomeSharesToSell\n  ) external payable timeTransitions(marketId) atState(marketId, MarketState.open) {\n    Market storage market = markets[marketId];\n    MarketOutcome storage outcome = market.outcomes[outcomeId];\n\n    uint256 shares = calcSellAmount(value, marketId, outcomeId);\n\n    require(shares <= maxOutcomeSharesToSell, \"maximum sell amount exceeded\");\n    require(outcome.shares.holders[msg.sender] >= shares, \"user does not have enough balance\");\n\n    transferOutcomeSharesToPool(msg.sender, marketId, outcomeId, shares);\n\n    // adding fee to transaction value\n    uint256 feeAmount = value.mul(market.fees.value) / (ONE.sub(fee));\n    market.fees.poolWeight = market.fees.poolWeight.add(feeAmount);\n    uint256 valuePlusFees = value.add(feeAmount);\n\n    require(market.balance >= valuePlusFees, \"market does not have enough balance\");\n\n    // Rebalancing market shares\n    removeSharesFromMarket(marketId, valuePlusFees);\n\n    // Transferring funds to user\n    msg.sender.transfer(value);\n\n    emit MarketActionTx(msg.sender, MarketAction.sell, marketId, outcomeId, shares, value, now);\n    emitMarketOutcomePriceEvents(marketId);\n  }\n\n  /// @dev Adds liquidity to a market - external\n  function addLiquidity(uint256 marketId)\n    external\n    payable\n    timeTransitions(marketId)\n    atState(marketId, MarketState.open)\n  {\n    addLiquidity(marketId, msg.value);\n  }\n\n  /// @dev Private function, used by addLiquidity and CreateMarket\n  function addLiquidity(uint256 marketId, uint256 value)\n    private\n    timeTransitions(marketId)\n    atState(marketId, MarketState.open)\n  {\n    Market storage market = markets[marketId];\n\n    require(value > 0, \"stake has to be greater than 0.\");\n\n    uint256 liquidityAmount;\n\n    uint256[] memory outcomesShares = getMarketOutcomesShares(marketId);\n    uint256[] memory sendBackAmounts = new uint256[](outcomesShares.length);\n    uint256 poolWeight = 0;\n\n    if (market.liquidity > 0) {\n      // part of the liquidity is exchanged for outcome shares if market is not balanced\n      for (uint256 i = 0; i < outcomesShares.length; i++) {\n        uint256 outcomeShares = outcomesShares[i];\n        if (poolWeight < outcomeShares) poolWeight = outcomeShares;\n      }\n\n      for (uint256 i = 0; i < outcomesShares.length; i++) {\n        uint256 remaining = value.mul(outcomesShares[i]) / poolWeight;\n        sendBackAmounts[i] = value.sub(remaining);\n      }\n\n      liquidityAmount = value.mul(market.liquidity) / poolWeight;\n\n      // re-balancing fees pool\n      rebalanceFeesPool(marketId, liquidityAmount, MarketAction.addLiquidity);\n    } else {\n      // funding market with no liquidity\n      liquidityAmount = value;\n    }\n\n    // funding market\n    market.liquidity = market.liquidity.add(liquidityAmount);\n    market.liquidityShares[msg.sender] = market.liquidityShares[msg.sender].add(liquidityAmount);\n\n    addSharesToMarket(marketId, value);\n\n    // transform sendBackAmounts to array of amounts added\n    for (uint256 i = 0; i < sendBackAmounts.length; i++) {\n      if (sendBackAmounts[i] > 0) {\n        transferOutcomeSharesfromPool(msg.sender, marketId, i, sendBackAmounts[i]);\n        emit MarketActionTx(\n          msg.sender,\n          MarketAction.buy,\n          marketId,\n          i,\n          sendBackAmounts[i],\n          sendBackAmounts[i].mul(outcomesShares[i]).div(market.sharesAvailable),\n          now\n        );\n      }\n    }\n\n    emit MarketActionTx(msg.sender, MarketAction.addLiquidity, marketId, 0, liquidityAmount, value, now);\n    emit MarketLiquidity(marketId, market.liquidity, getMarketLiquidityPrice(marketId), now);\n  }\n\n  /// @dev Removes liquidity to a market - external\n  function removeLiquidity(uint256 marketId, uint256 shares)\n    external\n    payable\n    timeTransitions(marketId)\n    atState(marketId, MarketState.open)\n  {\n    Market storage market = markets[marketId];\n\n    require(market.liquidityShares[msg.sender] >= shares, \"user does not have enough balance\");\n    // claiming any pending fees\n    claimFees(marketId);\n\n    // re-balancing fees pool\n    rebalanceFeesPool(marketId, shares, MarketAction.removeLiquidity);\n\n    uint256[] memory outcomesShares = getMarketOutcomesShares(marketId);\n    uint256[] memory sendAmounts = new uint256[](outcomesShares.length);\n    uint256 poolWeight = MAX_UINT_256;\n\n    // part of the liquidity is exchanged for outcome shares if market is not balanced\n    for (uint256 i = 0; i < outcomesShares.length; i++) {\n      uint256 outcomeShares = outcomesShares[i];\n      if (poolWeight > outcomeShares) poolWeight = outcomeShares;\n    }\n\n    uint256 liquidityAmount = shares.mul(poolWeight).div(market.liquidity);\n\n    for (uint256 i = 0; i < outcomesShares.length; i++) {\n      sendAmounts[i] = outcomesShares[i].mul(shares) / market.liquidity;\n      sendAmounts[i] = sendAmounts[i].sub(liquidityAmount);\n    }\n\n    // removing liquidity from market\n    removeSharesFromMarket(marketId, liquidityAmount);\n    market.liquidity = market.liquidity.sub(shares);\n    // removing liquidity tokens from market creator\n    market.liquidityShares[msg.sender] = market.liquidityShares[msg.sender].sub(shares);\n\n    for (uint256 i = 0; i < outcomesShares.length; i++) {\n      if (sendAmounts[i] > 0) {\n        transferOutcomeSharesfromPool(msg.sender, marketId, i, sendAmounts[i]);\n        emit MarketActionTx(\n          msg.sender,\n          MarketAction.buy,\n          marketId,\n          i,\n          sendAmounts[i],\n          sendAmounts[i].mul(outcomesShares[i]).div(market.sharesAvailable),\n          now\n        );\n      }\n    }\n\n    // transferring user funds from liquidity removed\n    msg.sender.transfer(liquidityAmount);\n\n    emit MarketActionTx(msg.sender, MarketAction.removeLiquidity, marketId, 0, shares, liquidityAmount, now);\n    emit MarketLiquidity(marketId, market.liquidity, getMarketLiquidityPrice(marketId), now);\n  }\n\n  /// @dev Fetches winning outcome from Realitio and resolves the market\n  function resolveMarketOutcome(uint256 marketId)\n    public\n    timeTransitions(marketId)\n    atState(marketId, MarketState.closed)\n    transitionNext(marketId)\n    returns (uint256)\n  {\n    Market storage market = markets[marketId];\n\n    RealitioERC20 realitio = RealitioERC20(realitioAddress);\n    // will fail if question is not finalized\n    uint256 outcomeId = uint256(realitio.resultFor(market.resolution.questionId));\n\n    market.resolution.outcomeId = outcomeId;\n\n    emit MarketResolved(msg.sender, marketId, outcomeId, now);\n    emitMarketOutcomePriceEvents(marketId);\n\n    return market.resolution.outcomeId;\n  }\n\n  /// @dev Allows holders of resolved outcome shares to claim earnings.\n  function claimWinnings(uint256 marketId) public atState(marketId, MarketState.resolved) {\n    Market storage market = markets[marketId];\n    MarketOutcome storage resolvedOutcome = market.outcomes[market.resolution.outcomeId];\n\n    require(resolvedOutcome.shares.holders[msg.sender] > 0, \"user does not hold resolved outcome shares\");\n    require(resolvedOutcome.shares.claims[msg.sender] == false, \"user already claimed resolved outcome winnings\");\n\n    // 1 share => price = 1\n    uint256 value = resolvedOutcome.shares.holders[msg.sender];\n\n    // assuring market has enough funds\n    require(market.balance >= value, \"Market does not have enough balance\");\n\n    market.balance = market.balance.sub(value);\n    resolvedOutcome.shares.claims[msg.sender] = true;\n\n    emit MarketActionTx(\n      msg.sender,\n      MarketAction.claimWinnings,\n      marketId,\n      market.resolution.outcomeId,\n      resolvedOutcome.shares.holders[msg.sender],\n      value,\n      now\n    );\n\n    msg.sender.transfer(value);\n  }\n\n  /// @dev Allows liquidity providers to claim earnings from liquidity providing.\n  function claimLiquidity(uint256 marketId) public atState(marketId, MarketState.resolved) {\n    Market storage market = markets[marketId];\n    MarketOutcome storage resolvedOutcome = market.outcomes[market.resolution.outcomeId];\n\n    // claiming any pending fees\n    claimFees(marketId);\n\n    require(market.liquidityShares[msg.sender] > 0, \"user does not hold liquidity shares\");\n    require(market.liquidityClaims[msg.sender] == false, \"user already claimed liquidity winnings\");\n\n    // value = total resolved outcome pool shares * pool share (%)\n    uint256 value = resolvedOutcome.shares.available.mul(getUserLiquidityPoolShare(marketId, msg.sender)).div(ONE);\n\n    // assuring market has enough funds\n    require(market.balance >= value, \"Market does not have enough balance\");\n\n    market.balance = market.balance.sub(value);\n    market.liquidityClaims[msg.sender] = true;\n\n    emit MarketActionTx(\n      msg.sender,\n      MarketAction.claimLiquidity,\n      marketId,\n      0,\n      market.liquidityShares[msg.sender],\n      value,\n      now\n    );\n\n    msg.sender.transfer(value);\n  }\n\n  /// @dev Allows liquidity providers to claim their fees share from fees pool\n  function claimFees(uint256 marketId) public payable {\n    Market storage market = markets[marketId];\n\n    uint256 claimableFees = getUserClaimableFees(marketId, msg.sender);\n\n    if (claimableFees > 0) {\n      market.fees.claimed[msg.sender] = market.fees.claimed[msg.sender].add(claimableFees);\n      msg.sender.transfer(claimableFees);\n    }\n\n    emit MarketActionTx(\n      msg.sender,\n      MarketAction.claimFees,\n      marketId,\n      0,\n      market.liquidityShares[msg.sender],\n      claimableFees,\n      now\n    );\n  }\n\n  /// @dev Rebalances the fees pool. Needed in every AddLiquidity / RemoveLiquidity call\n  function rebalanceFeesPool(\n    uint256 marketId,\n    uint256 liquidityShares,\n    MarketAction action\n  ) private returns (uint256) {\n    Market storage market = markets[marketId];\n\n    uint256 poolWeight = liquidityShares.mul(market.fees.poolWeight).div(market.liquidity);\n\n    if (action == MarketAction.addLiquidity) {\n      market.fees.poolWeight = market.fees.poolWeight.add(poolWeight);\n      market.fees.claimed[msg.sender] = market.fees.claimed[msg.sender].add(poolWeight);\n    } else {\n      market.fees.poolWeight = market.fees.poolWeight.sub(poolWeight);\n      market.fees.claimed[msg.sender] = market.fees.claimed[msg.sender].sub(poolWeight);\n    }\n  }\n\n  /// @dev Transitions market to next state\n  function nextState(uint256 marketId) private {\n    Market storage market = markets[marketId];\n    market.state = MarketState(uint256(market.state) + 1);\n  }\n\n  /// @dev Emits a outcome price event for every outcome\n  function emitMarketOutcomePriceEvents(uint256 marketId) private {\n    Market storage market = markets[marketId];\n\n    for (uint256 i = 0; i < market.outcomeIds.length; i++) {\n      emit MarketOutcomePrice(marketId, i, getMarketOutcomePrice(marketId, i), now);\n    }\n\n    // liquidity shares also change value\n    emit MarketLiquidity(marketId, market.liquidity, getMarketLiquidityPrice(marketId), now);\n  }\n\n  /// @dev Adds outcome shares to shares pool\n  function addSharesToMarket(uint256 marketId, uint256 shares) private {\n    Market storage market = markets[marketId];\n\n    for (uint256 i = 0; i < market.outcomeIds.length; i++) {\n      MarketOutcome storage outcome = market.outcomes[i];\n\n      outcome.shares.available = outcome.shares.available.add(shares);\n      outcome.shares.total = outcome.shares.total.add(shares);\n\n      // only adding to market total shares, the available remains\n      market.sharesAvailable = market.sharesAvailable.add(shares);\n    }\n\n    market.balance = market.balance.add(shares);\n  }\n\n  /// @dev Removes outcome shares from shares pool\n  function removeSharesFromMarket(uint256 marketId, uint256 shares) private {\n    Market storage market = markets[marketId];\n\n    for (uint256 i = 0; i < market.outcomeIds.length; i++) {\n      MarketOutcome storage outcome = market.outcomes[i];\n\n      outcome.shares.available = outcome.shares.available.sub(shares);\n      outcome.shares.total = outcome.shares.total.sub(shares);\n\n      // only subtracting from market total shares, the available remains\n      market.sharesAvailable = market.sharesAvailable.sub(shares);\n    }\n\n    market.balance = market.balance.sub(shares);\n  }\n\n  /// @dev Transfer outcome shares from pool to user balance\n  function transferOutcomeSharesfromPool(\n    address user,\n    uint256 marketId,\n    uint256 outcomeId,\n    uint256 shares\n  ) private {\n    Market storage market = markets[marketId];\n    MarketOutcome storage outcome = market.outcomes[outcomeId];\n\n    // transfering shares from shares pool to user\n    outcome.shares.holders[user] = outcome.shares.holders[user].add(shares);\n    outcome.shares.available = outcome.shares.available.sub(shares);\n    market.sharesAvailable = market.sharesAvailable.sub(shares);\n  }\n\n  /// @dev Transfer outcome shares from user balance back to pool\n  function transferOutcomeSharesToPool(\n    address user,\n    uint256 marketId,\n    uint256 outcomeId,\n    uint256 shares\n  ) private {\n    Market storage market = markets[marketId];\n    MarketOutcome storage outcome = market.outcomes[outcomeId];\n\n    // adding shares back to pool\n    outcome.shares.holders[user] = outcome.shares.holders[user].sub(shares);\n    outcome.shares.available = outcome.shares.available.add(shares);\n    market.sharesAvailable = market.sharesAvailable.add(shares);\n  }\n\n  // ------ Core Functions End ------\n\n  // ------ Governance Functions Start ------\n\n  /// @dev Sets fee taken from every buy/sell tx\n  function setFee(uint256 _fee) public onlyOwner() {\n    fee = _fee;\n  }\n\n  /// @dev Sets Realitio smart contract address\n  function setRealitioERC20(address _address) public onlyOwner() {\n    realitioAddress = _address;\n  }\n\n  /// @dev Sets timeout for questions submitted in Realitio\n  function setRealitioTimeout(uint256 timeout) public onlyOwner() {\n    realitioTimeout = timeout;\n  }\n\n  /// @dev Sets ERC20 token needed for markets creation\n  function setToken(IERC20 _token) public onlyOwner() {\n    token = _token;\n  }\n\n  /// @dev Sets needed ERC20 balance to create markets\n  function setRequiredBalance(uint256 _requiredBalance) public onlyOwner() {\n    requiredBalance = _requiredBalance;\n  }\n\n  // ------ Governance Functions End ------\n\n  // ------ Getters ------\n\n  function getUserMarketShares(uint256 marketId, address user)\n    public\n    view\n    returns (\n      uint256,\n      uint256,\n      uint256\n    )\n  {\n    Market storage market = markets[marketId];\n\n    return (\n      market.liquidityShares[user],\n      market.outcomes[0].shares.holders[user],\n      market.outcomes[1].shares.holders[user]\n    );\n  }\n\n  function getUserClaimStatus(uint256 marketId, address user)\n    public\n    view\n    returns (\n      bool,\n      bool,\n      bool,\n      bool,\n      uint256\n    )\n  {\n    Market storage market = markets[marketId];\n\n    // market still not resolved\n    if (market.state != MarketState.resolved) {\n      return (false, false, false, false, getUserClaimableFees(marketId, user));\n    }\n\n    MarketOutcome storage outcome = market.outcomes[market.resolution.outcomeId];\n\n    return (\n      outcome.shares.holders[user] > 0,\n      outcome.shares.claims[user],\n      market.liquidityShares[user] > 0,\n      market.liquidityClaims[user],\n      getUserClaimableFees(marketId, user)\n    );\n  }\n\n  function getUserLiquidityPoolShare(uint256 marketId, address user) public view returns (uint256) {\n    Market storage market = markets[marketId];\n\n    return market.liquidityShares[user].mul(ONE).div(market.liquidity);\n  }\n\n  function getUserClaimableFees(uint256 marketId, address user) public view returns (uint256) {\n    Market storage market = markets[marketId];\n\n    uint256 rawAmount = market.fees.poolWeight.mul(market.liquidityShares[user]).div(market.liquidity);\n    return rawAmount.sub(market.fees.claimed[user]);\n  }\n\n  function getMarkets() public view returns (uint256[] memory) {\n    return marketIds;\n  }\n\n  function getMarketData(uint256 marketId)\n    public\n    view\n    returns (\n      MarketState,\n      uint256,\n      uint256,\n      uint256,\n      uint256,\n      int256\n    )\n  {\n    Market storage market = markets[marketId];\n\n    return (\n      market.state,\n      market.closesAtTimestamp,\n      market.liquidity,\n      market.balance,\n      market.sharesAvailable,\n      getMarketResolvedOutcome(marketId)\n    );\n  }\n\n  function getMarketAltData(uint256 marketId)\n    public\n    view\n    returns (\n      uint256,\n      bytes32,\n      uint256\n    )\n  {\n    Market storage market = markets[marketId];\n\n    return (market.fees.value, market.resolution.questionId, uint256(market.resolution.questionId));\n  }\n\n  function getMarketQuestion(uint256 marketId) public view returns (bytes32) {\n    Market storage market = markets[marketId];\n\n    return (market.resolution.questionId);\n  }\n\n  function getMarketPrices(uint256 marketId)\n    public\n    view\n    returns (\n      uint256,\n      uint256,\n      uint256\n    )\n  {\n    return (getMarketLiquidityPrice(marketId), getMarketOutcomePrice(marketId, 0), getMarketOutcomePrice(marketId, 1));\n  }\n\n  function getMarketLiquidityPrice(uint256 marketId) public view returns (uint256) {\n    Market storage market = markets[marketId];\n\n    if (market.state == MarketState.resolved) {\n      // resolved market, price is either 0 or 1\n      // final liquidity price = outcome shares / liquidity shares\n      return market.outcomes[market.resolution.outcomeId].shares.available.mul(ONE).div(market.liquidity);\n    }\n\n    // liquidity price = # liquidity shares / # outcome shares * # outcomes\n    return market.liquidity.mul(ONE * market.outcomeIds.length).div(market.sharesAvailable);\n  }\n\n  function getMarketResolvedOutcome(uint256 marketId) public view returns (int256) {\n    Market storage market = markets[marketId];\n\n    // returning -1 if market still not resolved\n    if (market.state != MarketState.resolved) {\n      return -1;\n    }\n\n    return int256(market.resolution.outcomeId);\n  }\n\n  // ------ Outcome Getters ------\n\n  function getMarketOutcomeIds(uint256 marketId) public view returns (uint256[] memory) {\n    Market storage market = markets[marketId];\n    return market.outcomeIds;\n  }\n\n  function getMarketOutcomePrice(uint256 marketId, uint256 outcomeId) public view returns (uint256) {\n    Market storage market = markets[marketId];\n    MarketOutcome storage outcome = market.outcomes[outcomeId];\n\n    if (market.state == MarketState.resolved) {\n      // resolved market, price is either 0 or 1\n      return outcomeId == market.resolution.outcomeId ? ONE : 0;\n    }\n\n    return (market.sharesAvailable.sub(outcome.shares.available)).mul(ONE).div(market.sharesAvailable);\n  }\n\n  function getMarketOutcomeData(uint256 marketId, uint256 outcomeId)\n    public\n    view\n    returns (\n      uint256,\n      uint256,\n      uint256\n    )\n  {\n    Market storage market = markets[marketId];\n    MarketOutcome storage outcome = market.outcomes[outcomeId];\n\n    return (getMarketOutcomePrice(marketId, outcomeId), outcome.shares.available, outcome.shares.total);\n  }\n\n  function getMarketOutcomesShares(uint256 marketId) private view returns (uint256[] memory) {\n    Market storage market = markets[marketId];\n\n    uint256[] memory shares = new uint256[](market.outcomeIds.length);\n    for (uint256 i = 0; i < market.outcomeIds.length; i++) {\n      shares[i] = market.outcomes[i].shares.available;\n    }\n\n    return shares;\n  }\n}\n",
  "sourcePath": "/Users/ricardomarques/dev/workspace/polkamarkets/bepro-js/contracts/PredictionMarket.sol",
  "compiler": {
    "name": "solc",
    "version": "0.6.2+commit.bacdbe57.Emscripten.clang"
  },
  "schemaVersion": "3.3.4",
  "updatedAt": "2021-09-13T21:24:33.368Z",
  "devdoc": {
    "methods": {
      "addLiquidity(uint256)": {
        "details": "Adds liquidity to a market - external"
      },
      "buy(uint256,uint256,uint256)": {
        "details": "Buy shares of a market outcome"
      },
      "calcBuyAmount(uint256,uint256,uint256)": {
        "details": "Calculates the number of shares bought with \"amount\" balance"
      },
      "calcSellAmount(uint256,uint256,uint256)": {
        "details": "Calculates the number of shares needed to be sold in order to receive \"amount\" in balance"
      },
      "claimFees(uint256)": {
        "details": "Allows liquidity providers to claim their fees share from fees pool"
      },
      "claimLiquidity(uint256)": {
        "details": "Allows liquidity providers to claim earnings from liquidity providing."
      },
      "claimWinnings(uint256)": {
        "details": "Allows holders of resolved outcome shares to claim earnings."
      },
      "createMarket(string,string,uint256,address,uint256)": {
        "details": "Creates a market, initializes the outcome shares pool and submits a question in Realitio"
      },
      "owner()": {
        "details": "Returns the address of the current owner."
      },
      "removeLiquidity(uint256,uint256)": {
        "details": "Removes liquidity to a market - external"
      },
      "renounceOwnership()": {
        "details": "Leaves the contract without owner. It will not be possible to call `onlyOwner` functions anymore. Can only be called by the current owner.     * NOTE: Renouncing ownership will leave the contract without an owner, thereby removing any functionality that is only available to the owner."
      },
      "resolveMarketOutcome(uint256)": {
        "details": "Fetches winning outcome from Realitio and resolves the market"
      },
      "sell(uint256,uint256,uint256,uint256)": {
        "details": "Sell shares of a market outcome"
      },
      "setFee(uint256)": {
        "details": "Sets fee taken from every buy/sell tx"
      },
      "setRealitioERC20(address)": {
        "details": "Sets Realitio smart contract address"
      },
      "setRealitioTimeout(uint256)": {
        "details": "Sets timeout for questions submitted in Realitio"
      },
      "setRequiredBalance(uint256)": {
        "details": "Sets needed ERC20 balance to create markets"
      },
      "setToken(address)": {
        "details": "Sets ERC20 token needed for markets creation"
      },
      "transferOwnership(address)": {
        "details": "Transfers ownership of the contract to a new account (`newOwner`). Can only be called by the current owner."
      }
    },
    "title": "Market Contract Factory"
  },
  "userdoc": {
    "methods": {}
  }
}