{
  "contractName": "PredictionMarket",
  "abi": [
    {
      "anonymous": false,
      "inputs": [
        {
          "indexed": true,
          "internalType": "uint256",
          "name": "marketId",
          "type": "uint256"
        },
        {
          "indexed": false,
          "internalType": "uint256",
          "name": "value",
          "type": "uint256"
        },
        {
          "indexed": false,
          "internalType": "uint256",
          "name": "price",
          "type": "uint256"
        },
        {
          "indexed": false,
          "internalType": "uint256",
          "name": "timestamp",
          "type": "uint256"
        }
      ],
      "name": "MarketLiquidity",
      "type": "event"
    },
    {
      "anonymous": false,
      "inputs": [
        {
          "indexed": true,
          "internalType": "uint256",
          "name": "marketId",
          "type": "uint256"
        },
        {
          "indexed": true,
          "internalType": "uint256",
          "name": "outcomeId",
          "type": "uint256"
        },
        {
          "indexed": false,
          "internalType": "uint256",
          "name": "value",
          "type": "uint256"
        },
        {
          "indexed": false,
          "internalType": "uint256",
          "name": "timestamp",
          "type": "uint256"
        }
      ],
      "name": "MarketOutcomePrice",
      "type": "event"
    },
    {
      "anonymous": false,
      "inputs": [
        {
          "indexed": true,
          "internalType": "address",
          "name": "oracle",
          "type": "address"
        },
        {
          "indexed": true,
          "internalType": "uint256",
          "name": "marketId",
          "type": "uint256"
        },
        {
          "indexed": false,
          "internalType": "uint256",
          "name": "outcomeId",
          "type": "uint256"
        },
        {
          "indexed": false,
          "internalType": "uint256",
          "name": "timestamp",
          "type": "uint256"
        }
      ],
      "name": "MarketResolved",
      "type": "event"
    },
    {
      "anonymous": false,
      "inputs": [
        {
          "indexed": true,
          "internalType": "address",
          "name": "previousOwner",
          "type": "address"
        },
        {
          "indexed": true,
          "internalType": "address",
          "name": "newOwner",
          "type": "address"
        }
      ],
      "name": "OwnershipTransferred",
      "type": "event"
    },
    {
      "anonymous": false,
      "inputs": [
        {
          "indexed": true,
          "internalType": "address",
          "name": "participant",
          "type": "address"
        },
        {
          "indexed": true,
          "internalType": "enum PredictionMarket.MarketAction",
          "name": "action",
          "type": "uint8"
        },
        {
          "indexed": true,
          "internalType": "uint256",
          "name": "marketId",
          "type": "uint256"
        },
        {
          "indexed": false,
          "internalType": "uint256",
          "name": "outcomeId",
          "type": "uint256"
        },
        {
          "indexed": false,
          "internalType": "uint256",
          "name": "shares",
          "type": "uint256"
        },
        {
          "indexed": false,
          "internalType": "uint256",
          "name": "value",
          "type": "uint256"
        },
        {
          "indexed": false,
          "internalType": "uint256",
          "name": "timestamp",
          "type": "uint256"
        }
      ],
      "name": "ParticipantAction",
      "type": "event"
    },
    {
      "inputs": [],
      "name": "MAX_UINT_256",
      "outputs": [
        {
          "internalType": "uint256",
          "name": "",
          "type": "uint256"
        }
      ],
      "stateMutability": "view",
      "type": "function"
    },
    {
      "inputs": [],
      "name": "ONE",
      "outputs": [
        {
          "internalType": "uint256",
          "name": "",
          "type": "uint256"
        }
      ],
      "stateMutability": "view",
      "type": "function"
    },
    {
      "inputs": [],
      "name": "fee",
      "outputs": [
        {
          "internalType": "uint256",
          "name": "",
          "type": "uint256"
        }
      ],
      "stateMutability": "view",
      "type": "function"
    },
    {
      "inputs": [],
      "name": "marketIndex",
      "outputs": [
        {
          "internalType": "uint256",
          "name": "",
          "type": "uint256"
        }
      ],
      "stateMutability": "view",
      "type": "function"
    },
    {
      "inputs": [],
      "name": "owner",
      "outputs": [
        {
          "internalType": "address",
          "name": "",
          "type": "address"
        }
      ],
      "stateMutability": "view",
      "type": "function"
    },
    {
      "inputs": [],
      "name": "realitioAddress",
      "outputs": [
        {
          "internalType": "address",
          "name": "",
          "type": "address"
        }
      ],
      "stateMutability": "view",
      "type": "function"
    },
    {
      "inputs": [],
      "name": "realitioTimeout",
      "outputs": [
        {
          "internalType": "uint256",
          "name": "",
          "type": "uint256"
        }
      ],
      "stateMutability": "view",
      "type": "function"
    },
    {
      "inputs": [],
      "name": "renounceOwnership",
      "outputs": [],
      "stateMutability": "nonpayable",
      "type": "function"
    },
    {
      "inputs": [
        {
          "internalType": "address",
          "name": "newOwner",
          "type": "address"
        }
      ],
      "name": "transferOwnership",
      "outputs": [],
      "stateMutability": "nonpayable",
      "type": "function"
    },
    {
      "inputs": [
        {
          "internalType": "string",
          "name": "name",
          "type": "string"
        },
        {
          "internalType": "uint256",
          "name": "closesAt",
          "type": "uint256"
        },
        {
          "internalType": "address",
          "name": "oracle",
          "type": "address"
        },
        {
          "internalType": "string[]",
          "name": "outcomes",
          "type": "string[]"
        }
      ],
      "name": "createMarket",
      "outputs": [
        {
          "internalType": "uint256",
          "name": "",
          "type": "uint256"
        }
      ],
      "stateMutability": "payable",
      "type": "function"
    },
    {
      "inputs": [
        {
          "internalType": "string",
          "name": "name",
          "type": "string"
        },
        {
          "internalType": "uint256",
          "name": "closesAt",
          "type": "uint256"
        },
        {
          "internalType": "address",
          "name": "oracle",
          "type": "address"
        },
        {
          "internalType": "string",
          "name": "outcome1Name",
          "type": "string"
        },
        {
          "internalType": "string",
          "name": "outcome2Name",
          "type": "string"
        }
      ],
      "name": "createMarket",
      "outputs": [
        {
          "internalType": "uint256",
          "name": "",
          "type": "uint256"
        }
      ],
      "stateMutability": "payable",
      "type": "function"
    },
    {
      "inputs": [
        {
          "internalType": "uint256",
          "name": "marketId",
          "type": "uint256"
        },
        {
          "internalType": "uint256",
          "name": "outcomeId",
          "type": "uint256"
        }
      ],
      "name": "buy",
      "outputs": [],
      "stateMutability": "payable",
      "type": "function"
    },
    {
      "inputs": [
        {
          "internalType": "uint256",
          "name": "marketId",
          "type": "uint256"
        },
        {
          "internalType": "uint256",
          "name": "outcomeId",
          "type": "uint256"
        },
        {
          "internalType": "uint256",
          "name": "shares",
          "type": "uint256"
        }
      ],
      "name": "sell",
      "outputs": [],
      "stateMutability": "payable",
      "type": "function"
    },
    {
      "inputs": [
        {
          "internalType": "uint256",
          "name": "marketId",
          "type": "uint256"
        }
      ],
      "name": "addLiquidity",
      "outputs": [],
      "stateMutability": "payable",
      "type": "function"
    },
    {
      "inputs": [
        {
          "internalType": "uint256",
          "name": "marketId",
          "type": "uint256"
        },
        {
          "internalType": "uint256",
          "name": "shares",
          "type": "uint256"
        }
      ],
      "name": "removeLiquidity",
      "outputs": [],
      "stateMutability": "payable",
      "type": "function"
    },
    {
      "inputs": [
        {
          "internalType": "uint256",
          "name": "marketId",
          "type": "uint256"
        }
      ],
      "name": "resolveMarketOutcome",
      "outputs": [
        {
          "internalType": "uint256",
          "name": "",
          "type": "uint256"
        }
      ],
      "stateMutability": "nonpayable",
      "type": "function"
    },
    {
      "inputs": [
        {
          "internalType": "uint256",
          "name": "marketId",
          "type": "uint256"
        }
      ],
      "name": "claimWinnings",
      "outputs": [],
      "stateMutability": "nonpayable",
      "type": "function"
    },
    {
      "inputs": [
        {
          "internalType": "uint256",
          "name": "marketId",
          "type": "uint256"
        }
      ],
      "name": "claimLiquidity",
      "outputs": [],
      "stateMutability": "nonpayable",
      "type": "function"
    },
    {
      "inputs": [
        {
          "internalType": "uint256",
          "name": "marketId",
          "type": "uint256"
        }
      ],
      "name": "claimFees",
      "outputs": [],
      "stateMutability": "payable",
      "type": "function"
    },
    {
      "inputs": [
        {
          "internalType": "uint256",
          "name": "feeValue",
          "type": "uint256"
        }
      ],
      "name": "setFee",
      "outputs": [],
      "stateMutability": "nonpayable",
      "type": "function"
    },
    {
      "inputs": [
        {
          "internalType": "address",
          "name": "addr",
          "type": "address"
        }
      ],
      "name": "setRealitioERC20",
      "outputs": [],
      "stateMutability": "nonpayable",
      "type": "function"
    },
    {
      "inputs": [
        {
          "internalType": "uint256",
          "name": "timeout",
          "type": "uint256"
        }
      ],
      "name": "setRealitioTimeout",
      "outputs": [],
      "stateMutability": "nonpayable",
      "type": "function"
    },
    {
      "inputs": [
        {
          "internalType": "uint256",
          "name": "marketId",
          "type": "uint256"
        },
        {
          "internalType": "address",
          "name": "participant",
          "type": "address"
        }
      ],
      "name": "getUserMarketShares",
      "outputs": [
        {
          "internalType": "uint256",
          "name": "",
          "type": "uint256"
        },
        {
          "internalType": "uint256",
          "name": "",
          "type": "uint256"
        },
        {
          "internalType": "uint256",
          "name": "",
          "type": "uint256"
        }
      ],
      "stateMutability": "view",
      "type": "function"
    },
    {
      "inputs": [
        {
          "internalType": "uint256",
          "name": "marketId",
          "type": "uint256"
        },
        {
          "internalType": "address",
          "name": "participant",
          "type": "address"
        }
      ],
      "name": "getUserClaimStatus",
      "outputs": [
        {
          "internalType": "bool",
          "name": "",
          "type": "bool"
        },
        {
          "internalType": "bool",
          "name": "",
          "type": "bool"
        },
        {
          "internalType": "bool",
          "name": "",
          "type": "bool"
        },
        {
          "internalType": "bool",
          "name": "",
          "type": "bool"
        },
        {
          "internalType": "uint256",
          "name": "",
          "type": "uint256"
        }
      ],
      "stateMutability": "view",
      "type": "function"
    },
    {
      "inputs": [
        {
          "internalType": "uint256",
          "name": "marketId",
          "type": "uint256"
        },
        {
          "internalType": "address",
          "name": "participant",
          "type": "address"
        }
      ],
      "name": "getUserLiquidityPoolShare",
      "outputs": [
        {
          "internalType": "uint256",
          "name": "",
          "type": "uint256"
        }
      ],
      "stateMutability": "view",
      "type": "function"
    },
    {
      "inputs": [
        {
          "internalType": "uint256",
          "name": "marketId",
          "type": "uint256"
        },
        {
          "internalType": "address",
          "name": "participant",
          "type": "address"
        }
      ],
      "name": "getUserClaimableFees",
      "outputs": [
        {
          "internalType": "uint256",
          "name": "",
          "type": "uint256"
        }
      ],
      "stateMutability": "view",
      "type": "function"
    },
    {
      "inputs": [],
      "name": "getMarkets",
      "outputs": [
        {
          "internalType": "uint256[]",
          "name": "",
          "type": "uint256[]"
        }
      ],
      "stateMutability": "view",
      "type": "function"
    },
    {
      "inputs": [
        {
          "internalType": "uint256",
          "name": "marketId",
          "type": "uint256"
        }
      ],
      "name": "getMarketData",
      "outputs": [
        {
          "internalType": "string",
          "name": "",
          "type": "string"
        },
        {
          "internalType": "enum PredictionMarket.MarketState",
          "name": "",
          "type": "uint8"
        },
        {
          "internalType": "uint256",
          "name": "",
          "type": "uint256"
        },
        {
          "internalType": "uint256",
          "name": "",
          "type": "uint256"
        },
        {
          "internalType": "uint256",
          "name": "",
          "type": "uint256"
        },
        {
          "internalType": "uint256",
          "name": "",
          "type": "uint256"
        },
        {
          "internalType": "int256",
          "name": "",
          "type": "int256"
        }
      ],
      "stateMutability": "view",
      "type": "function"
    },
    {
      "inputs": [
        {
          "internalType": "uint256",
          "name": "marketId",
          "type": "uint256"
        }
      ],
      "name": "getMarketAltData",
      "outputs": [
        {
          "internalType": "uint256",
          "name": "",
          "type": "uint256"
        },
        {
          "internalType": "bytes32",
          "name": "",
          "type": "bytes32"
        },
        {
          "internalType": "uint256",
          "name": "",
          "type": "uint256"
        }
      ],
      "stateMutability": "view",
      "type": "function"
    },
    {
      "inputs": [
        {
          "internalType": "uint256",
          "name": "marketId",
          "type": "uint256"
        }
      ],
      "name": "getMarketQuestion",
      "outputs": [
        {
          "internalType": "bytes32",
          "name": "",
          "type": "bytes32"
        }
      ],
      "stateMutability": "view",
      "type": "function"
    },
    {
      "inputs": [
        {
          "internalType": "uint256",
          "name": "marketId",
          "type": "uint256"
        }
      ],
      "name": "getMarketPrices",
      "outputs": [
        {
          "internalType": "uint256",
          "name": "",
          "type": "uint256"
        },
        {
          "internalType": "uint256",
          "name": "",
          "type": "uint256"
        },
        {
          "internalType": "uint256",
          "name": "",
          "type": "uint256"
        }
      ],
      "stateMutability": "view",
      "type": "function"
    },
    {
      "inputs": [
        {
          "internalType": "uint256",
          "name": "marketId",
          "type": "uint256"
        }
      ],
      "name": "getMarketLiquidityPrice",
      "outputs": [
        {
          "internalType": "uint256",
          "name": "",
          "type": "uint256"
        }
      ],
      "stateMutability": "view",
      "type": "function"
    },
    {
      "inputs": [
        {
          "internalType": "uint256",
          "name": "marketId",
          "type": "uint256"
        }
      ],
      "name": "getMarketResolvedOutcome",
      "outputs": [
        {
          "internalType": "int256",
          "name": "",
          "type": "int256"
        }
      ],
      "stateMutability": "view",
      "type": "function"
    },
    {
      "inputs": [
        {
          "internalType": "uint256",
          "name": "marketId",
          "type": "uint256"
        }
      ],
      "name": "getMarketOutcomeIds",
      "outputs": [
        {
          "internalType": "uint256[]",
          "name": "",
          "type": "uint256[]"
        }
      ],
      "stateMutability": "view",
      "type": "function"
    },
    {
      "inputs": [
        {
          "internalType": "uint256",
          "name": "marketId",
          "type": "uint256"
        },
        {
          "internalType": "uint256",
          "name": "marketOutcomeId",
          "type": "uint256"
        }
      ],
      "name": "getMarketOutcomePrice",
      "outputs": [
        {
          "internalType": "uint256",
          "name": "",
          "type": "uint256"
        }
      ],
      "stateMutability": "view",
      "type": "function"
    },
    {
      "inputs": [
        {
          "internalType": "uint256",
          "name": "marketId",
          "type": "uint256"
        },
        {
          "internalType": "uint256",
          "name": "marketOutcomeId",
          "type": "uint256"
        }
      ],
      "name": "getMarketOutcomeData",
      "outputs": [
        {
          "internalType": "string",
          "name": "",
          "type": "string"
        },
        {
          "internalType": "uint256",
          "name": "",
          "type": "uint256"
        },
        {
          "internalType": "uint256",
          "name": "",
          "type": "uint256"
        },
        {
          "internalType": "uint256",
          "name": "",
          "type": "uint256"
        }
      ],
      "stateMutability": "view",
      "type": "function"
    }
  ],
  "bytecode": "0x608060405234801561001057600080fd5b5061353e806100206000396000f3fe60806040526004361061019f5760003560e01c80631d7920aa146101a457806328747a80146101dc5780632bd81c2a146102095780632c2aa24e1461021c57806331877a381461024d5780633d41a26b1461027a5780633fe45e3b1461028f5780634397c4ce146102a457806351c6590a146102c45780635e648eff146102d9578063677bd9ff146102f957806369fe0e2d14610319578063715018a6146103395780637b34e6e01461034e57806385b91d8e146103705780638c7adc15146103905780638cd41552146103a55780638da5cb5b146103c55780639d7de6b3146103da578063aa22a02e146103ed578063ac68a7481461040d578063b31eb89514610420578063bf45572114610440578063bfacba3d14610460578063c2ee3a0814610493578063c8f70d01146104a8578063d3c9727c146104c8578063d6febde8146104db578063ddca3f43146104ee578063e1e966dc14610503578063ec2c901614610516578063ede2e06e1461052b578063efce43131461054b578063f2fde38b1461057b578063fdff80851461059b578063ffce3d5e146105bb575b600080fd5b3480156101b057600080fd5b506101c46101bf366004612c33565b6105db565b6040516101d3939291906133e5565b60405180910390f35b3480156101e857600080fd5b506101fc6101f7366004612c33565b6105fa565b6040516101d39190612df7565b6101fc610217366004612b94565b610855565b34801561022857600080fd5b5061023c610237366004612c4b565b6108d0565b6040516101d3959493929190612dd0565b34801561025957600080fd5b5061026d610268366004612c33565b6109a0565b6040516101d39190612d8c565b34801561028657600080fd5b506101fc610a09565b34801561029b57600080fd5b506101fc610a0f565b3480156102b057600080fd5b506101fc6102bf366004612c33565b610a15565b6102d76102d2366004612c33565b610a2a565b005b3480156102e557600080fd5b506102d76102f4366004612c33565b610d30565b34801561030557600080fd5b506102d7610314366004612c33565b610ee6565b34801561032557600080fd5b506102d7610334366004612c33565b61103a565b34801561034557600080fd5b506102d761107e565b34801561035a57600080fd5b506103636110f5565b6040516101d39190612d78565b34801561037c57600080fd5b506101c461038b366004612c33565b611104565b34801561039c57600080fd5b506101fc611135565b3480156103b157600080fd5b506101fc6103c0366004612c77565b61113b565b3480156103d157600080fd5b50610363611235565b6102d76103e8366004612c77565b611245565b3480156103f957600080fd5b506101fc610408366004612c4b565b6115bc565b6102d761041b366004612c33565b61160f565b34801561042c57600080fd5b506101c461043b366004612c4b565b6116d8565b34801561044c57600080fd5b506101fc61045b366004612c33565b611736565b34801561046c57600080fd5b5061048061047b366004612c33565b611773565b6040516101d39796959493929190612e79565b34801561049f57600080fd5b506101fc611861565b3480156104b457600080fd5b506101fc6104c3366004612c33565b61186d565b6102d76104d6366004612c98565b61190e565b6102d76104e9366004612c77565b611c68565b3480156104fa57600080fd5b506101fc611c79565b6101fc610511366004612ac3565b611c7f565b34801561052257600080fd5b5061026d611f87565b34801561053757600080fd5b506102d7610546366004612c33565b611fdf565b34801561055757600080fd5b5061056b610566366004612c77565b612023565b6040516101d39493929190612ec8565b34801561058757600080fd5b506102d7610596366004612a90565b612101565b3480156105a757600080fd5b506101fc6105b6366004612c4b565b6121b0565b3480156105c757600080fd5b506102d76105d6366004612a90565b612232565b6000908152606660205260409020600b810154600a9091015490918190565b600081815260666020526040812060010154829042118015610639575060008181526066602052604081206007015460ff16600281111561063757fe5b145b156106475761064781612293565b8260018060008381526066602052604090206007015460ff16600281111561066b57fe5b1461067557600080fd5b600085815260666020526040808220606954600a820154925163684e62bf60e11b8152899492936001600160a01b039092169291839163d09cc57e916106bd91600401612df7565b60206040518083038186803b1580156106d557600080fd5b505afa1580156106e9573d6000803e3d6000fd5b505050506040513d601f19601f8201168201806040525061070d9190810190612aab565b6000818152600f8501602052604090819020600986018390559051919250908a9033907f67a6457c8912ae1b7a9fbdfa311cbd016ba606b548bf06bc80bc751072d91bbc9061075f9086904290612e00565b60405180910390a3818a6000805160206134e9833981519152670de0b6b3a764000042604051610790929190612e00565b60405180910390a381156107a55760006107a8565b60015b60ff168a6000805160206134e98339815191526000426040516107cc929190612e00565b60405180910390a360038401546004820154600091610809916107fd90670de0b6b3a764000063ffffffff6122e316565b9063ffffffff61231d16565b90508a60008051602061348983398151915286600301548342604051610831939291906133e5565b60405180910390a25050505060090154945061084c81612293565b50505050919050565b60408051600280825260608281019093526000929190816020015b6060815260200190600190039081610870579050509050838160008151811061089557fe5b602002602001018190525082816001815181106108ae57fe5b60200260200101819052506108c587878784611c7f565b979650505050505050565b600082815260666020526040812081908190819081906002600782015460ff1660028111156108fb57fe5b14610920576000806000806109108c8c6121b0565b9550955095509550955050610996565b60098101546000908152600f8201602090815260408083206001600160a01b038b16845260058082018452828520546006808401865284872054928801865284872054908801909552929094205490939115159260ff9283169290151591166109898d8d6121b0565b9650965096509650965050505b9295509295909350565b600081815260666020908152604091829020600e8101805484518185028101850190955280855260609492938301828280156109fb57602002820191906000526020600020905b8154815260200190600101908083116109e7575b50505050509150505b919050565b60001981565b606a5481565b6000908152606660205260409020600a015490565b600081815260666020526040902060010154819042118015610a69575060008181526066602052604081206007015460ff166002811115610a6757fe5b145b15610a7757610a7781612293565b8160008060008381526066602052604090206007015460ff166002811115610a9b57fe5b14610aa557600080fd5b600084815260666020526040902034610ad95760405162461bcd60e51b8152600401610ad090613178565b60405180910390fd5b600019600080805b600e850154811015610b4357600085600e018281548110610afe57fe5b6000918252602080832090910154808352600f89019091526040909120600481015491925090861115610b3957806003016001015495508194505b5050600101610ae1565b506003840154600090610b60906107fd863463ffffffff6122e316565b9050610b6e8982600261234f565b506003850154610b84908263ffffffff61243f16565b6003860155336000908152600586016020526040902054610bab908263ffffffff61243f16565b33600090815260058701602052604090205534811415610c81576002850154610bda908263ffffffff61243f16565b600286015560005b600e860154811015610c7b57600086600e018281548110610bff57fe5b6000918252602080832090910154808352600f8a019091526040909120600481015491925090610c35908563ffffffff61243f16565b60048201556003810154610c4f908563ffffffff61243f16565b60038201556004880154610c69908563ffffffff61243f16565b60048901555034935050600101610be2565b50610cb6565b610c8e8984346002612464565b610cb3670de0b6b3a76400006107fd610ca68c61186d565b849063ffffffff6122e316565b91505b886002336001600160a01b03166000805160206134c98339815191526000858742604051610ce79493929190612e0e565b60405180910390a4886000805160206134898339815191528660030154610d0d8c61186d565b42604051610d1d939291906133e5565b60405180910390a2505050505050505050565b8060028060008381526066602052604090206007015460ff166002811115610d5457fe5b14610d5e57600080fd5b600083815260666020908152604080832060098101548452600f8101909252909120610d898561160f565b336000908152600583016020526040902054610db75760405162461bcd60e51b8152600401610ad09061339b565b33600090815260068301602052604090205460ff1615610de95760405162461bcd60e51b8152600401610ad0906131bb565b6000610e15670de0b6b3a76400006107fd610e0489336115bc565b60048601549063ffffffff6122e316565b90508083600201541015610e3b5760405162461bcd60e51b8152600401610ad090613046565b6002830154610e50908263ffffffff6127d616565b60028401553360009081526006840160205260409020805460ff191660011790558560053360008181526005870160205260408082205490516000805160206134c983398151915292610ea892909188904290612e0e565b60405180910390a4604051339082156108fc029083906000818181858888f19350505050158015610edd573d6000803e3d6000fd5b50505050505050565b8060028060008381526066602052604090206007015460ff166002811115610f0a57fe5b14610f1457600080fd5b600083815260666020908152604080832060098101548452600f8101835281842033855260058101909352922054610f5e5760405162461bcd60e51b8152600401610ad090613209565b33600090815260068201602052604090205460ff1615610f905760405162461bcd60e51b8152600401610ad0906132d0565b3360009081526005820160205260409020546002830154811115610fc65760405162461bcd60e51b8152600401610ad090613046565b6002830154610fdb908263ffffffff6127d616565b60028401553360009081526006830160205260409020805460ff1916600117905585600460098501543360008181526005870160205260409081902054905191926000805160206134c983398151915292610ea8929088904290612e0e565b6110426127fe565b6001600160a01b0316611053611235565b6001600160a01b0316146110795760405162461bcd60e51b8152600401610ad09061329b565b606855565b6110866127fe565b6001600160a01b0316611097611235565b6001600160a01b0316146110bd5760405162461bcd60e51b8152600401610ad09061329b565b6033546040516000916001600160a01b0316906000805160206134a9833981519152908390a3603380546001600160a01b0319169055565b6069546001600160a01b031681565b60008060006111128461186d565b61111d85600061113b565b61112886600161113b565b9250925092509193909250565b60675481565b6000828152606660209081526040808320848452600f810190925282206002600783015460ff16600281111561116d57fe5b1415611198576009820154841461118557600061118f565b670de0b6b3a76400005b9250505061122f565b6004810154600382015410156111c05760405162461bcd60e51b8152600401610ad090612fb3565b6004808201549083015410156111e85760405162461bcd60e51b8152600401610ad090613325565b60048082015490830154600091611205919063ffffffff6127d616565b6004840154909150611229906107fd83670de0b6b3a764000063ffffffff6122e316565b93505050505b92915050565b6033546001600160a01b03165b90565b600082815260666020526040902060010154829042118015611284575060008181526066602052604081206007015460ff16600281111561128257fe5b145b156112925761129281612293565b8260008060008381526066602052604090206007015460ff1660028111156112b657fe5b146112c057600080fd5b600085815260666020908152604080832033845260058101909252909120548511156112eb57600080fd5b60006112f68761160f565b336000908152600583016020526040902054611318908763ffffffff6127d616565b33600090815260058401602052604081209190915560001990805b600e85015481101561139557600085600e01828154811061135057fe5b6000918252602080832090910154808352600f8901909152604090912060048101549192509085111561138b57806003016001015494508193505b5050600101611333565b5060038401546000906113b2906107fd858c63ffffffff6122e316565b90506113c08a8a600361234f565b508881141561149f5760028501546113de908263ffffffff6127d616565b600286015560038501546113f8908263ffffffff6127d616565b600386015560005b600e86015481101561149657600086600e01828154811061141d57fe5b6000918252602080832090910154808352600f8a019091526040909120600481015491925090611453908563ffffffff6127d616565b6004820155600381015461146d908563ffffffff6127d616565b60038201556004880154611487908563ffffffff6127d616565b60048901555050600101611400565b50889350611513565b600082156114ae5760006114b1565b60015b60ff166000818152600f8801602052604090206004015460038801549192506114e4916107fd908d63ffffffff6122e316565b60038701549095506114fc908b63ffffffff6127d616565b86600301819055506115118b82876003612464565b505b604051339085156108fc029086906000818181858888f19350505050158015611540573d6000803e3d6000fd5b50896003336001600160a01b03166000805160206134c983398151915260008d89426040516115729493929190612e0e565b60405180910390a48960008051602061348983398151915286600301546115988d61186d565b426040516115a8939291906133e5565b60405180910390a250505050505050505050565b600082815260666020908152604080832060038101546001600160a01b038616855260058201909352908320549091611607916107fd90670de0b6b3a764000063ffffffff6122e316565b949350505050565b60008181526066602052604081209061162883336121b0565b9050801561169457336000908152600d83016020526040902054611652908263ffffffff61243f16565b336000818152600d85016020526040808220939093559151909183156108fc02918491818181858888f19350505050158015611692573d6000803e3d6000fd5b505b8260063360008181526005860160205260408082205490516000805160206134c9833981519152926116cb92909188904290612e0e565b60405180910390a4505050565b60008281526066602090815260408083206001600160a01b0385168085526005808301855283862054868052600f90930180865284872083885282018652848720546001885290865284872092875291019093529220549250925092565b60008181526066602052604081206002600782015460ff16600281111561175957fe5b1461176957600019915050610a04565b6009015492915050565b6000818152606660205260408120600781015460018201546003830154600284015460048501546060969586958695869586958695859460ff16939291906117ba8f611736565b8654604080516020601f600260001961010060018816150201909516949094049384018190048102820181019092528281529189918301828280156118405780601f1061181557610100808354040283529160200191611840565b820191906000526020600020905b81548152906001019060200180831161182357829003601f168201915b50505050509650975097509750975097509750975050919395979092949650565b670de0b6b3a764000081565b60008181526066602052604081206002600782015460ff16600281111561189057fe5b14156118d957600381015460098201546000908152600f830160205260409020600401546118d191906107fd90670de0b6b3a764000063ffffffff6122e316565b915050610a04565b6004810154600e820154600383015461190792916107fd9190670de0b6b3a76400000263ffffffff6122e316565b9392505050565b60008381526066602052604090206001015483904211801561194d575060008181526066602052604081206007015460ff16600281111561194b57fe5b145b1561195b5761195b81612293565b8360008060008381526066602052604090206007015460ff16600281111561197f57fe5b1461198957600080fd5b6000868152606660209081526040808320888452600f81018352818420338552600581019093529220548611156119bf57600080fd5b60048101546003820154038611156119d657600080fd5b3360009081526005820160205260409020546119f8908763ffffffff6127d616565b3360009081526005830160205260409020556004810154611a1f908763ffffffff61243f16565b600480830191909155820154611a3b908763ffffffff61243f16565b6004808401829055820154600091611a589163ffffffff6127d616565b600e8401546003850154919250600091611a8e91611a7e910a600463ffffffff6122e316565b6002840a9063ffffffff61243f16565b6004840154909150611aab9082906002900a63ffffffff61243f16565b6004840154909150611ae590611ad890611acc85600263ffffffff6122e316565b9063ffffffff6122e316565b829063ffffffff6127d616565b9050611af081612802565b9050611b1c81611b1085600301600101548561243f90919063ffffffff16565b9063ffffffff6127d616565b9050611b2f81600263ffffffff61231d16565b905080471015611b3e57600080fd5b8084600201541015611b4f57600080fd5b60005b600e850154811015611bc5576000818152600f8601602052604090206004810154611b83908463ffffffff6127d616565b60048201556003810154611b9d908463ffffffff6127d616565b60038201556004860154611bb7908463ffffffff6127d616565b600487015550600101611b52565b506002840154611bdb908263ffffffff6127d616565b6002850155611bea8a82612853565b604051909150339082156108fc029083906000818181858888f19350505050158015611c1a573d6000803e3d6000fd5b50896001336001600160a01b03166000805160206134c98339815191528c8c8642604051611c4b9493929190612e0e565b60405180910390a4611c5c8a6128b9565b50505050505050505050565b611c758282346000612464565b5050565b60685481565b60675460658054600181019091557f8ff97419363ffd7000167f130ef7168fbea05faf9251824ca5043f113cc6a7c701819055600081815260666020526040812090919034611ce05760405162461bcd60e51b8152600401610ad090613178565b42861015611d005760405162461bcd60e51b8152600401610ad09061312e565b8351600214611d215760405162461bcd60e51b8152600401610ad090612ef7565b8651611d3390829060208a0190612979565b506001810186905560078101805460ff191690556008810180546001600160a01b0319166001600160a01b0387811691909117909155606854600b83015560001960098301556069548551911690606090611db7908a908890600090611d9557fe5b602002602001015188600181518110611daa57fe5b602002602001015161294a565b606a5460405163d4876b9f60e01b81529192506001600160a01b0384169163d4876b9f91611df69160029186918d91908f906000908190600401612e29565b602060405180830381600087803b158015611e1057600080fd5b505af1158015611e24573d6000803e3d6000fd5b505050506040513d601f19601f82011682018060405250611e489190810190612aab565b600a840155346002840181905560038401819055336000908152600585016020526040902054611e7d9163ffffffff61243f16565b3360009081526005850160205260408120919091555b8651811015611f2f57600e840180546001818101835560009283526020808420909201849055838352600f870190915260409091208681559081018290558751889083908110611edf57fe5b6020026020010151816002019080519060200190611efe929190612979565b5034600480830182905560038301829055860154611f219163ffffffff61243f16565b600486015550600101611e93565b50611f39846128b9565b836002336001600160a01b03166000805160206134c98339815191526000343442604051611f6a9493929190612e0e565b60405180910390a450506067805460010190555095945050505050565b60606065805480602002602001604051908101604052809291908181526020018280548015611fd557602002820191906000526020600020905b815481526020019060010190808311611fc1575b5050505050905090565b611fe76127fe565b6001600160a01b0316611ff8611235565b6001600160a01b03161461201e5760405162461bcd60e51b8152600401610ad09061329b565b606a55565b6000828152606660209081526040808320848452600f8101909252822060609291829182919060028101612057898961113b565b600483015460038401548354604080516020601f600260001961010060018816150201909516949094049384018190048102820181019092528281529186918301828280156120e75780601f106120bc576101008083540402835291602001916120e7565b820191906000526020600020905b8154815290600101906020018083116120ca57829003601f168201915b505050505093509550955095509550505092959194509250565b6121096127fe565b6001600160a01b031661211a611235565b6001600160a01b0316146121405760405162461bcd60e51b8152600401610ad09061329b565b6001600160a01b0381166121665760405162461bcd60e51b8152600401610ad090612f38565b6033546040516001600160a01b038084169216906000805160206134a983398151915290600090a3603380546001600160a01b0319166001600160a01b0392909216919091179055565b600082815260666020908152604080832060038101546001600160a01b03861685526005820190935290832054600c820154919284926121fa926107fd919063ffffffff6122e316565b6001600160a01b0385166000908152600d8401602052604090205490915061222990829063ffffffff6127d616565b95945050505050565b61223a6127fe565b6001600160a01b031661224b611235565b6001600160a01b0316146122715760405162461bcd60e51b8152600401610ad09061329b565b606980546001600160a01b0319166001600160a01b0392909216919091179055565b6000818152606660205260409020600781015460ff1660028111156122b457fe5b60010160028111156122c257fe5b60078201805460ff191660018360028111156122da57fe5b02179055505050565b6000826122f25750600061122f565b828202828482816122ff57fe5b04146119075760405162461bcd60e51b8152600401610ad09061325a565b600080821161233e5760405162461bcd60e51b8152600401610ad090613089565b81838161234757fe5b049392505050565b60008381526066602052604081206003810154600c820154839161237e916107fd90889063ffffffff6122e316565b9050600284600681111561238e57fe5b14156123e757600c8201546123a9908263ffffffff61243f16565b600c830155336000908152600d830160205260409020546123d0908263ffffffff61243f16565b336000908152600d84016020526040902055612436565b600c8201546123fc908263ffffffff6127d616565b600c830155336000908152600d83016020526040902054612423908263ffffffff6127d616565b336000908152600d840160205260409020555b50509392505050565b6000828201838110156119075760405162461bcd60e51b8152600401610ad090612f7e565b6000848152606660205260409020600101548490421180156124a3575060008181526066602052604081206007015460ff1660028111156124a157fe5b145b156124b1576124b181612293565b8460008060008381526066602052604090206007015460ff1660028111156124d557fe5b146124df57600080fd5b6000878152606660205260408120908560068111156124fa57fe5b141561250d5761250a8887612853565b95505b6000878152600f820160205260409020600386600681111561252b57fe5b1461254a576002820154612545908863ffffffff61243f16565b61255f565b600282015461255f908863ffffffff6127d616565b6002830155600160005b600e84015481101561267b576000818152600f850160205260409020600389600681111561259357fe5b146125b25760048101546125ad908b63ffffffff61243f16565b6125c7565b60048101546125c7908b63ffffffff6127d616565b600482015560038960068111156125da57fe5b146125f95760038101546125f4908b63ffffffff61243f16565b61260e565b600381015461260e908b63ffffffff6127d616565b6003820155600481015461262990849063ffffffff6122e316565b9250600389600681111561263957fe5b14612658576004850154612653908b63ffffffff61243f16565b61266d565b600485015461266d908b63ffffffff6127d616565b600486015550600101612569565b50600e830154600384015460048401546000926126a69285926107fd9290910a63ffffffff6122e316565b6004840154039050806126cb5760405162461bcd60e51b8152600401610ad09061310a565b60048301548111156126ef5760405162461bcd60e51b8152600401610ad0906130bd565b336000908152600584016020526040902054612711908263ffffffff61243f16565b3360009081526005850160205260409020556004830154612738908263ffffffff6127d616565b600480850191909155840154612754908263ffffffff6127d616565b6004850155600088600681111561276757fe5b1461278857612785670de0b6b3a76400006107fd610ca68e8e61113b565b98505b8a6000336001600160a01b03166000805160206134c98339815191528d858e426040516127b89493929190612e0e565b60405180910390a46127c98b6128b9565b5050505050505050505050565b6000828211156127f85760405162461bcd60e51b8152600401610ad09061300f565b50900390565b3390565b60006003821115612845575080600160028204015b8181101561283f5780915060028182858161282e57fe5b04018161283757fe5b049050612817565b50610a04565b8115610a0457506001919050565b6000828152606660205260408120600b8101548290670de0b6b3a76400009061288390869063ffffffff6122e316565b8161288a57fe5b600c84015491900491506128a4908263ffffffff61243f16565b600c830155612229848263ffffffff6127d616565b6000818152606660205260408120905b600e82015481101561290f5780836000805160206134e98339815191526128f0868561113b565b426040516128ff929190612e00565b60405180910390a36001016128c9565b5081600080516020613489833981519152826003015461292e8561186d565b4260405161293e939291906133e5565b60405180910390a25050565b606083838360405160200161296193929190612cef565b60405160208183030381529060405290509392505050565b828054600181600116156101000203166002900490600052602060002090601f016020900481019282601f106129ba57805160ff19168380011785556129e7565b828001600101855582156129e7579182015b828111156129e75782518255916020019190600101906129cc565b506129f39291506129f7565b5090565b61124291905b808211156129f357600081556001016129fd565b80356001600160a01b038116811461122f57600080fd5b600082601f830112612a38578081fd5b81356001600160401b03811115612a4d578182fd5b612a60601f8201601f19166020016133fb565b9150808252836020828501011115612a7757600080fd5b8060208401602084013760009082016020015292915050565b600060208284031215612aa1578081fd5b6119078383612a11565b600060208284031215612abc578081fd5b5051919050565b60008060008060808587031215612ad8578283fd5b84356001600160401b0380821115612aee578485fd5b612afa88838901612a28565b9550602091508187013594506040870135612b1481613470565b9350606087013581811115612b27578384fd5b87019050601f81018813612b39578283fd5b8035612b4c612b4782613421565b6133fb565b81815283810190838501865b84811015612b8157612b6f8d888435890101612a28565b84529286019290860190600101612b58565b5050809550505050505092959194509250565b600080600080600060a08688031215612bab578081fd5b85356001600160401b0380821115612bc1578283fd5b612bcd89838a01612a28565b965060208801359550612be38960408a01612a11565b94506060880135915080821115612bf8578283fd5b612c0489838a01612a28565b93506080880135915080821115612c19578283fd5b50612c2688828901612a28565b9150509295509295909350565b600060208284031215612c44578081fd5b5035919050565b60008060408385031215612c5d578182fd5b82359150612c6e8460208501612a11565b90509250929050565b60008060408385031215612c89578182fd5b50508035926020909101359150565b600080600060608486031215612cac578283fd5b505081359360208301359350604090920135919050565b60008151808452612cdb816020860160208601613440565b601f01601f19169290920160200192915050565b60008451612d01818460208901613440565b62e2909f60e81b908301908152601160f91b6003820152845190612d2c826004830160208901613440565b6211161160e91b600492820192830152845191612d50836007830160208901613440565b6c1171484fb6b4b9b1f1484fb2b760991b920160078101929092525060140195945050505050565b6001600160a01b0391909116815260200190565b6020808252825182820181905260009190848201906040850190845b81811015612dc457835183529284019291840191600101612da8565b50909695505050505050565b94151585529215156020850152901515604084015215156060830152608082015260a00190565b90815260200190565b918252602082015260400190565b93845260208401929092526040830152606082015260800190565b600088825260e06020830152612e4260e0830189612cc3565b6001600160a01b039790971660408301525063ffffffff948516606082015292909316608083015260a082015260c0015292915050565b600060e08252612e8c60e083018a612cc3565b905060038810612e9857fe5b8760208301528660408301528560608301528460808301528360a08301528260c083015298975050505050505050565b600060808252612edb6080830187612cc3565b6020830195909552506040810192909252606090910152919050565b60208082526021908201527f4e756d626572206d61726b6574206f7574636f6d652068617320746f206265206040820152601960f91b606082015260800190565b60208082526026908201527f4f776e61626c653a206e6577206f776e657220697320746865207a65726f206160408201526564647265737360d01b606082015260800190565b6020808252601b908201527a536166654d6174683a206164646974696f6e206f766572666c6f7760281b604082015260600190565b6020808252603c908201527f546f74616c207368617265732068617320746f20626520657175616c206f722060408201527b686967686572207468616e20617661696c61626c652073686172657360201b606082015260800190565b6020808252601e908201527f536166654d6174683a207375627472616374696f6e206f766572666c6f770000604082015260600190565b60208082526023908201527f4d61726b657420646f6573206e6f74206861766520656e6f7567682062616c616040820152626e636560e81b606082015260800190565b6020808252601a9082015279536166654d6174683a206469766973696f6e206279207a65726f60301b604082015260600190565b6020808252602d908201527f43616e277420627579206d6f726520736861726573207468616e20746865206f60408201526c6e657320617661696c61626c6560981b606082015260800190565b6020808252600a9082015269043616e277420626520360b41b604082015260600190565b6020808252602a908201527f4d61726b65742068617320746f20636c6f7365206166746572207468652063756040820152697272656e74206461746560b01b606082015260800190565b60208082526023908201527f546865207374616b652068617320746f2062652067726561746572207468616e60408201526210181760e91b606082015260800190565b6020808252602e908201527f5061727469636970616e7420616c726561647920636c61696d6564206c69717560408201526d69646974792077696e6e696e677360901b606082015260800190565b60208082526031908201527f5061727469636970616e7420646f6573206e6f7420686f6c64207265736f6c766040820152706564206f7574636f6d652073686172657360781b606082015260800190565b60208082526021908201527f536166654d6174683a206d756c7469706c69636174696f6e206f766572666c6f6040820152607760f81b606082015260800190565b6020808252818101527f4f776e61626c653a2063616c6c6572206973206e6f7420746865206f776e6572604082015260600190565b60208082526035908201527f5061727469636970616e7420616c726561647920636c61696d6564207265736f6040820152746c766564206f7574636f6d652077696e6e696e677360581b606082015260800190565b60208082526050908201527f546f74616c202320617661696c61626c65207368617265732068617320746f2060408201527f626520657175616c206f7220686967686572207468616e206f7574636f6d652060608201526f617661696c61626c652073686172657360801b608082015260a00190565b6020808252602a908201527f5061727469636970616e7420646f6573206e6f7420686f6c64206c69717569646040820152696974792073686172657360b01b606082015260800190565b9283526020830191909152604082015260600190565b6040518181016001600160401b038111828210171561341957600080fd5b604052919050565b60006001600160401b03821115613436578081fd5b5060209081020190565b60005b8381101561345b578181015183820152602001613443565b8381111561346a576000848401525b50505050565b6001600160a01b038116811461348557600080fd5b5056fe1eca98f266e5348ae38d5d057a4d8e451e76672f69ac6ba4b0e3b31ea9c7eb2b8be0079c531659141344cd1fd0a4f28419497f9722a3daafe3b4186f6b6457e0f234ce8a0f255434ef7d62a699a746ee45ac4452531081e609f1556d27faf12c8270f0a0534b13b7f92d1dbd58aa75c5207b40c55fefa7a17110c6136ad7270ba26469706673582212206afb8ae6dc9daa623e5109a193388a9f148e38529f72d822a517922218f01b4e64736f6c63430006020033",
  "source": "pragma solidity ^0.6.0;\npragma experimental ABIEncoderV2;\n\nimport \"./RealitioERC20.sol\";\n\n// openzeppelin imports\nimport \"@openzeppelin/contracts/math/SafeMath.sol\";\nimport \"@openzeppelin/contracts-upgradeable/access/OwnableUpgradeable.sol\";\n\nlibrary PMHelpers {\n  // fetched from uniswap: https://github.com/Uniswap/uniswap-v2-core/blob/v1.0.1/contracts/libraries/Math.sol\n  // babylonian method (https://en.wikipedia.org/wiki/Methods_of_computing_square_roots#Babylonian_method)\n  function sqrt(uint256 y) internal pure returns (uint256 z) {\n    if (y > 3) {\n      z = y;\n      uint256 x = y / 2 + 1;\n      while (x < z) {\n        z = x;\n        x = (y / x + x) / 2;\n      }\n    } else if (y != 0) {\n      z = 1;\n    }\n  }\n\n  // formats question for realitio\n  function formatQuestion(\n    string memory name,\n    string memory outcome1,\n    string memory outcome2\n  ) internal pure returns (string memory) {\n    return string(abi.encodePacked(name, \"\", '\"', outcome1, '\",\"', outcome2, '\"miscen'));\n  }\n}\n\n/// @title Market Contract Factory\ncontract PredictionMarket is Initializable, OwnableUpgradeable {\n  using SafeMath for uint256;\n\n  // ------ Events ------\n\n  event ParticipantAction(\n    address indexed participant,\n    MarketAction indexed action,\n    uint256 indexed marketId,\n    uint256 outcomeId,\n    uint256 shares,\n    uint256 value,\n    uint256 timestamp\n  );\n\n  event MarketOutcomePrice(uint256 indexed marketId, uint256 indexed outcomeId, uint256 value, uint256 timestamp);\n\n  event MarketLiquidity(\n    uint256 indexed marketId,\n    uint256 value, // total liquidity (ETH)\n    uint256 price, // value of 1 liquidity share; max: 1 ETH (50-50 situation)\n    uint256 timestamp\n  );\n\n  event MarketResolved(address indexed oracle, uint256 indexed marketId, uint256 outcomeId, uint256 timestamp);\n\n  // ------ Events End ------\n\n  uint256 public constant MAX_UINT_256 = 115792089237316195423570985008687907853269984665640564039457584007913129639935;\n\n  uint256 public constant ONE = 10**18;\n\n  enum MarketState {\n    open,\n    closed,\n    resolved\n  }\n  enum MarketAction {\n    buy,\n    sell,\n    addLiquidity,\n    removeLiquidity,\n    claimWinnings,\n    claimLiquidity,\n    claimFees\n  }\n\n  struct Market {\n    // market details\n    string name;\n    uint256 closedDateTime;\n    uint256 balance; // total stake (ETH)\n    uint256 liquidity; // stake held (ETH)\n    uint256 sharesAvailable; // shares held (all outcomes)\n    mapping(address => uint256) liquidityShares;\n    mapping(address => bool) liquidityClaims; // wether participant has claimed liquidity winnings\n    MarketState state; // resolution variables\n    MarketResolution resolution; // fees\n    MarketFees fees;\n    // market outcomes\n    uint256[] outcomeIds;\n    mapping(uint256 => MarketOutcome) outcomes;\n  }\n\n  struct MarketFees {\n    uint256 value; // fee % taken from every transaction\n    uint256 poolWeight; // internal var used to ensure pro-rate fee distribution\n    mapping(address => uint256) claimed;\n  }\n\n  struct MarketResolution {\n    address oracle; // TODO remove: deprecated;\n    bool resolved;\n    uint256 outcomeId;\n    bytes32 questionId; // realitio questionId\n  }\n\n  struct MarketOutcome {\n    uint256 marketId;\n    uint256 id;\n    string name;\n    Shares shares;\n  }\n\n  struct Shares {\n    uint256 total; // number of shares\n    uint256 available; // available shares\n    mapping(address => uint256) holders;\n    mapping(address => bool) claims; // wether participant has claimed winnings\n  }\n\n  uint256[] marketIds;\n  mapping(uint256 => Market) markets;\n  uint256 public marketIndex;\n\n  // governance\n  uint256 public fee; // fee % taken from every transaction, can be updated by contract owner\n  // realitio configs\n  address public realitioAddress;\n  uint256 public realitioTimeout;\n\n  // ------ Modifiers ------\n\n  modifier isMarket(uint256 marketId) {\n    require(marketId < marketIndex);\n    _;\n  }\n\n  modifier timeTransitions(uint256 marketId) {\n    if (now > markets[marketId].closedDateTime && markets[marketId].state == MarketState.open) {\n      nextState(marketId);\n    }\n    _;\n  }\n\n  modifier atState(uint256 marketId, MarketState state) {\n    require(markets[marketId].state == state);\n    _;\n  }\n\n  modifier notAtState(uint256 marketId, MarketState state) {\n    require(markets[marketId].state != state);\n    _;\n  }\n\n  modifier transitionNext(uint256 marketId) {\n    _;\n    nextState(marketId);\n  }\n\n  // ------ Modifiers End ------\n\n  // Initializer function (replaces constructor)\n  // function initialize() public initializer {\n  //   __Ownable_init();\n  // }\n\n  // ------ Core Functions ------\n\n  // TODO fix: temp solution, while fixing outcomes[] arg\n  function createMarket(\n    string memory name,\n    uint256 closesAt,\n    address oracle,\n    string memory outcome1Name,\n    string memory outcome2Name\n  ) public payable returns (uint256) {\n    string[] memory outcomes = new string[](2);\n    outcomes[0] = outcome1Name;\n    outcomes[1] = outcome2Name;\n\n    return createMarket(name, closesAt, oracle, outcomes);\n  }\n\n  /// Create a new Market contract\n  /// @dev The new Market contract is then saved in the array of this contract for future reference.\n  /// @param name - Name of the market\n  /// @param closesAt - The duration of the market `open` period\n  /// @param oracle - oracle address\n  function createMarket(\n    string memory name,\n    uint256 closesAt,\n    address oracle,\n    string[] memory outcomes\n  ) public payable returns (uint256) {\n    uint256 marketId = marketIndex;\n    marketIds.push(marketId);\n\n    Market storage market = markets[marketId];\n\n    require(msg.value > 0, \"The stake has to be greater than 0.\");\n    require(closesAt >= now, \"Market has to close after the current date\");\n    require(oracle == address(oracle), \"Invalid oracle address\");\n    // starting with secondary markets\n    require(outcomes.length == 2, \"Number market outcome has to be 2\");\n\n    market.name = name;\n    market.closedDateTime = closesAt;\n    market.state = MarketState.open;\n    market.resolution.oracle = oracle;\n    market.fees.value = fee;\n    // setting intial value to an integer that does not map to any outcomeId\n    market.resolution.outcomeId = MAX_UINT_256;\n\n    // creating question in realitio\n    RealitioERC20 realitio = RealitioERC20(realitioAddress);\n    string memory question = PMHelpers.formatQuestion(name, outcomes[0], outcomes[1]);\n\n    market.resolution.questionId = realitio.askQuestionERC20(\n      2,\n      question,\n      oracle,\n      uint32(realitioTimeout),\n      uint32(closesAt),\n      0,\n      0\n    );\n\n    market.balance = msg.value;\n    market.liquidity = msg.value;\n\n    // TODO review: only valid for 50-50 start\n    market.liquidityShares[msg.sender] = market.liquidityShares[msg.sender].add(msg.value);\n\n    // creating market outcomes\n    for (uint256 i = 0; i < outcomes.length; i++) {\n      market.outcomeIds.push(i);\n      MarketOutcome storage outcome = market.outcomes[i];\n\n      outcome.marketId = marketId;\n      outcome.id = i;\n      outcome.name = outcomes[i];\n\n      // TODO review: only valid for 50-50 start\n      // price starts at 0.5 ETH\n      outcome.shares.available = msg.value;\n      outcome.shares.total = msg.value;\n\n      market.sharesAvailable = market.sharesAvailable.add(msg.value);\n    }\n\n    // emiting initial price events\n    emitMarketOutcomePriceEvents(marketId);\n    emit ParticipantAction(msg.sender, MarketAction.addLiquidity, marketId, 0, msg.value, msg.value, now);\n\n    // incrementing market array index\n    marketIndex = marketIndex + 1;\n\n    return marketId;\n  }\n\n  function buy(uint256 marketId, uint256 outcomeId) external payable {\n    buy(marketId, outcomeId, msg.value, MarketAction.buy);\n  }\n\n  /// Buy shares of a market outcome\n  function buy(\n    uint256 marketId,\n    uint256 outcomeId,\n    uint256 value,\n    MarketAction parentAction\n  ) internal timeTransitions(marketId) atState(marketId, MarketState.open) {\n    Market storage market = markets[marketId];\n\n    if (parentAction == MarketAction.buy) {\n      // subtracting fee from transaction value\n      value = addTransactionToFeesPool(marketId, value);\n    }\n\n    MarketOutcome storage outcome = market.outcomes[outcomeId];\n    market.balance = parentAction == MarketAction.removeLiquidity\n      ? market.balance.sub(value)\n      : market.balance.add(value);\n\n    uint256 newProductBalance = 1;\n\n    // Funding market shares with received ETH\n    for (uint256 i = 0; i < market.outcomeIds.length; i++) {\n      MarketOutcome storage marketOutcome = market.outcomes[i];\n\n      marketOutcome.shares.available = parentAction == MarketAction.removeLiquidity\n        ? marketOutcome.shares.available.sub(value)\n        : marketOutcome.shares.available.add(value);\n      marketOutcome.shares.total = parentAction == MarketAction.removeLiquidity\n        ? marketOutcome.shares.total.sub(value)\n        : marketOutcome.shares.total.add(value);\n\n      newProductBalance = newProductBalance.mul(marketOutcome.shares.available);\n\n      // only adding to market total shares, the available remains\n      market.sharesAvailable = parentAction == MarketAction.removeLiquidity\n        ? market.sharesAvailable.sub(value)\n        : market.sharesAvailable.add(value);\n    }\n\n    // productBalance = market.liquidity**(market.outcomeIds.length);\n    // newSharesAvailable = outcome.shares.available.mul(productBalance).div(newProductBalance);\n    uint256 shares = outcome.shares.available -\n      outcome.shares.available.mul(market.liquidity**(market.outcomeIds.length)).div(newProductBalance);\n\n    require(shares > 0, \"Can't be 0\");\n    require(outcome.shares.available >= shares, \"Can't buy more shares than the ones available\");\n\n    outcome.shares.holders[msg.sender] = outcome.shares.holders[msg.sender].add(shares);\n\n    outcome.shares.available = outcome.shares.available.sub(shares);\n    market.sharesAvailable = market.sharesAvailable.sub(shares);\n\n    // transaction value is calculated differently if parent action is not buy\n    if (parentAction != MarketAction.buy) {\n      value = shares.mul(getMarketOutcomePrice(marketId, outcomeId)).div(ONE);\n    }\n\n    emit ParticipantAction(msg.sender, MarketAction.buy, marketId, outcomeId, shares, value, now);\n    emitMarketOutcomePriceEvents(marketId);\n  }\n\n  /// Sell shares of a market outcome\n  function sell(\n    uint256 marketId,\n    uint256 outcomeId,\n    uint256 shares\n  ) external payable timeTransitions(marketId) atState(marketId, MarketState.open) {\n    Market storage market = markets[marketId];\n    MarketOutcome storage outcome = market.outcomes[outcomeId];\n\n    // Invariant check: make sure the stake is <= than user's stake\n    require(outcome.shares.holders[msg.sender] >= shares);\n\n    // Invariant check: make sure the market's stake is smaller than the stake\n    require((outcome.shares.total - outcome.shares.available) >= shares);\n\n    // removing shares\n    outcome.shares.holders[msg.sender] = outcome.shares.holders[msg.sender].sub(shares);\n\n    // adding shares back to pool\n    outcome.shares.available = outcome.shares.available.add(shares);\n    market.sharesAvailable = market.sharesAvailable.add(shares);\n\n    uint256 oppositeSharesAvailable = market.sharesAvailable.sub(outcome.shares.available);\n\n    // formula to calculate amount user will receive in ETH\n    // x = 1/2 (-sqrt(a^2 - 2 a (y + z) + 4 b + (y + z)^2) + a + y + z)\n    // x = ETH amount user will receive\n    // y = # shares sold\n    // z = # selling shares available\n    // a = # opposite shares available\n    // b = product balance\n\n    // productBalance = market.liquidity**(market.outcomeIds.length);\n    uint256 value = (oppositeSharesAvailable**2).add((market.liquidity**(market.outcomeIds.length)).mul(4));\n    value = value.add(outcome.shares.available**2);\n    value = value.sub(oppositeSharesAvailable.mul(2).mul(outcome.shares.available));\n    value = PMHelpers.sqrt(value);\n    value = oppositeSharesAvailable.add(outcome.shares.available).sub(value);\n    value = value.div(2);\n\n    require(value >= 0, \"ETH value has to be > 0\");\n\n    // Invariant check: make sure the contract has enough balance to be withdrawn from.\n    require(address(this).balance >= value);\n    require(market.balance >= value);\n\n    // Rebalancing market shares\n    for (uint256 i = 0; i < market.outcomeIds.length; i++) {\n      MarketOutcome storage marketOutcome = market.outcomes[i];\n\n      marketOutcome.shares.available = marketOutcome.shares.available.sub(value);\n      marketOutcome.shares.total = marketOutcome.shares.total.sub(value);\n\n      // only adding to market total shares, the available remains\n      market.sharesAvailable = market.sharesAvailable.sub(value);\n    }\n\n    market.balance = market.balance.sub(value);\n\n    // subtracting fee from transaction value\n    value = addTransactionToFeesPool(marketId, value);\n\n    // 3. Interaction\n    msg.sender.transfer(value);\n\n    emit ParticipantAction(msg.sender, MarketAction.sell, marketId, outcomeId, shares, value, now);\n    emitMarketOutcomePriceEvents(marketId);\n  }\n\n  function addLiquidity(uint256 marketId)\n    external\n    payable\n    timeTransitions(marketId)\n    atState(marketId, MarketState.open)\n  {\n    Market storage market = markets[marketId];\n\n    require(msg.value > 0, \"The stake has to be greater than 0.\");\n\n    // part of the liquidity is exchanged for outcome shares if not 50-50 market\n    // getting liquidity ratio\n    uint256 minShares = MAX_UINT_256;\n    uint256 minOutcomeId;\n    uint256 value;\n\n    for (uint256 i = 0; i < market.outcomeIds.length; i++) {\n      uint256 outcomeId = market.outcomeIds[i];\n      MarketOutcome storage outcome = market.outcomes[outcomeId];\n\n      if (outcome.shares.available < minShares) {\n        minShares = outcome.shares.available;\n        minOutcomeId = outcomeId;\n      }\n    }\n\n    uint256 liquidityRatio = minShares.mul(msg.value).div(market.liquidity);\n\n    // re-balancing fees pool\n    rebalanceFeesPool(marketId, liquidityRatio, MarketAction.addLiquidity);\n\n    market.liquidity = market.liquidity.add(liquidityRatio);\n\n    market.liquidityShares[msg.sender] = market.liquidityShares[msg.sender].add(liquidityRatio);\n\n    // equal outcome split, no need to buy shares\n    if (liquidityRatio == msg.value) {\n      market.balance = market.balance.add(liquidityRatio);\n      for (uint256 i = 0; i < market.outcomeIds.length; i++) {\n        uint256 outcomeId = market.outcomeIds[i];\n        MarketOutcome storage outcome = market.outcomes[outcomeId];\n\n        outcome.shares.available = outcome.shares.available.add(liquidityRatio);\n        outcome.shares.total = outcome.shares.total.add(liquidityRatio);\n\n        market.sharesAvailable = market.sharesAvailable.add(liquidityRatio);\n        value = msg.value;\n      }\n    } else {\n      buy(marketId, minOutcomeId, msg.value, MarketAction.addLiquidity);\n      value = liquidityRatio.mul(getMarketLiquidityPrice(marketId)).div(ONE);\n    }\n\n    emit ParticipantAction(msg.sender, MarketAction.addLiquidity, marketId, 0, liquidityRatio, value, now);\n    emit MarketLiquidity(marketId, market.liquidity, getMarketLiquidityPrice(marketId), now);\n  }\n\n  function removeLiquidity(uint256 marketId, uint256 shares)\n    external\n    payable\n    timeTransitions(marketId)\n    atState(marketId, MarketState.open)\n  {\n    Market storage market = markets[marketId];\n\n    // Invariant check: make sure the stake is <= than user's stake\n    require(market.liquidityShares[msg.sender] >= shares);\n\n    // ETH to transfer to user from liquidity removal\n    uint256 value;\n\n    // claiming any pending fees\n    claimFees(marketId);\n\n    // removing liquidity tokens from market creator\n    market.liquidityShares[msg.sender] = market.liquidityShares[msg.sender].sub(shares);\n\n    // part of the liquidity is exchanged for outcome shares if not 50-50 market\n    // getting liquidity ratio\n    uint256 minShares = MAX_UINT_256;\n    uint256 minOutcomeId;\n\n    for (uint256 i = 0; i < market.outcomeIds.length; i++) {\n      uint256 outcomeId = market.outcomeIds[i];\n      MarketOutcome storage outcome = market.outcomes[outcomeId];\n\n      if (outcome.shares.available < minShares) {\n        minShares = outcome.shares.available;\n        minOutcomeId = outcomeId;\n      }\n    }\n\n    uint256 liquidityRatio = minShares.mul(shares).div(market.liquidity);\n\n    // re-balancing fees pool\n    rebalanceFeesPool(marketId, shares, MarketAction.removeLiquidity);\n\n    // equal outcome split, no need to buy shares\n    if (liquidityRatio == shares) {\n      // removing liquidity from market\n      market.balance = market.balance.sub(liquidityRatio);\n      market.liquidity = market.liquidity.sub(liquidityRatio);\n\n      for (uint256 i = 0; i < market.outcomeIds.length; i++) {\n        uint256 outcomeId = market.outcomeIds[i];\n        MarketOutcome storage outcome = market.outcomes[outcomeId];\n\n        outcome.shares.available = outcome.shares.available.sub(liquidityRatio);\n        outcome.shares.total = outcome.shares.total.sub(liquidityRatio);\n\n        market.sharesAvailable = market.sharesAvailable.sub(liquidityRatio);\n      }\n\n      value = shares;\n    } else {\n      // buying shares from the opposite markets\n      uint256 outcomeId = minOutcomeId == 0 ? 1 : 0;\n\n      // value received: Total Liquidity / Shares Outcome * Liquidity Removed\n      value = market.liquidity.mul(shares).div(market.outcomes[outcomeId].shares.available);\n\n      // removing liquidity from market (shares = value)\n      market.liquidity = market.liquidity.sub(shares);\n\n      buy(marketId, outcomeId, value, MarketAction.removeLiquidity);\n      // msg.sender.transfer(value);\n    }\n\n    // transferring user ETH from liquidity removed\n    msg.sender.transfer(value);\n\n    emit ParticipantAction(msg.sender, MarketAction.removeLiquidity, marketId, 0, shares, value, now);\n    emit MarketLiquidity(marketId, market.liquidity, getMarketLiquidityPrice(marketId), now);\n  }\n\n  /// Determine the result of the market\n  /// @dev Only allowed by oracle\n  /// @return Id of the outcome\n  function resolveMarketOutcome(uint256 marketId)\n    public\n    timeTransitions(marketId)\n    atState(marketId, MarketState.closed)\n    transitionNext(marketId)\n    returns (uint256)\n  {\n    Market storage market = markets[marketId];\n\n    RealitioERC20 realitio = RealitioERC20(realitioAddress);\n    // will throw an error if question is not finalized\n    uint256 outcomeId = uint256(realitio.resultFor(market.resolution.questionId));\n\n    MarketOutcome storage outcome = market.outcomes[outcomeId];\n\n    // TODO: process outcome\n\n    market.resolution.outcomeId = outcomeId;\n\n    emit MarketResolved(msg.sender, marketId, outcomeId, now);\n    // emitting 1 price event for winner outcome\n    emit MarketOutcomePrice(marketId, outcomeId, ONE, now);\n    // emitting 0 price event for loser outcome\n    emit MarketOutcomePrice(marketId, (outcomeId == 0 ? 1 : 0), 0, now);\n    // final liquidity price = outcome shares / liquidity shares\n    uint256 liquidityPrice = outcome.shares.available.mul(ONE).div(market.liquidity);\n    emit MarketLiquidity(marketId, market.liquidity, liquidityPrice, now);\n\n    return market.resolution.outcomeId;\n  }\n\n  /// Allowing holders of resolved outcome shares to claim earnings.\n  function claimWinnings(uint256 marketId) public atState(marketId, MarketState.resolved) {\n    Market storage market = markets[marketId];\n    MarketOutcome storage resolvedOutcome = market.outcomes[market.resolution.outcomeId];\n\n    require(resolvedOutcome.shares.holders[msg.sender] > 0, \"Participant does not hold resolved outcome shares\");\n    require(\n      resolvedOutcome.shares.claims[msg.sender] == false,\n      \"Participant already claimed resolved outcome winnings\"\n    );\n\n    // 1 share = 1 ETH\n    uint256 value = resolvedOutcome.shares.holders[msg.sender];\n\n    // assuring market has enough funds\n    require(market.balance >= value, \"Market does not have enough balance\");\n\n    market.balance = market.balance.sub(value);\n    resolvedOutcome.shares.claims[msg.sender] = true;\n\n    emit ParticipantAction(\n      msg.sender,\n      MarketAction.claimWinnings,\n      marketId,\n      market.resolution.outcomeId,\n      resolvedOutcome.shares.holders[msg.sender],\n      value,\n      now\n    );\n\n    msg.sender.transfer(value);\n  }\n\n  /// Allowing liquidity providers to claim earnings from liquidity providing.\n  function claimLiquidity(uint256 marketId) public atState(marketId, MarketState.resolved) {\n    Market storage market = markets[marketId];\n    MarketOutcome storage resolvedOutcome = market.outcomes[market.resolution.outcomeId];\n\n    // claiming any pending fees\n    claimFees(marketId);\n\n    require(market.liquidityShares[msg.sender] > 0, \"Participant does not hold liquidity shares\");\n    require(market.liquidityClaims[msg.sender] == false, \"Participant already claimed liquidity winnings\");\n\n    // value = total resolved outcome pool shares * pool share (%)\n    uint256 value = resolvedOutcome.shares.available.mul(getUserLiquidityPoolShare(marketId, msg.sender)).div(ONE);\n\n    // assuring market has enough funds\n    require(market.balance >= value, \"Market does not have enough balance\");\n\n    market.balance = market.balance.sub(value);\n    market.liquidityClaims[msg.sender] = true;\n\n    emit ParticipantAction(\n      msg.sender,\n      MarketAction.claimLiquidity,\n      marketId,\n      0,\n      market.liquidityShares[msg.sender],\n      value,\n      now\n    );\n\n    msg.sender.transfer(value);\n  }\n\n  function claimFees(uint256 marketId) public payable {\n    Market storage market = markets[marketId];\n\n    uint256 claimableFees = getUserClaimableFees(marketId, msg.sender);\n\n    if (claimableFees > 0) {\n      market.fees.claimed[msg.sender] = market.fees.claimed[msg.sender].add(claimableFees);\n      msg.sender.transfer(claimableFees);\n    }\n\n    emit ParticipantAction(\n      msg.sender,\n      MarketAction.claimFees,\n      marketId,\n      0,\n      market.liquidityShares[msg.sender],\n      claimableFees,\n      now\n    );\n  }\n\n  function addTransactionToFeesPool(uint256 marketId, uint256 value) internal returns (uint256) {\n    Market storage market = markets[marketId];\n    uint256 feeAmount = value.mul(market.fees.value) / ONE;\n\n    market.fees.poolWeight = market.fees.poolWeight.add(feeAmount);\n\n    // returning investment minus fees\n    return value.sub(feeAmount);\n  }\n\n  function rebalanceFeesPool(\n    uint256 marketId,\n    uint256 liquidityShares,\n    MarketAction action\n  ) internal returns (uint256) {\n    Market storage market = markets[marketId];\n\n    uint256 poolWeight = liquidityShares.mul(market.fees.poolWeight).div(market.liquidity);\n\n    if (action == MarketAction.addLiquidity) {\n      market.fees.poolWeight = market.fees.poolWeight.add(poolWeight);\n      market.fees.claimed[msg.sender] = market.fees.claimed[msg.sender].add(poolWeight);\n    } else {\n      market.fees.poolWeight = market.fees.poolWeight.sub(poolWeight);\n      market.fees.claimed[msg.sender] = market.fees.claimed[msg.sender].sub(poolWeight);\n    }\n  }\n\n  /// Internal function for advancing the market state.\n  function nextState(uint256 marketId) internal {\n    Market storage market = markets[marketId];\n    market.state = MarketState(uint256(market.state) + 1);\n  }\n\n  function emitMarketOutcomePriceEvents(uint256 marketId) internal {\n    Market storage market = markets[marketId];\n\n    for (uint256 i = 0; i < market.outcomeIds.length; i++) {\n      emit MarketOutcomePrice(marketId, i, getMarketOutcomePrice(marketId, i), now);\n    }\n\n    // liquidity shares also change value\n    emit MarketLiquidity(marketId, market.liquidity, getMarketLiquidityPrice(marketId), now);\n  }\n\n  // ------ Core Functions End ------\n\n  // ------ Governance Functions Start ------\n\n  function setFee(uint256 feeValue) public onlyOwner() {\n    fee = feeValue;\n  }\n\n  function setRealitioERC20(address addr) public onlyOwner() {\n    realitioAddress = addr;\n  }\n\n  function setRealitioTimeout(uint256 timeout) public onlyOwner() {\n    realitioTimeout = timeout;\n  }\n\n  // ------ Governance Functions End ------\n\n  // ------ Getters ------\n\n  function getUserMarketShares(uint256 marketId, address participant)\n    public\n    view\n    returns (\n      uint256,\n      uint256,\n      uint256\n    )\n  {\n    Market storage market = markets[marketId];\n\n    return (\n      market.liquidityShares[participant],\n      market.outcomes[0].shares.holders[participant],\n      market.outcomes[1].shares.holders[participant]\n    );\n  }\n\n  function getUserClaimStatus(uint256 marketId, address participant)\n    public\n    view\n    returns (\n      bool,\n      bool,\n      bool,\n      bool,\n      uint256\n    )\n  {\n    Market storage market = markets[marketId];\n\n    // market still not resolved\n    if (market.state != MarketState.resolved) {\n      return (false, false, false, false, getUserClaimableFees(marketId, participant));\n    }\n\n    MarketOutcome storage outcome = market.outcomes[market.resolution.outcomeId];\n\n    return (\n      outcome.shares.holders[participant] > 0,\n      outcome.shares.claims[participant],\n      market.liquidityShares[participant] > 0,\n      market.liquidityClaims[participant],\n      getUserClaimableFees(marketId, participant)\n    );\n  }\n\n  // @return % of liquidity pool stake\n  function getUserLiquidityPoolShare(uint256 marketId, address participant) public view returns (uint256) {\n    Market storage market = markets[marketId];\n\n    return market.liquidityShares[participant].mul(ONE).div(market.liquidity);\n  }\n\n  function getUserClaimableFees(uint256 marketId, address participant) public view returns (uint256) {\n    Market storage market = markets[marketId];\n\n    uint256 rawAmount = market.fees.poolWeight.mul(market.liquidityShares[participant]).div(market.liquidity);\n    return rawAmount.sub(market.fees.claimed[participant]);\n  }\n\n  /// Allow retrieving the the array of created contracts\n  /// @return An array of all created Market contracts\n  function getMarkets() public view returns (uint256[] memory) {\n    return marketIds;\n  }\n\n  function getMarketData(uint256 marketId)\n    public\n    view\n    returns (\n      string memory,\n      MarketState,\n      uint256,\n      uint256,\n      uint256,\n      uint256,\n      int256\n    )\n  {\n    Market storage market = markets[marketId];\n\n    return (\n      market.name,\n      market.state,\n      market.closedDateTime,\n      market.liquidity,\n      market.balance,\n      market.sharesAvailable,\n      getMarketResolvedOutcome(marketId)\n    );\n  }\n\n  function getMarketAltData(uint256 marketId)\n    public\n    view\n    returns (\n      uint256,\n      bytes32,\n      uint256\n    )\n  {\n    Market storage market = markets[marketId];\n\n    return (market.fees.value, market.resolution.questionId, uint256(market.resolution.questionId));\n  }\n\n  function getMarketQuestion(uint256 marketId) public view returns (bytes32) {\n    Market storage market = markets[marketId];\n\n    return (market.resolution.questionId);\n  }\n\n  function getMarketPrices(uint256 marketId)\n    public\n    view\n    returns (\n      uint256,\n      uint256,\n      uint256\n    )\n  {\n    return (getMarketLiquidityPrice(marketId), getMarketOutcomePrice(marketId, 0), getMarketOutcomePrice(marketId, 1));\n  }\n\n  function getMarketLiquidityPrice(uint256 marketId) public view returns (uint256) {\n    Market storage market = markets[marketId];\n\n    if (market.state == MarketState.resolved) {\n      // resolved market, price is either 0 or 1\n      // final liquidity price = outcome shares / liquidity shares\n      return market.outcomes[market.resolution.outcomeId].shares.available.mul(ONE).div(market.liquidity);\n    }\n\n    // liquidity price = # liquidity shares / # outcome shares * # outcomes\n    return market.liquidity.mul(ONE * market.outcomeIds.length).div(market.sharesAvailable);\n  }\n\n  function getMarketResolvedOutcome(uint256 marketId) public view returns (int256) {\n    Market storage market = markets[marketId];\n\n    // returning -1 if market still not resolved\n    if (market.state != MarketState.resolved) {\n      return -1;\n    }\n\n    return int256(market.resolution.outcomeId);\n  }\n\n  // ------ Outcome Getters ------\n\n  function getMarketOutcomeIds(uint256 marketId) public view returns (uint256[] memory) {\n    Market storage market = markets[marketId];\n    return market.outcomeIds;\n  }\n\n  function getMarketOutcomePrice(uint256 marketId, uint256 marketOutcomeId) public view returns (uint256) {\n    Market storage market = markets[marketId];\n    MarketOutcome storage outcome = market.outcomes[marketOutcomeId];\n\n    if (market.state == MarketState.resolved) {\n      // resolved market, price is either 0 or 1\n      return marketOutcomeId == market.resolution.outcomeId ? ONE : 0;\n    }\n\n    require(\n      outcome.shares.total >= outcome.shares.available,\n      \"Total shares has to be equal or higher than available shares\"\n    );\n    require(\n      market.sharesAvailable >= outcome.shares.available,\n      \"Total # available shares has to be equal or higher than outcome available shares\"\n    );\n\n    uint256 holders = market.sharesAvailable.sub(outcome.shares.available);\n\n    return holders.mul(ONE).div(market.sharesAvailable);\n  }\n\n  function getMarketOutcomeData(uint256 marketId, uint256 marketOutcomeId)\n    public\n    view\n    returns (\n      string memory,\n      uint256,\n      uint256,\n      uint256\n    )\n  {\n    Market storage market = markets[marketId];\n    MarketOutcome storage outcome = market.outcomes[marketOutcomeId];\n\n    return (\n      outcome.name,\n      getMarketOutcomePrice(marketId, marketOutcomeId),\n      outcome.shares.available,\n      outcome.shares.total\n    );\n  }\n}\n",
  "sourcePath": "/Users/ricardomarques/dev/workspace/polkamarkets/bepro-js/contracts/PredictionMarket.sol",
  "compiler": {
    "name": "solc",
    "version": "0.6.2+commit.bacdbe57.Emscripten.clang"
  },
  "schemaVersion": "3.3.4",
  "updatedAt": "2021-08-02T14:37:08.689Z",
  "devdoc": {
    "methods": {
      "createMarket(string,uint256,address,string[])": {
        "details": "The new Market contract is then saved in the array of this contract for future reference.",
        "params": {
          "closesAt": "- The duration of the market `open` period",
          "name": "- Name of the market",
          "oracle": "- oracle address"
        }
      },
      "owner()": {
        "details": "Returns the address of the current owner."
      },
      "renounceOwnership()": {
        "details": "Leaves the contract without owner. It will not be possible to call `onlyOwner` functions anymore. Can only be called by the current owner.     * NOTE: Renouncing ownership will leave the contract without an owner, thereby removing any functionality that is only available to the owner."
      },
      "resolveMarketOutcome(uint256)": {
        "details": "Only allowed by oracle",
        "returns": {
          "_0": "Id of the outcome"
        }
      },
      "transferOwnership(address)": {
        "details": "Transfers ownership of the contract to a new account (`newOwner`). Can only be called by the current owner."
      }
    },
    "title": "Market Contract Factory"
  },
  "userdoc": {
    "methods": {
      "claimLiquidity(uint256)": {
        "notice": "Allowing liquidity providers to claim earnings from liquidity providing."
      },
      "claimWinnings(uint256)": {
        "notice": "Allowing holders of resolved outcome shares to claim earnings."
      },
      "createMarket(string,uint256,address,string[])": {
        "notice": "Create a new Market contract"
      },
      "getMarkets()": {
        "notice": "Allow retrieving the the array of created contracts"
      },
      "resolveMarketOutcome(uint256)": {
        "notice": "Determine the result of the market"
      },
      "sell(uint256,uint256,uint256)": {
        "notice": "Sell shares of a market outcome"
      }
    }
  }
}